{
  "contracts/Main.sol": {
    "Main": {
      "abi": [
        {
          "anonymous": false,
          "inputs": [],
          "name": "Add",
          "type": "event"
        },
        {
          "anonymous": false,
          "inputs": [
            {
              "indexed": false,
              "internalType": "address",
              "name": "contractAddr",
              "type": "address"
            }
          ],
          "name": "Create",
          "type": "event"
        },
        {
          "anonymous": false,
          "inputs": [],
          "name": "Remove",
          "type": "event"
        },
        {
          "inputs": [
            {
              "internalType": "address",
              "name": "listAddr",
              "type": "address"
            }
          ],
          "name": "addList",
          "outputs": [],
          "stateMutability": "nonpayable",
          "type": "function"
        },
        {
          "inputs": [
            {
              "internalType": "bytes32",
              "name": "title",
              "type": "bytes32"
            }
          ],
          "name": "createList",
          "outputs": [],
          "stateMutability": "nonpayable",
          "type": "function"
        },
        {
          "inputs": [],
          "name": "getLists",
          "outputs": [
            {
              "internalType": "contract TodoList[]",
              "name": "",
              "type": "address[]"
            }
          ],
          "stateMutability": "view",
          "type": "function"
        },
        {
          "inputs": [
            {
              "internalType": "address",
              "name": "listAddr",
              "type": "address"
            }
          ],
          "name": "removeList",
          "outputs": [],
          "stateMutability": "nonpayable",
          "type": "function"
        }
      ],
      "evm": {
        "bytecode": {
          "linkReferences": {},
          "object": "608060405234801561001057600080fd5b506122a6806100206000396000f3fe60806040523480156200001157600080fd5b5060043610620000525760003560e01c8063426e3daa146200005757806360a20c4914620000775780639db332441462000097578063cb4b090914620000b7575b600080fd5b6200007560048036038101906200006f9190620006d5565b620000d9565b005b6200009560048036038101906200008f91906200076c565b62000237565b005b620000b56004803603810190620000af91906200076c565b620004e7565b005b620000c1620005bb565b604051620000d09190620008c6565b60405180910390f35b600081336000803373ffffffffffffffffffffffffffffffffffffffff1673ffffffffffffffffffffffffffffffffffffffff168152602001908152602001600020805490506040516200012d9062000687565b6200013b9392919062000927565b604051809103906000f08015801562000158573d6000803e3d6000fd5b5090506000803373ffffffffffffffffffffffffffffffffffffffff1673ffffffffffffffffffffffffffffffffffffffff168152602001908152602001600020819080600181540180825580915050600190039060005260206000200160009091909190916101000a81548173ffffffffffffffffffffffffffffffffffffffff021916908373ffffffffffffffffffffffffffffffffffffffff1602179055507fe3758539c1bd6726422843471b2886c2d2cefd3b4aead6778386283e20a32a80816040516200022b919062000964565b60405180910390a15050565b600081905060008173ffffffffffffffffffffffffffffffffffffffff166381045ead6040518163ffffffff1660e01b815260040160206040518083038186803b1580156200028557600080fd5b505afa1580156200029a573d6000803e3d6000fd5b505050506040513d601f19601f82011682018060405250810190620002c09190620009b2565b905060008060003373ffffffffffffffffffffffffffffffffffffffff1673ffffffffffffffffffffffffffffffffffffffff16815260200190815260200160002060016000803373ffffffffffffffffffffffffffffffffffffffff1673ffffffffffffffffffffffffffffffffffffffff1681526020019081526020016000208054905062000352919062000a13565b8154811062000366576200036562000a4e565b5b9060005260206000200160009054906101000a900473ffffffffffffffffffffffffffffffffffffffff169050806000803373ffffffffffffffffffffffffffffffffffffffff1673ffffffffffffffffffffffffffffffffffffffff1681526020019081526020016000208381548110620003e757620003e662000a4e565b5b9060005260206000200160006101000a81548173ffffffffffffffffffffffffffffffffffffffff021916908373ffffffffffffffffffffffffffffffffffffffff1602179055506000803373ffffffffffffffffffffffffffffffffffffffff1673ffffffffffffffffffffffffffffffffffffffff16815260200190815260200160002080548062000480576200047f62000a7d565b5b6001900381819060005260206000200160006101000a81549073ffffffffffffffffffffffffffffffffffffffff021916905590557f6424bd8c78c3d8e79e0d2138594559394eeeb0000dea53d09622b86fd60b4e4d60405160405180910390a150505050565b60008190506000803373ffffffffffffffffffffffffffffffffffffffff1673ffffffffffffffffffffffffffffffffffffffff168152602001908152602001600020819080600181540180825580915050600190039060005260206000200160009091909190916101000a81548173ffffffffffffffffffffffffffffffffffffffff021916908373ffffffffffffffffffffffffffffffffffffffff1602179055507f67e06858c2f43927dfc5b425032ddbd0a0f32e9dab9f4e925a0bc4427406f1b560405160405180910390a15050565b60606000803373ffffffffffffffffffffffffffffffffffffffff1673ffffffffffffffffffffffffffffffffffffffff1681526020019081526020016000208054806020026020016040519081016040528092919081815260200182805480156200067d57602002820191906000526020600020905b8160009054906101000a900473ffffffffffffffffffffffffffffffffffffffff1673ffffffffffffffffffffffffffffffffffffffff168152602001906001019080831162000632575b5050505050905090565b6117c48062000aad83390190565b600080fd5b6000819050919050565b620006af816200069a565b8114620006bb57600080fd5b50565b600081359050620006cf81620006a4565b92915050565b600060208284031215620006ee57620006ed62000695565b5b6000620006fe84828501620006be565b91505092915050565b600073ffffffffffffffffffffffffffffffffffffffff82169050919050565b6000620007348262000707565b9050919050565b620007468162000727565b81146200075257600080fd5b50565b60008135905062000766816200073b565b92915050565b60006020828403121562000785576200078462000695565b5b6000620007958482850162000755565b91505092915050565b600081519050919050565b600082825260208201905092915050565b6000819050602082019050919050565b6000819050919050565b6000620007f5620007ef620007e98462000707565b620007ca565b62000707565b9050919050565b60006200080982620007d4565b9050919050565b60006200081d82620007fc565b9050919050565b6200082f8162000810565b82525050565b600062000843838362000824565b60208301905092915050565b6000602082019050919050565b600062000869826200079e565b620008758185620007a9565b93506200088283620007ba565b8060005b83811015620008b95781516200089d888262000835565b9750620008aa836200084f565b92505060018101905062000886565b5085935050505092915050565b60006020820190508181036000830152620008e281846200085c565b905092915050565b620008f5816200069a565b82525050565b620009068162000727565b82525050565b6000819050919050565b62000921816200090c565b82525050565b60006060820190506200093e6000830186620008ea565b6200094d6020830185620008fb565b6200095c604083018462000916565b949350505050565b60006020820190506200097b6000830184620008fb565b92915050565b6200098c816200090c565b81146200099857600080fd5b50565b600081519050620009ac8162000981565b92915050565b600060208284031215620009cb57620009ca62000695565b5b6000620009db848285016200099b565b91505092915050565b7f4e487b7100000000000000000000000000000000000000000000000000000000600052601160045260246000fd5b600062000a20826200090c565b915062000a2d836200090c565b92508282101562000a435762000a42620009e4565b5b828203905092915050565b7f4e487b7100000000000000000000000000000000000000000000000000000000600052603260045260246000fd5b7f4e487b7100000000000000000000000000000000000000000000000000000000600052603160045260246000fdfe60806040523480156200001157600080fd5b50604051620017c4380380620017c48339818101604052810190620000379190620001e9565b8060008190555081600360006101000a81548173ffffffffffffffffffffffffffffffffffffffff021916908373ffffffffffffffffffffffffffffffffffffffff16021790555082600281905550600160046000600360009054906101000a900473ffffffffffffffffffffffffffffffffffffffff1673ffffffffffffffffffffffffffffffffffffffff1673ffffffffffffffffffffffffffffffffffffffff16815260200190815260200160002060006101000a81548160ff02191690831515021790555050505062000245565b600080fd5b6000819050919050565b62000123816200010e565b81146200012f57600080fd5b50565b600081519050620001438162000118565b92915050565b600073ffffffffffffffffffffffffffffffffffffffff82169050919050565b6000620001768262000149565b9050919050565b620001888162000169565b81146200019457600080fd5b50565b600081519050620001a8816200017d565b92915050565b6000819050919050565b620001c381620001ae565b8114620001cf57600080fd5b50565b600081519050620001e381620001b8565b92915050565b60008060006060848603121562000205576200020462000109565b5b6000620002158682870162000132565b9350506020620002288682870162000197565b92505060406200023b86828701620001d2565b9150509250925092565b61156f80620002556000396000f3fe608060405234801561001057600080fd5b50600436106100a95760003560e01c806381045ead1161007157806381045ead1461013f578063a30f75c91461015d578063c17a340e1461017b578063e5a5e6fe14610199578063f2fde38b146101b5578063ff3c1a8f146101d1576100a9565b80631122b3a6146100ae578063197a6dc0146100ca5780633bc5de30146100e8578063455f5024146101075780635ef2ea7914610123575b600080fd5b6100c860048036038101906100c39190610bc8565b6101ef565b005b6100d261035d565b6040516100df9190610c10565b60405180910390f35b6100f06103b5565b6040516100fe929190610db1565b60405180910390f35b610121600480360381019061011c9190610e1e565b610502565b005b61013d60048036038101906101389190611182565b610646565b005b6101476108ef565b6040516101549190611238565b60405180910390f35b6101656108f8565b6040516101729190610c10565b60405180910390f35b61018361094c565b6040516101909190611238565b60405180910390f35b6101b360048036038101906101ae9190610bc8565b610956565b005b6101cf60048036038101906101ca9190610bc8565b610a78565b005b6101d9610b4c565b6040516101e69190611262565b60405180910390f35b600360009054906101000a900473ffffffffffffffffffffffffffffffffffffffff1673ffffffffffffffffffffffffffffffffffffffff163373ffffffffffffffffffffffffffffffffffffffff161461027f576040517f08c379a000000000000000000000000000000000000000000000000000000000815260040161027690611300565b60405180910390fd5b600460008273ffffffffffffffffffffffffffffffffffffffff1673ffffffffffffffffffffffffffffffffffffffff16815260200190815260200160002060009054906101000a900460ff1615600460008373ffffffffffffffffffffffffffffffffffffffff1673ffffffffffffffffffffffffffffffffffffffff16815260200190815260200160002060006101000a81548160ff0219169083151502179055507f5bf5439f7f9350bd946ae989209039471cdc88d8524b96de66b8d1f876abd77081604051610352919061132f565b60405180910390a150565b60003373ffffffffffffffffffffffffffffffffffffffff16600360009054906101000a900473ffffffffffffffffffffffffffffffffffffffff1673ffffffffffffffffffffffffffffffffffffffff1614905090565b606080600060015467ffffffffffffffff8111156103d6576103d5610e61565b5b6040519080825280602002602001820160405280156104045781602001602082028036833780820191505090505b509050600060015467ffffffffffffffff81111561042557610424610e61565b5b6040519080825280602002602001820160405280156104535781602001602082028036833780820191505090505b50905060005b6001548110156104f557600560008281526020019081526020016000206000015483828151811061048d5761048c61134a565b5b6020026020010181815250506005600082815260200190815260200160002060010160009054906101000a900460ff168282815181106104d0576104cf61134a565b5b60200260200101901515908115158152505080806104ed906113a8565b915050610459565b5081819350935050509091565b60011515600460003373ffffffffffffffffffffffffffffffffffffffff1673ffffffffffffffffffffffffffffffffffffffff16815260200190815260200160002060009054906101000a900460ff16151514610595576040517f08c379a000000000000000000000000000000000000000000000000000000000815260040161058c90611463565b60405180910390fd5b6005600082815260200190815260200160002060010160009054906101000a900460ff16156005600083815260200190815260200160002060010160006101000a81548160ff0219169083151502179055507fe668c7a227d9261aa1f964bf5a852ab642446a7af6c29405caf8d0e9ce2c11f0816005600084815260200190815260200160002060010160009054906101000a900460ff1660405161063b929190611483565b60405180910390a150565b60011515600460003373ffffffffffffffffffffffffffffffffffffffff1673ffffffffffffffffffffffffffffffffffffffff16815260200190815260200160002060009054906101000a900460ff161515146106d9576040517f08c379a00000000000000000000000000000000000000000000000000000000081526004016106d090611463565b60405180910390fd5b6000805b84518110156108ab57818582815181106106fa576106f961134a565b5b60200260200101511061073157600185828151811061071c5761071b61134a565b5b602002602001015161072e91906114ac565b91505b604051806040016040528085838151811061074f5761074e61134a565b5b6020026020010151815260200184838151811061076f5761076e61134a565b5b60200260200101511515815250600560008784815181106107935761079261134a565b5b602002602001015181526020019081526020016000206000820151816000015560208201518160010160006101000a81548160ff0219169083151502179055509050507feffc45379f030f429cb52689dc4cebc43b405dbefe7a792f36de70c24a21348585828151811061080a5761080961134a565b5b6020026020010151600560008885815181106108295761082861134a565b5b60200260200101518152602001908152602001600020600001546005600089868151811061085a5761085961134a565b5b6020026020010151815260200190815260200160002060010160009054906101000a900460ff1660405161089093929190611502565b60405180910390a180806108a3906113a8565b9150506106dd565b5060015481106108bd57806001819055505b7f8080f39d268bf0b9bc04bcf29765470f11fd7422f9a1523f5286ce23fd1d6f2160405160405180910390a150505050565b60008054905090565b6000600460003373ffffffffffffffffffffffffffffffffffffffff1673ffffffffffffffffffffffffffffffffffffffff16815260200190815260200160002060009054906101000a900460ff16905090565b6000600154905090565b600360009054906101000a900473ffffffffffffffffffffffffffffffffffffffff1673ffffffffffffffffffffffffffffffffffffffff163373ffffffffffffffffffffffffffffffffffffffff16146109e6576040517f08c379a00000000000000000000000000000000000000000000000000000000081526004016109dd90611300565b60405180910390fd5b6001600460008373ffffffffffffffffffffffffffffffffffffffff1673ffffffffffffffffffffffffffffffffffffffff16815260200190815260200160002060006101000a81548160ff0219169083151502179055507f5bf5439f7f9350bd946ae989209039471cdc88d8524b96de66b8d1f876abd77081604051610a6d919061132f565b60405180910390a150565b600360009054906101000a900473ffffffffffffffffffffffffffffffffffffffff1673ffffffffffffffffffffffffffffffffffffffff163373ffffffffffffffffffffffffffffffffffffffff1614610b08576040517f08c379a0000000000000000000000000000000000000000000000000000000008152600401610aff90611300565b60405180910390fd5b80600360006101000a81548173ffffffffffffffffffffffffffffffffffffffff021916908373ffffffffffffffffffffffffffffffffffffffff16021790555050565b6000600254905090565b6000604051905090565b600080fd5b600080fd5b600073ffffffffffffffffffffffffffffffffffffffff82169050919050565b6000610b9582610b6a565b9050919050565b610ba581610b8a565b8114610bb057600080fd5b50565b600081359050610bc281610b9c565b92915050565b600060208284031215610bde57610bdd610b60565b5b6000610bec84828501610bb3565b91505092915050565b60008115159050919050565b610c0a81610bf5565b82525050565b6000602082019050610c256000830184610c01565b92915050565b600081519050919050565b600082825260208201905092915050565b6000819050602082019050919050565b6000819050919050565b610c6a81610c57565b82525050565b6000610c7c8383610c61565b60208301905092915050565b6000602082019050919050565b6000610ca082610c2b565b610caa8185610c36565b9350610cb583610c47565b8060005b83811015610ce6578151610ccd8882610c70565b9750610cd883610c88565b925050600181019050610cb9565b5085935050505092915050565b600081519050919050565b600082825260208201905092915050565b6000819050602082019050919050565b610d2881610bf5565b82525050565b6000610d3a8383610d1f565b60208301905092915050565b6000602082019050919050565b6000610d5e82610cf3565b610d688185610cfe565b9350610d7383610d0f565b8060005b83811015610da4578151610d8b8882610d2e565b9750610d9683610d46565b925050600181019050610d77565b5085935050505092915050565b60006040820190508181036000830152610dcb8185610c95565b90508181036020830152610ddf8184610d53565b90509392505050565b6000819050919050565b610dfb81610de8565b8114610e0657600080fd5b50565b600081359050610e1881610df2565b92915050565b600060208284031215610e3457610e33610b60565b5b6000610e4284828501610e09565b91505092915050565b600080fd5b6000601f19601f8301169050919050565b7f4e487b7100000000000000000000000000000000000000000000000000000000600052604160045260246000fd5b610e9982610e50565b810181811067ffffffffffffffff82111715610eb857610eb7610e61565b5b80604052505050565b6000610ecb610b56565b9050610ed78282610e90565b919050565b600067ffffffffffffffff821115610ef757610ef6610e61565b5b602082029050602081019050919050565b600080fd5b6000610f20610f1b84610edc565b610ec1565b90508083825260208201905060208402830185811115610f4357610f42610f08565b5b835b81811015610f6c5780610f588882610e09565b845260208401935050602081019050610f45565b5050509392505050565b600082601f830112610f8b57610f8a610e4b565b5b8135610f9b848260208601610f0d565b91505092915050565b600067ffffffffffffffff821115610fbf57610fbe610e61565b5b602082029050602081019050919050565b610fd981610c57565b8114610fe457600080fd5b50565b600081359050610ff681610fd0565b92915050565b600061100f61100a84610fa4565b610ec1565b9050808382526020820190506020840283018581111561103257611031610f08565b5b835b8181101561105b57806110478882610fe7565b845260208401935050602081019050611034565b5050509392505050565b600082601f83011261107a57611079610e4b565b5b813561108a848260208601610ffc565b91505092915050565b600067ffffffffffffffff8211156110ae576110ad610e61565b5b602082029050602081019050919050565b6110c881610bf5565b81146110d357600080fd5b50565b6000813590506110e5816110bf565b92915050565b60006110fe6110f984611093565b610ec1565b9050808382526020820190506020840283018581111561112157611120610f08565b5b835b8181101561114a578061113688826110d6565b845260208401935050602081019050611123565b5050509392505050565b600082601f83011261116957611168610e4b565b5b81356111798482602086016110eb565b91505092915050565b60008060006060848603121561119b5761119a610b60565b5b600084013567ffffffffffffffff8111156111b9576111b8610b65565b5b6111c586828701610f76565b935050602084013567ffffffffffffffff8111156111e6576111e5610b65565b5b6111f286828701611065565b925050604084013567ffffffffffffffff81111561121357611212610b65565b5b61121f86828701611154565b9150509250925092565b61123281610de8565b82525050565b600060208201905061124d6000830184611229565b92915050565b61125c81610c57565b82525050565b60006020820190506112776000830184611253565b92915050565b600082825260208201905092915050565b7f54686973206f7065726174696f6e206973207265737472696374656420746f2060008201527f746865206f776e6572206f662074686520636f6e747261637400000000000000602082015250565b60006112ea60398361127d565b91506112f58261128e565b604082019050919050565b60006020820190508181036000830152611319816112dd565b9050919050565b61132981610b8a565b82525050565b60006020820190506113446000830184611320565b92915050565b7f4e487b7100000000000000000000000000000000000000000000000000000000600052603260045260246000fd5b7f4e487b7100000000000000000000000000000000000000000000000000000000600052601160045260246000fd5b60006113b382610de8565b91507fffffffffffffffffffffffffffffffffffffffffffffffffffffffffffffffff8214156113e6576113e5611379565b5b600182019050919050565b7f596f75206d75737420686176652077726974652061636365737320746f20636860008201527f616e67652074686520636f6e7472616374207374617465000000000000000000602082015250565b600061144d60378361127d565b9150611458826113f1565b604082019050919050565b6000602082019050818103600083015261147c81611440565b9050919050565b60006040820190506114986000830185611229565b6114a56020830184610c01565b9392505050565b60006114b782610de8565b91506114c283610de8565b9250827fffffffffffffffffffffffffffffffffffffffffffffffffffffffffffffffff038211156114f7576114f6611379565b5b828201905092915050565b60006060820190506115176000830186611229565b6115246020830185611253565b6115316040830184610c01565b94935050505056fea264697066735822122051e2ebd7b594c84bb7c22ec68972d43c9ccb6ab25c16432d854d6c5216a138b864736f6c63430008090033a26469706673582212206af0df38945723df32b8a3d02d37bfc4740d42fb1221c55296c3e2d1504b399064736f6c63430008090033",
          "opcodes": "PUSH1 0x80 PUSH1 0x40 MSTORE CALLVALUE DUP1 ISZERO PUSH2 0x10 JUMPI PUSH1 0x0 DUP1 REVERT JUMPDEST POP PUSH2 0x22A6 DUP1 PUSH2 0x20 PUSH1 0x0 CODECOPY PUSH1 0x0 RETURN INVALID PUSH1 0x80 PUSH1 0x40 MSTORE CALLVALUE DUP1 ISZERO PUSH3 0x11 JUMPI PUSH1 0x0 DUP1 REVERT JUMPDEST POP PUSH1 0x4 CALLDATASIZE LT PUSH3 0x52 JUMPI PUSH1 0x0 CALLDATALOAD PUSH1 0xE0 SHR DUP1 PUSH4 0x426E3DAA EQ PUSH3 0x57 JUMPI DUP1 PUSH4 0x60A20C49 EQ PUSH3 0x77 JUMPI DUP1 PUSH4 0x9DB33244 EQ PUSH3 0x97 JUMPI DUP1 PUSH4 0xCB4B0909 EQ PUSH3 0xB7 JUMPI JUMPDEST PUSH1 0x0 DUP1 REVERT JUMPDEST PUSH3 0x75 PUSH1 0x4 DUP1 CALLDATASIZE SUB DUP2 ADD SWAP1 PUSH3 0x6F SWAP2 SWAP1 PUSH3 0x6D5 JUMP JUMPDEST PUSH3 0xD9 JUMP JUMPDEST STOP JUMPDEST PUSH3 0x95 PUSH1 0x4 DUP1 CALLDATASIZE SUB DUP2 ADD SWAP1 PUSH3 0x8F SWAP2 SWAP1 PUSH3 0x76C JUMP JUMPDEST PUSH3 0x237 JUMP JUMPDEST STOP JUMPDEST PUSH3 0xB5 PUSH1 0x4 DUP1 CALLDATASIZE SUB DUP2 ADD SWAP1 PUSH3 0xAF SWAP2 SWAP1 PUSH3 0x76C JUMP JUMPDEST PUSH3 0x4E7 JUMP JUMPDEST STOP JUMPDEST PUSH3 0xC1 PUSH3 0x5BB JUMP JUMPDEST PUSH1 0x40 MLOAD PUSH3 0xD0 SWAP2 SWAP1 PUSH3 0x8C6 JUMP JUMPDEST PUSH1 0x40 MLOAD DUP1 SWAP2 SUB SWAP1 RETURN JUMPDEST PUSH1 0x0 DUP2 CALLER PUSH1 0x0 DUP1 CALLER PUSH20 0xFFFFFFFFFFFFFFFFFFFFFFFFFFFFFFFFFFFFFFFF AND PUSH20 0xFFFFFFFFFFFFFFFFFFFFFFFFFFFFFFFFFFFFFFFF AND DUP2 MSTORE PUSH1 0x20 ADD SWAP1 DUP2 MSTORE PUSH1 0x20 ADD PUSH1 0x0 KECCAK256 DUP1 SLOAD SWAP1 POP PUSH1 0x40 MLOAD PUSH3 0x12D SWAP1 PUSH3 0x687 JUMP JUMPDEST PUSH3 0x13B SWAP4 SWAP3 SWAP2 SWAP1 PUSH3 0x927 JUMP JUMPDEST PUSH1 0x40 MLOAD DUP1 SWAP2 SUB SWAP1 PUSH1 0x0 CREATE DUP1 ISZERO DUP1 ISZERO PUSH3 0x158 JUMPI RETURNDATASIZE PUSH1 0x0 DUP1 RETURNDATACOPY RETURNDATASIZE PUSH1 0x0 REVERT JUMPDEST POP SWAP1 POP PUSH1 0x0 DUP1 CALLER PUSH20 0xFFFFFFFFFFFFFFFFFFFFFFFFFFFFFFFFFFFFFFFF AND PUSH20 0xFFFFFFFFFFFFFFFFFFFFFFFFFFFFFFFFFFFFFFFF AND DUP2 MSTORE PUSH1 0x20 ADD SWAP1 DUP2 MSTORE PUSH1 0x20 ADD PUSH1 0x0 KECCAK256 DUP2 SWAP1 DUP1 PUSH1 0x1 DUP2 SLOAD ADD DUP1 DUP3 SSTORE DUP1 SWAP2 POP POP PUSH1 0x1 SWAP1 SUB SWAP1 PUSH1 0x0 MSTORE PUSH1 0x20 PUSH1 0x0 KECCAK256 ADD PUSH1 0x0 SWAP1 SWAP2 SWAP1 SWAP2 SWAP1 SWAP2 PUSH2 0x100 EXP DUP2 SLOAD DUP2 PUSH20 0xFFFFFFFFFFFFFFFFFFFFFFFFFFFFFFFFFFFFFFFF MUL NOT AND SWAP1 DUP4 PUSH20 0xFFFFFFFFFFFFFFFFFFFFFFFFFFFFFFFFFFFFFFFF AND MUL OR SWAP1 SSTORE POP PUSH32 0xE3758539C1BD6726422843471B2886C2D2CEFD3B4AEAD6778386283E20A32A80 DUP2 PUSH1 0x40 MLOAD PUSH3 0x22B SWAP2 SWAP1 PUSH3 0x964 JUMP JUMPDEST PUSH1 0x40 MLOAD DUP1 SWAP2 SUB SWAP1 LOG1 POP POP JUMP JUMPDEST PUSH1 0x0 DUP2 SWAP1 POP PUSH1 0x0 DUP2 PUSH20 0xFFFFFFFFFFFFFFFFFFFFFFFFFFFFFFFFFFFFFFFF AND PUSH4 0x81045EAD PUSH1 0x40 MLOAD DUP2 PUSH4 0xFFFFFFFF AND PUSH1 0xE0 SHL DUP2 MSTORE PUSH1 0x4 ADD PUSH1 0x20 PUSH1 0x40 MLOAD DUP1 DUP4 SUB DUP2 DUP7 DUP1 EXTCODESIZE ISZERO DUP1 ISZERO PUSH3 0x285 JUMPI PUSH1 0x0 DUP1 REVERT JUMPDEST POP GAS STATICCALL ISZERO DUP1 ISZERO PUSH3 0x29A JUMPI RETURNDATASIZE PUSH1 0x0 DUP1 RETURNDATACOPY RETURNDATASIZE PUSH1 0x0 REVERT JUMPDEST POP POP POP POP PUSH1 0x40 MLOAD RETURNDATASIZE PUSH1 0x1F NOT PUSH1 0x1F DUP3 ADD AND DUP3 ADD DUP1 PUSH1 0x40 MSTORE POP DUP2 ADD SWAP1 PUSH3 0x2C0 SWAP2 SWAP1 PUSH3 0x9B2 JUMP JUMPDEST SWAP1 POP PUSH1 0x0 DUP1 PUSH1 0x0 CALLER PUSH20 0xFFFFFFFFFFFFFFFFFFFFFFFFFFFFFFFFFFFFFFFF AND PUSH20 0xFFFFFFFFFFFFFFFFFFFFFFFFFFFFFFFFFFFFFFFF AND DUP2 MSTORE PUSH1 0x20 ADD SWAP1 DUP2 MSTORE PUSH1 0x20 ADD PUSH1 0x0 KECCAK256 PUSH1 0x1 PUSH1 0x0 DUP1 CALLER PUSH20 0xFFFFFFFFFFFFFFFFFFFFFFFFFFFFFFFFFFFFFFFF AND PUSH20 0xFFFFFFFFFFFFFFFFFFFFFFFFFFFFFFFFFFFFFFFF AND DUP2 MSTORE PUSH1 0x20 ADD SWAP1 DUP2 MSTORE PUSH1 0x20 ADD PUSH1 0x0 KECCAK256 DUP1 SLOAD SWAP1 POP PUSH3 0x352 SWAP2 SWAP1 PUSH3 0xA13 JUMP JUMPDEST DUP2 SLOAD DUP2 LT PUSH3 0x366 JUMPI PUSH3 0x365 PUSH3 0xA4E JUMP JUMPDEST JUMPDEST SWAP1 PUSH1 0x0 MSTORE PUSH1 0x20 PUSH1 0x0 KECCAK256 ADD PUSH1 0x0 SWAP1 SLOAD SWAP1 PUSH2 0x100 EXP SWAP1 DIV PUSH20 0xFFFFFFFFFFFFFFFFFFFFFFFFFFFFFFFFFFFFFFFF AND SWAP1 POP DUP1 PUSH1 0x0 DUP1 CALLER PUSH20 0xFFFFFFFFFFFFFFFFFFFFFFFFFFFFFFFFFFFFFFFF AND PUSH20 0xFFFFFFFFFFFFFFFFFFFFFFFFFFFFFFFFFFFFFFFF AND DUP2 MSTORE PUSH1 0x20 ADD SWAP1 DUP2 MSTORE PUSH1 0x20 ADD PUSH1 0x0 KECCAK256 DUP4 DUP2 SLOAD DUP2 LT PUSH3 0x3E7 JUMPI PUSH3 0x3E6 PUSH3 0xA4E JUMP JUMPDEST JUMPDEST SWAP1 PUSH1 0x0 MSTORE PUSH1 0x20 PUSH1 0x0 KECCAK256 ADD PUSH1 0x0 PUSH2 0x100 EXP DUP2 SLOAD DUP2 PUSH20 0xFFFFFFFFFFFFFFFFFFFFFFFFFFFFFFFFFFFFFFFF MUL NOT AND SWAP1 DUP4 PUSH20 0xFFFFFFFFFFFFFFFFFFFFFFFFFFFFFFFFFFFFFFFF AND MUL OR SWAP1 SSTORE POP PUSH1 0x0 DUP1 CALLER PUSH20 0xFFFFFFFFFFFFFFFFFFFFFFFFFFFFFFFFFFFFFFFF AND PUSH20 0xFFFFFFFFFFFFFFFFFFFFFFFFFFFFFFFFFFFFFFFF AND DUP2 MSTORE PUSH1 0x20 ADD SWAP1 DUP2 MSTORE PUSH1 0x20 ADD PUSH1 0x0 KECCAK256 DUP1 SLOAD DUP1 PUSH3 0x480 JUMPI PUSH3 0x47F PUSH3 0xA7D JUMP JUMPDEST JUMPDEST PUSH1 0x1 SWAP1 SUB DUP2 DUP2 SWAP1 PUSH1 0x0 MSTORE PUSH1 0x20 PUSH1 0x0 KECCAK256 ADD PUSH1 0x0 PUSH2 0x100 EXP DUP2 SLOAD SWAP1 PUSH20 0xFFFFFFFFFFFFFFFFFFFFFFFFFFFFFFFFFFFFFFFF MUL NOT AND SWAP1 SSTORE SWAP1 SSTORE PUSH32 0x6424BD8C78C3D8E79E0D2138594559394EEEB0000DEA53D09622B86FD60B4E4D PUSH1 0x40 MLOAD PUSH1 0x40 MLOAD DUP1 SWAP2 SUB SWAP1 LOG1 POP POP POP POP JUMP JUMPDEST PUSH1 0x0 DUP2 SWAP1 POP PUSH1 0x0 DUP1 CALLER PUSH20 0xFFFFFFFFFFFFFFFFFFFFFFFFFFFFFFFFFFFFFFFF AND PUSH20 0xFFFFFFFFFFFFFFFFFFFFFFFFFFFFFFFFFFFFFFFF AND DUP2 MSTORE PUSH1 0x20 ADD SWAP1 DUP2 MSTORE PUSH1 0x20 ADD PUSH1 0x0 KECCAK256 DUP2 SWAP1 DUP1 PUSH1 0x1 DUP2 SLOAD ADD DUP1 DUP3 SSTORE DUP1 SWAP2 POP POP PUSH1 0x1 SWAP1 SUB SWAP1 PUSH1 0x0 MSTORE PUSH1 0x20 PUSH1 0x0 KECCAK256 ADD PUSH1 0x0 SWAP1 SWAP2 SWAP1 SWAP2 SWAP1 SWAP2 PUSH2 0x100 EXP DUP2 SLOAD DUP2 PUSH20 0xFFFFFFFFFFFFFFFFFFFFFFFFFFFFFFFFFFFFFFFF MUL NOT AND SWAP1 DUP4 PUSH20 0xFFFFFFFFFFFFFFFFFFFFFFFFFFFFFFFFFFFFFFFF AND MUL OR SWAP1 SSTORE POP PUSH32 0x67E06858C2F43927DFC5B425032DDBD0A0F32E9DAB9F4E925A0BC4427406F1B5 PUSH1 0x40 MLOAD PUSH1 0x40 MLOAD DUP1 SWAP2 SUB SWAP1 LOG1 POP POP JUMP JUMPDEST PUSH1 0x60 PUSH1 0x0 DUP1 CALLER PUSH20 0xFFFFFFFFFFFFFFFFFFFFFFFFFFFFFFFFFFFFFFFF AND PUSH20 0xFFFFFFFFFFFFFFFFFFFFFFFFFFFFFFFFFFFFFFFF AND DUP2 MSTORE PUSH1 0x20 ADD SWAP1 DUP2 MSTORE PUSH1 0x20 ADD PUSH1 0x0 KECCAK256 DUP1 SLOAD DUP1 PUSH1 0x20 MUL PUSH1 0x20 ADD PUSH1 0x40 MLOAD SWAP1 DUP2 ADD PUSH1 0x40 MSTORE DUP1 SWAP3 SWAP2 SWAP1 DUP2 DUP2 MSTORE PUSH1 0x20 ADD DUP3 DUP1 SLOAD DUP1 ISZERO PUSH3 0x67D JUMPI PUSH1 0x20 MUL DUP3 ADD SWAP2 SWAP1 PUSH1 0x0 MSTORE PUSH1 0x20 PUSH1 0x0 KECCAK256 SWAP1 JUMPDEST DUP2 PUSH1 0x0 SWAP1 SLOAD SWAP1 PUSH2 0x100 EXP SWAP1 DIV PUSH20 0xFFFFFFFFFFFFFFFFFFFFFFFFFFFFFFFFFFFFFFFF AND PUSH20 0xFFFFFFFFFFFFFFFFFFFFFFFFFFFFFFFFFFFFFFFF AND DUP2 MSTORE PUSH1 0x20 ADD SWAP1 PUSH1 0x1 ADD SWAP1 DUP1 DUP4 GT PUSH3 0x632 JUMPI JUMPDEST POP POP POP POP POP SWAP1 POP SWAP1 JUMP JUMPDEST PUSH2 0x17C4 DUP1 PUSH3 0xAAD DUP4 CODECOPY ADD SWAP1 JUMP JUMPDEST PUSH1 0x0 DUP1 REVERT JUMPDEST PUSH1 0x0 DUP2 SWAP1 POP SWAP2 SWAP1 POP JUMP JUMPDEST PUSH3 0x6AF DUP2 PUSH3 0x69A JUMP JUMPDEST DUP2 EQ PUSH3 0x6BB JUMPI PUSH1 0x0 DUP1 REVERT JUMPDEST POP JUMP JUMPDEST PUSH1 0x0 DUP2 CALLDATALOAD SWAP1 POP PUSH3 0x6CF DUP2 PUSH3 0x6A4 JUMP JUMPDEST SWAP3 SWAP2 POP POP JUMP JUMPDEST PUSH1 0x0 PUSH1 0x20 DUP3 DUP5 SUB SLT ISZERO PUSH3 0x6EE JUMPI PUSH3 0x6ED PUSH3 0x695 JUMP JUMPDEST JUMPDEST PUSH1 0x0 PUSH3 0x6FE DUP5 DUP3 DUP6 ADD PUSH3 0x6BE JUMP JUMPDEST SWAP2 POP POP SWAP3 SWAP2 POP POP JUMP JUMPDEST PUSH1 0x0 PUSH20 0xFFFFFFFFFFFFFFFFFFFFFFFFFFFFFFFFFFFFFFFF DUP3 AND SWAP1 POP SWAP2 SWAP1 POP JUMP JUMPDEST PUSH1 0x0 PUSH3 0x734 DUP3 PUSH3 0x707 JUMP JUMPDEST SWAP1 POP SWAP2 SWAP1 POP JUMP JUMPDEST PUSH3 0x746 DUP2 PUSH3 0x727 JUMP JUMPDEST DUP2 EQ PUSH3 0x752 JUMPI PUSH1 0x0 DUP1 REVERT JUMPDEST POP JUMP JUMPDEST PUSH1 0x0 DUP2 CALLDATALOAD SWAP1 POP PUSH3 0x766 DUP2 PUSH3 0x73B JUMP JUMPDEST SWAP3 SWAP2 POP POP JUMP JUMPDEST PUSH1 0x0 PUSH1 0x20 DUP3 DUP5 SUB SLT ISZERO PUSH3 0x785 JUMPI PUSH3 0x784 PUSH3 0x695 JUMP JUMPDEST JUMPDEST PUSH1 0x0 PUSH3 0x795 DUP5 DUP3 DUP6 ADD PUSH3 0x755 JUMP JUMPDEST SWAP2 POP POP SWAP3 SWAP2 POP POP JUMP JUMPDEST PUSH1 0x0 DUP2 MLOAD SWAP1 POP SWAP2 SWAP1 POP JUMP JUMPDEST PUSH1 0x0 DUP3 DUP3 MSTORE PUSH1 0x20 DUP3 ADD SWAP1 POP SWAP3 SWAP2 POP POP JUMP JUMPDEST PUSH1 0x0 DUP2 SWAP1 POP PUSH1 0x20 DUP3 ADD SWAP1 POP SWAP2 SWAP1 POP JUMP JUMPDEST PUSH1 0x0 DUP2 SWAP1 POP SWAP2 SWAP1 POP JUMP JUMPDEST PUSH1 0x0 PUSH3 0x7F5 PUSH3 0x7EF PUSH3 0x7E9 DUP5 PUSH3 0x707 JUMP JUMPDEST PUSH3 0x7CA JUMP JUMPDEST PUSH3 0x707 JUMP JUMPDEST SWAP1 POP SWAP2 SWAP1 POP JUMP JUMPDEST PUSH1 0x0 PUSH3 0x809 DUP3 PUSH3 0x7D4 JUMP JUMPDEST SWAP1 POP SWAP2 SWAP1 POP JUMP JUMPDEST PUSH1 0x0 PUSH3 0x81D DUP3 PUSH3 0x7FC JUMP JUMPDEST SWAP1 POP SWAP2 SWAP1 POP JUMP JUMPDEST PUSH3 0x82F DUP2 PUSH3 0x810 JUMP JUMPDEST DUP3 MSTORE POP POP JUMP JUMPDEST PUSH1 0x0 PUSH3 0x843 DUP4 DUP4 PUSH3 0x824 JUMP JUMPDEST PUSH1 0x20 DUP4 ADD SWAP1 POP SWAP3 SWAP2 POP POP JUMP JUMPDEST PUSH1 0x0 PUSH1 0x20 DUP3 ADD SWAP1 POP SWAP2 SWAP1 POP JUMP JUMPDEST PUSH1 0x0 PUSH3 0x869 DUP3 PUSH3 0x79E JUMP JUMPDEST PUSH3 0x875 DUP2 DUP6 PUSH3 0x7A9 JUMP JUMPDEST SWAP4 POP PUSH3 0x882 DUP4 PUSH3 0x7BA JUMP JUMPDEST DUP1 PUSH1 0x0 JUMPDEST DUP4 DUP2 LT ISZERO PUSH3 0x8B9 JUMPI DUP2 MLOAD PUSH3 0x89D DUP9 DUP3 PUSH3 0x835 JUMP JUMPDEST SWAP8 POP PUSH3 0x8AA DUP4 PUSH3 0x84F JUMP JUMPDEST SWAP3 POP POP PUSH1 0x1 DUP2 ADD SWAP1 POP PUSH3 0x886 JUMP JUMPDEST POP DUP6 SWAP4 POP POP POP POP SWAP3 SWAP2 POP POP JUMP JUMPDEST PUSH1 0x0 PUSH1 0x20 DUP3 ADD SWAP1 POP DUP2 DUP2 SUB PUSH1 0x0 DUP4 ADD MSTORE PUSH3 0x8E2 DUP2 DUP5 PUSH3 0x85C JUMP JUMPDEST SWAP1 POP SWAP3 SWAP2 POP POP JUMP JUMPDEST PUSH3 0x8F5 DUP2 PUSH3 0x69A JUMP JUMPDEST DUP3 MSTORE POP POP JUMP JUMPDEST PUSH3 0x906 DUP2 PUSH3 0x727 JUMP JUMPDEST DUP3 MSTORE POP POP JUMP JUMPDEST PUSH1 0x0 DUP2 SWAP1 POP SWAP2 SWAP1 POP JUMP JUMPDEST PUSH3 0x921 DUP2 PUSH3 0x90C JUMP JUMPDEST DUP3 MSTORE POP POP JUMP JUMPDEST PUSH1 0x0 PUSH1 0x60 DUP3 ADD SWAP1 POP PUSH3 0x93E PUSH1 0x0 DUP4 ADD DUP7 PUSH3 0x8EA JUMP JUMPDEST PUSH3 0x94D PUSH1 0x20 DUP4 ADD DUP6 PUSH3 0x8FB JUMP JUMPDEST PUSH3 0x95C PUSH1 0x40 DUP4 ADD DUP5 PUSH3 0x916 JUMP JUMPDEST SWAP5 SWAP4 POP POP POP POP JUMP JUMPDEST PUSH1 0x0 PUSH1 0x20 DUP3 ADD SWAP1 POP PUSH3 0x97B PUSH1 0x0 DUP4 ADD DUP5 PUSH3 0x8FB JUMP JUMPDEST SWAP3 SWAP2 POP POP JUMP JUMPDEST PUSH3 0x98C DUP2 PUSH3 0x90C JUMP JUMPDEST DUP2 EQ PUSH3 0x998 JUMPI PUSH1 0x0 DUP1 REVERT JUMPDEST POP JUMP JUMPDEST PUSH1 0x0 DUP2 MLOAD SWAP1 POP PUSH3 0x9AC DUP2 PUSH3 0x981 JUMP JUMPDEST SWAP3 SWAP2 POP POP JUMP JUMPDEST PUSH1 0x0 PUSH1 0x20 DUP3 DUP5 SUB SLT ISZERO PUSH3 0x9CB JUMPI PUSH3 0x9CA PUSH3 0x695 JUMP JUMPDEST JUMPDEST PUSH1 0x0 PUSH3 0x9DB DUP5 DUP3 DUP6 ADD PUSH3 0x99B JUMP JUMPDEST SWAP2 POP POP SWAP3 SWAP2 POP POP JUMP JUMPDEST PUSH32 0x4E487B7100000000000000000000000000000000000000000000000000000000 PUSH1 0x0 MSTORE PUSH1 0x11 PUSH1 0x4 MSTORE PUSH1 0x24 PUSH1 0x0 REVERT JUMPDEST PUSH1 0x0 PUSH3 0xA20 DUP3 PUSH3 0x90C JUMP JUMPDEST SWAP2 POP PUSH3 0xA2D DUP4 PUSH3 0x90C JUMP JUMPDEST SWAP3 POP DUP3 DUP3 LT ISZERO PUSH3 0xA43 JUMPI PUSH3 0xA42 PUSH3 0x9E4 JUMP JUMPDEST JUMPDEST DUP3 DUP3 SUB SWAP1 POP SWAP3 SWAP2 POP POP JUMP JUMPDEST PUSH32 0x4E487B7100000000000000000000000000000000000000000000000000000000 PUSH1 0x0 MSTORE PUSH1 0x32 PUSH1 0x4 MSTORE PUSH1 0x24 PUSH1 0x0 REVERT JUMPDEST PUSH32 0x4E487B7100000000000000000000000000000000000000000000000000000000 PUSH1 0x0 MSTORE PUSH1 0x31 PUSH1 0x4 MSTORE PUSH1 0x24 PUSH1 0x0 REVERT INVALID PUSH1 0x80 PUSH1 0x40 MSTORE CALLVALUE DUP1 ISZERO PUSH3 0x11 JUMPI PUSH1 0x0 DUP1 REVERT JUMPDEST POP PUSH1 0x40 MLOAD PUSH3 0x17C4 CODESIZE SUB DUP1 PUSH3 0x17C4 DUP4 CODECOPY DUP2 DUP2 ADD PUSH1 0x40 MSTORE DUP2 ADD SWAP1 PUSH3 0x37 SWAP2 SWAP1 PUSH3 0x1E9 JUMP JUMPDEST DUP1 PUSH1 0x0 DUP2 SWAP1 SSTORE POP DUP2 PUSH1 0x3 PUSH1 0x0 PUSH2 0x100 EXP DUP2 SLOAD DUP2 PUSH20 0xFFFFFFFFFFFFFFFFFFFFFFFFFFFFFFFFFFFFFFFF MUL NOT AND SWAP1 DUP4 PUSH20 0xFFFFFFFFFFFFFFFFFFFFFFFFFFFFFFFFFFFFFFFF AND MUL OR SWAP1 SSTORE POP DUP3 PUSH1 0x2 DUP2 SWAP1 SSTORE POP PUSH1 0x1 PUSH1 0x4 PUSH1 0x0 PUSH1 0x3 PUSH1 0x0 SWAP1 SLOAD SWAP1 PUSH2 0x100 EXP SWAP1 DIV PUSH20 0xFFFFFFFFFFFFFFFFFFFFFFFFFFFFFFFFFFFFFFFF AND PUSH20 0xFFFFFFFFFFFFFFFFFFFFFFFFFFFFFFFFFFFFFFFF AND PUSH20 0xFFFFFFFFFFFFFFFFFFFFFFFFFFFFFFFFFFFFFFFF AND DUP2 MSTORE PUSH1 0x20 ADD SWAP1 DUP2 MSTORE PUSH1 0x20 ADD PUSH1 0x0 KECCAK256 PUSH1 0x0 PUSH2 0x100 EXP DUP2 SLOAD DUP2 PUSH1 0xFF MUL NOT AND SWAP1 DUP4 ISZERO ISZERO MUL OR SWAP1 SSTORE POP POP POP POP PUSH3 0x245 JUMP JUMPDEST PUSH1 0x0 DUP1 REVERT JUMPDEST PUSH1 0x0 DUP2 SWAP1 POP SWAP2 SWAP1 POP JUMP JUMPDEST PUSH3 0x123 DUP2 PUSH3 0x10E JUMP JUMPDEST DUP2 EQ PUSH3 0x12F JUMPI PUSH1 0x0 DUP1 REVERT JUMPDEST POP JUMP JUMPDEST PUSH1 0x0 DUP2 MLOAD SWAP1 POP PUSH3 0x143 DUP2 PUSH3 0x118 JUMP JUMPDEST SWAP3 SWAP2 POP POP JUMP JUMPDEST PUSH1 0x0 PUSH20 0xFFFFFFFFFFFFFFFFFFFFFFFFFFFFFFFFFFFFFFFF DUP3 AND SWAP1 POP SWAP2 SWAP1 POP JUMP JUMPDEST PUSH1 0x0 PUSH3 0x176 DUP3 PUSH3 0x149 JUMP JUMPDEST SWAP1 POP SWAP2 SWAP1 POP JUMP JUMPDEST PUSH3 0x188 DUP2 PUSH3 0x169 JUMP JUMPDEST DUP2 EQ PUSH3 0x194 JUMPI PUSH1 0x0 DUP1 REVERT JUMPDEST POP JUMP JUMPDEST PUSH1 0x0 DUP2 MLOAD SWAP1 POP PUSH3 0x1A8 DUP2 PUSH3 0x17D JUMP JUMPDEST SWAP3 SWAP2 POP POP JUMP JUMPDEST PUSH1 0x0 DUP2 SWAP1 POP SWAP2 SWAP1 POP JUMP JUMPDEST PUSH3 0x1C3 DUP2 PUSH3 0x1AE JUMP JUMPDEST DUP2 EQ PUSH3 0x1CF JUMPI PUSH1 0x0 DUP1 REVERT JUMPDEST POP JUMP JUMPDEST PUSH1 0x0 DUP2 MLOAD SWAP1 POP PUSH3 0x1E3 DUP2 PUSH3 0x1B8 JUMP JUMPDEST SWAP3 SWAP2 POP POP JUMP JUMPDEST PUSH1 0x0 DUP1 PUSH1 0x0 PUSH1 0x60 DUP5 DUP7 SUB SLT ISZERO PUSH3 0x205 JUMPI PUSH3 0x204 PUSH3 0x109 JUMP JUMPDEST JUMPDEST PUSH1 0x0 PUSH3 0x215 DUP7 DUP3 DUP8 ADD PUSH3 0x132 JUMP JUMPDEST SWAP4 POP POP PUSH1 0x20 PUSH3 0x228 DUP7 DUP3 DUP8 ADD PUSH3 0x197 JUMP JUMPDEST SWAP3 POP POP PUSH1 0x40 PUSH3 0x23B DUP7 DUP3 DUP8 ADD PUSH3 0x1D2 JUMP JUMPDEST SWAP2 POP POP SWAP3 POP SWAP3 POP SWAP3 JUMP JUMPDEST PUSH2 0x156F DUP1 PUSH3 0x255 PUSH1 0x0 CODECOPY PUSH1 0x0 RETURN INVALID PUSH1 0x80 PUSH1 0x40 MSTORE CALLVALUE DUP1 ISZERO PUSH2 0x10 JUMPI PUSH1 0x0 DUP1 REVERT JUMPDEST POP PUSH1 0x4 CALLDATASIZE LT PUSH2 0xA9 JUMPI PUSH1 0x0 CALLDATALOAD PUSH1 0xE0 SHR DUP1 PUSH4 0x81045EAD GT PUSH2 0x71 JUMPI DUP1 PUSH4 0x81045EAD EQ PUSH2 0x13F JUMPI DUP1 PUSH4 0xA30F75C9 EQ PUSH2 0x15D JUMPI DUP1 PUSH4 0xC17A340E EQ PUSH2 0x17B JUMPI DUP1 PUSH4 0xE5A5E6FE EQ PUSH2 0x199 JUMPI DUP1 PUSH4 0xF2FDE38B EQ PUSH2 0x1B5 JUMPI DUP1 PUSH4 0xFF3C1A8F EQ PUSH2 0x1D1 JUMPI PUSH2 0xA9 JUMP JUMPDEST DUP1 PUSH4 0x1122B3A6 EQ PUSH2 0xAE JUMPI DUP1 PUSH4 0x197A6DC0 EQ PUSH2 0xCA JUMPI DUP1 PUSH4 0x3BC5DE30 EQ PUSH2 0xE8 JUMPI DUP1 PUSH4 0x455F5024 EQ PUSH2 0x107 JUMPI DUP1 PUSH4 0x5EF2EA79 EQ PUSH2 0x123 JUMPI JUMPDEST PUSH1 0x0 DUP1 REVERT JUMPDEST PUSH2 0xC8 PUSH1 0x4 DUP1 CALLDATASIZE SUB DUP2 ADD SWAP1 PUSH2 0xC3 SWAP2 SWAP1 PUSH2 0xBC8 JUMP JUMPDEST PUSH2 0x1EF JUMP JUMPDEST STOP JUMPDEST PUSH2 0xD2 PUSH2 0x35D JUMP JUMPDEST PUSH1 0x40 MLOAD PUSH2 0xDF SWAP2 SWAP1 PUSH2 0xC10 JUMP JUMPDEST PUSH1 0x40 MLOAD DUP1 SWAP2 SUB SWAP1 RETURN JUMPDEST PUSH2 0xF0 PUSH2 0x3B5 JUMP JUMPDEST PUSH1 0x40 MLOAD PUSH2 0xFE SWAP3 SWAP2 SWAP1 PUSH2 0xDB1 JUMP JUMPDEST PUSH1 0x40 MLOAD DUP1 SWAP2 SUB SWAP1 RETURN JUMPDEST PUSH2 0x121 PUSH1 0x4 DUP1 CALLDATASIZE SUB DUP2 ADD SWAP1 PUSH2 0x11C SWAP2 SWAP1 PUSH2 0xE1E JUMP JUMPDEST PUSH2 0x502 JUMP JUMPDEST STOP JUMPDEST PUSH2 0x13D PUSH1 0x4 DUP1 CALLDATASIZE SUB DUP2 ADD SWAP1 PUSH2 0x138 SWAP2 SWAP1 PUSH2 0x1182 JUMP JUMPDEST PUSH2 0x646 JUMP JUMPDEST STOP JUMPDEST PUSH2 0x147 PUSH2 0x8EF JUMP JUMPDEST PUSH1 0x40 MLOAD PUSH2 0x154 SWAP2 SWAP1 PUSH2 0x1238 JUMP JUMPDEST PUSH1 0x40 MLOAD DUP1 SWAP2 SUB SWAP1 RETURN JUMPDEST PUSH2 0x165 PUSH2 0x8F8 JUMP JUMPDEST PUSH1 0x40 MLOAD PUSH2 0x172 SWAP2 SWAP1 PUSH2 0xC10 JUMP JUMPDEST PUSH1 0x40 MLOAD DUP1 SWAP2 SUB SWAP1 RETURN JUMPDEST PUSH2 0x183 PUSH2 0x94C JUMP JUMPDEST PUSH1 0x40 MLOAD PUSH2 0x190 SWAP2 SWAP1 PUSH2 0x1238 JUMP JUMPDEST PUSH1 0x40 MLOAD DUP1 SWAP2 SUB SWAP1 RETURN JUMPDEST PUSH2 0x1B3 PUSH1 0x4 DUP1 CALLDATASIZE SUB DUP2 ADD SWAP1 PUSH2 0x1AE SWAP2 SWAP1 PUSH2 0xBC8 JUMP JUMPDEST PUSH2 0x956 JUMP JUMPDEST STOP JUMPDEST PUSH2 0x1CF PUSH1 0x4 DUP1 CALLDATASIZE SUB DUP2 ADD SWAP1 PUSH2 0x1CA SWAP2 SWAP1 PUSH2 0xBC8 JUMP JUMPDEST PUSH2 0xA78 JUMP JUMPDEST STOP JUMPDEST PUSH2 0x1D9 PUSH2 0xB4C JUMP JUMPDEST PUSH1 0x40 MLOAD PUSH2 0x1E6 SWAP2 SWAP1 PUSH2 0x1262 JUMP JUMPDEST PUSH1 0x40 MLOAD DUP1 SWAP2 SUB SWAP1 RETURN JUMPDEST PUSH1 0x3 PUSH1 0x0 SWAP1 SLOAD SWAP1 PUSH2 0x100 EXP SWAP1 DIV PUSH20 0xFFFFFFFFFFFFFFFFFFFFFFFFFFFFFFFFFFFFFFFF AND PUSH20 0xFFFFFFFFFFFFFFFFFFFFFFFFFFFFFFFFFFFFFFFF AND CALLER PUSH20 0xFFFFFFFFFFFFFFFFFFFFFFFFFFFFFFFFFFFFFFFF AND EQ PUSH2 0x27F JUMPI PUSH1 0x40 MLOAD PUSH32 0x8C379A000000000000000000000000000000000000000000000000000000000 DUP2 MSTORE PUSH1 0x4 ADD PUSH2 0x276 SWAP1 PUSH2 0x1300 JUMP JUMPDEST PUSH1 0x40 MLOAD DUP1 SWAP2 SUB SWAP1 REVERT JUMPDEST PUSH1 0x4 PUSH1 0x0 DUP3 PUSH20 0xFFFFFFFFFFFFFFFFFFFFFFFFFFFFFFFFFFFFFFFF AND PUSH20 0xFFFFFFFFFFFFFFFFFFFFFFFFFFFFFFFFFFFFFFFF AND DUP2 MSTORE PUSH1 0x20 ADD SWAP1 DUP2 MSTORE PUSH1 0x20 ADD PUSH1 0x0 KECCAK256 PUSH1 0x0 SWAP1 SLOAD SWAP1 PUSH2 0x100 EXP SWAP1 DIV PUSH1 0xFF AND ISZERO PUSH1 0x4 PUSH1 0x0 DUP4 PUSH20 0xFFFFFFFFFFFFFFFFFFFFFFFFFFFFFFFFFFFFFFFF AND PUSH20 0xFFFFFFFFFFFFFFFFFFFFFFFFFFFFFFFFFFFFFFFF AND DUP2 MSTORE PUSH1 0x20 ADD SWAP1 DUP2 MSTORE PUSH1 0x20 ADD PUSH1 0x0 KECCAK256 PUSH1 0x0 PUSH2 0x100 EXP DUP2 SLOAD DUP2 PUSH1 0xFF MUL NOT AND SWAP1 DUP4 ISZERO ISZERO MUL OR SWAP1 SSTORE POP PUSH32 0x5BF5439F7F9350BD946AE989209039471CDC88D8524B96DE66B8D1F876ABD770 DUP2 PUSH1 0x40 MLOAD PUSH2 0x352 SWAP2 SWAP1 PUSH2 0x132F JUMP JUMPDEST PUSH1 0x40 MLOAD DUP1 SWAP2 SUB SWAP1 LOG1 POP JUMP JUMPDEST PUSH1 0x0 CALLER PUSH20 0xFFFFFFFFFFFFFFFFFFFFFFFFFFFFFFFFFFFFFFFF AND PUSH1 0x3 PUSH1 0x0 SWAP1 SLOAD SWAP1 PUSH2 0x100 EXP SWAP1 DIV PUSH20 0xFFFFFFFFFFFFFFFFFFFFFFFFFFFFFFFFFFFFFFFF AND PUSH20 0xFFFFFFFFFFFFFFFFFFFFFFFFFFFFFFFFFFFFFFFF AND EQ SWAP1 POP SWAP1 JUMP JUMPDEST PUSH1 0x60 DUP1 PUSH1 0x0 PUSH1 0x1 SLOAD PUSH8 0xFFFFFFFFFFFFFFFF DUP2 GT ISZERO PUSH2 0x3D6 JUMPI PUSH2 0x3D5 PUSH2 0xE61 JUMP JUMPDEST JUMPDEST PUSH1 0x40 MLOAD SWAP1 DUP1 DUP3 MSTORE DUP1 PUSH1 0x20 MUL PUSH1 0x20 ADD DUP3 ADD PUSH1 0x40 MSTORE DUP1 ISZERO PUSH2 0x404 JUMPI DUP2 PUSH1 0x20 ADD PUSH1 0x20 DUP3 MUL DUP1 CALLDATASIZE DUP4 CALLDATACOPY DUP1 DUP3 ADD SWAP2 POP POP SWAP1 POP JUMPDEST POP SWAP1 POP PUSH1 0x0 PUSH1 0x1 SLOAD PUSH8 0xFFFFFFFFFFFFFFFF DUP2 GT ISZERO PUSH2 0x425 JUMPI PUSH2 0x424 PUSH2 0xE61 JUMP JUMPDEST JUMPDEST PUSH1 0x40 MLOAD SWAP1 DUP1 DUP3 MSTORE DUP1 PUSH1 0x20 MUL PUSH1 0x20 ADD DUP3 ADD PUSH1 0x40 MSTORE DUP1 ISZERO PUSH2 0x453 JUMPI DUP2 PUSH1 0x20 ADD PUSH1 0x20 DUP3 MUL DUP1 CALLDATASIZE DUP4 CALLDATACOPY DUP1 DUP3 ADD SWAP2 POP POP SWAP1 POP JUMPDEST POP SWAP1 POP PUSH1 0x0 JUMPDEST PUSH1 0x1 SLOAD DUP2 LT ISZERO PUSH2 0x4F5 JUMPI PUSH1 0x5 PUSH1 0x0 DUP3 DUP2 MSTORE PUSH1 0x20 ADD SWAP1 DUP2 MSTORE PUSH1 0x20 ADD PUSH1 0x0 KECCAK256 PUSH1 0x0 ADD SLOAD DUP4 DUP3 DUP2 MLOAD DUP2 LT PUSH2 0x48D JUMPI PUSH2 0x48C PUSH2 0x134A JUMP JUMPDEST JUMPDEST PUSH1 0x20 MUL PUSH1 0x20 ADD ADD DUP2 DUP2 MSTORE POP POP PUSH1 0x5 PUSH1 0x0 DUP3 DUP2 MSTORE PUSH1 0x20 ADD SWAP1 DUP2 MSTORE PUSH1 0x20 ADD PUSH1 0x0 KECCAK256 PUSH1 0x1 ADD PUSH1 0x0 SWAP1 SLOAD SWAP1 PUSH2 0x100 EXP SWAP1 DIV PUSH1 0xFF AND DUP3 DUP3 DUP2 MLOAD DUP2 LT PUSH2 0x4D0 JUMPI PUSH2 0x4CF PUSH2 0x134A JUMP JUMPDEST JUMPDEST PUSH1 0x20 MUL PUSH1 0x20 ADD ADD SWAP1 ISZERO ISZERO SWAP1 DUP2 ISZERO ISZERO DUP2 MSTORE POP POP DUP1 DUP1 PUSH2 0x4ED SWAP1 PUSH2 0x13A8 JUMP JUMPDEST SWAP2 POP POP PUSH2 0x459 JUMP JUMPDEST POP DUP2 DUP2 SWAP4 POP SWAP4 POP POP POP SWAP1 SWAP2 JUMP JUMPDEST PUSH1 0x1 ISZERO ISZERO PUSH1 0x4 PUSH1 0x0 CALLER PUSH20 0xFFFFFFFFFFFFFFFFFFFFFFFFFFFFFFFFFFFFFFFF AND PUSH20 0xFFFFFFFFFFFFFFFFFFFFFFFFFFFFFFFFFFFFFFFF AND DUP2 MSTORE PUSH1 0x20 ADD SWAP1 DUP2 MSTORE PUSH1 0x20 ADD PUSH1 0x0 KECCAK256 PUSH1 0x0 SWAP1 SLOAD SWAP1 PUSH2 0x100 EXP SWAP1 DIV PUSH1 0xFF AND ISZERO ISZERO EQ PUSH2 0x595 JUMPI PUSH1 0x40 MLOAD PUSH32 0x8C379A000000000000000000000000000000000000000000000000000000000 DUP2 MSTORE PUSH1 0x4 ADD PUSH2 0x58C SWAP1 PUSH2 0x1463 JUMP JUMPDEST PUSH1 0x40 MLOAD DUP1 SWAP2 SUB SWAP1 REVERT JUMPDEST PUSH1 0x5 PUSH1 0x0 DUP3 DUP2 MSTORE PUSH1 0x20 ADD SWAP1 DUP2 MSTORE PUSH1 0x20 ADD PUSH1 0x0 KECCAK256 PUSH1 0x1 ADD PUSH1 0x0 SWAP1 SLOAD SWAP1 PUSH2 0x100 EXP SWAP1 DIV PUSH1 0xFF AND ISZERO PUSH1 0x5 PUSH1 0x0 DUP4 DUP2 MSTORE PUSH1 0x20 ADD SWAP1 DUP2 MSTORE PUSH1 0x20 ADD PUSH1 0x0 KECCAK256 PUSH1 0x1 ADD PUSH1 0x0 PUSH2 0x100 EXP DUP2 SLOAD DUP2 PUSH1 0xFF MUL NOT AND SWAP1 DUP4 ISZERO ISZERO MUL OR SWAP1 SSTORE POP PUSH32 0xE668C7A227D9261AA1F964BF5A852AB642446A7AF6C29405CAF8D0E9CE2C11F0 DUP2 PUSH1 0x5 PUSH1 0x0 DUP5 DUP2 MSTORE PUSH1 0x20 ADD SWAP1 DUP2 MSTORE PUSH1 0x20 ADD PUSH1 0x0 KECCAK256 PUSH1 0x1 ADD PUSH1 0x0 SWAP1 SLOAD SWAP1 PUSH2 0x100 EXP SWAP1 DIV PUSH1 0xFF AND PUSH1 0x40 MLOAD PUSH2 0x63B SWAP3 SWAP2 SWAP1 PUSH2 0x1483 JUMP JUMPDEST PUSH1 0x40 MLOAD DUP1 SWAP2 SUB SWAP1 LOG1 POP JUMP JUMPDEST PUSH1 0x1 ISZERO ISZERO PUSH1 0x4 PUSH1 0x0 CALLER PUSH20 0xFFFFFFFFFFFFFFFFFFFFFFFFFFFFFFFFFFFFFFFF AND PUSH20 0xFFFFFFFFFFFFFFFFFFFFFFFFFFFFFFFFFFFFFFFF AND DUP2 MSTORE PUSH1 0x20 ADD SWAP1 DUP2 MSTORE PUSH1 0x20 ADD PUSH1 0x0 KECCAK256 PUSH1 0x0 SWAP1 SLOAD SWAP1 PUSH2 0x100 EXP SWAP1 DIV PUSH1 0xFF AND ISZERO ISZERO EQ PUSH2 0x6D9 JUMPI PUSH1 0x40 MLOAD PUSH32 0x8C379A000000000000000000000000000000000000000000000000000000000 DUP2 MSTORE PUSH1 0x4 ADD PUSH2 0x6D0 SWAP1 PUSH2 0x1463 JUMP JUMPDEST PUSH1 0x40 MLOAD DUP1 SWAP2 SUB SWAP1 REVERT JUMPDEST PUSH1 0x0 DUP1 JUMPDEST DUP5 MLOAD DUP2 LT ISZERO PUSH2 0x8AB JUMPI DUP2 DUP6 DUP3 DUP2 MLOAD DUP2 LT PUSH2 0x6FA JUMPI PUSH2 0x6F9 PUSH2 0x134A JUMP JUMPDEST JUMPDEST PUSH1 0x20 MUL PUSH1 0x20 ADD ADD MLOAD LT PUSH2 0x731 JUMPI PUSH1 0x1 DUP6 DUP3 DUP2 MLOAD DUP2 LT PUSH2 0x71C JUMPI PUSH2 0x71B PUSH2 0x134A JUMP JUMPDEST JUMPDEST PUSH1 0x20 MUL PUSH1 0x20 ADD ADD MLOAD PUSH2 0x72E SWAP2 SWAP1 PUSH2 0x14AC JUMP JUMPDEST SWAP2 POP JUMPDEST PUSH1 0x40 MLOAD DUP1 PUSH1 0x40 ADD PUSH1 0x40 MSTORE DUP1 DUP6 DUP4 DUP2 MLOAD DUP2 LT PUSH2 0x74F JUMPI PUSH2 0x74E PUSH2 0x134A JUMP JUMPDEST JUMPDEST PUSH1 0x20 MUL PUSH1 0x20 ADD ADD MLOAD DUP2 MSTORE PUSH1 0x20 ADD DUP5 DUP4 DUP2 MLOAD DUP2 LT PUSH2 0x76F JUMPI PUSH2 0x76E PUSH2 0x134A JUMP JUMPDEST JUMPDEST PUSH1 0x20 MUL PUSH1 0x20 ADD ADD MLOAD ISZERO ISZERO DUP2 MSTORE POP PUSH1 0x5 PUSH1 0x0 DUP8 DUP5 DUP2 MLOAD DUP2 LT PUSH2 0x793 JUMPI PUSH2 0x792 PUSH2 0x134A JUMP JUMPDEST JUMPDEST PUSH1 0x20 MUL PUSH1 0x20 ADD ADD MLOAD DUP2 MSTORE PUSH1 0x20 ADD SWAP1 DUP2 MSTORE PUSH1 0x20 ADD PUSH1 0x0 KECCAK256 PUSH1 0x0 DUP3 ADD MLOAD DUP2 PUSH1 0x0 ADD SSTORE PUSH1 0x20 DUP3 ADD MLOAD DUP2 PUSH1 0x1 ADD PUSH1 0x0 PUSH2 0x100 EXP DUP2 SLOAD DUP2 PUSH1 0xFF MUL NOT AND SWAP1 DUP4 ISZERO ISZERO MUL OR SWAP1 SSTORE POP SWAP1 POP POP PUSH32 0xEFFC45379F030F429CB52689DC4CEBC43B405DBEFE7A792F36DE70C24A213485 DUP6 DUP3 DUP2 MLOAD DUP2 LT PUSH2 0x80A JUMPI PUSH2 0x809 PUSH2 0x134A JUMP JUMPDEST JUMPDEST PUSH1 0x20 MUL PUSH1 0x20 ADD ADD MLOAD PUSH1 0x5 PUSH1 0x0 DUP9 DUP6 DUP2 MLOAD DUP2 LT PUSH2 0x829 JUMPI PUSH2 0x828 PUSH2 0x134A JUMP JUMPDEST JUMPDEST PUSH1 0x20 MUL PUSH1 0x20 ADD ADD MLOAD DUP2 MSTORE PUSH1 0x20 ADD SWAP1 DUP2 MSTORE PUSH1 0x20 ADD PUSH1 0x0 KECCAK256 PUSH1 0x0 ADD SLOAD PUSH1 0x5 PUSH1 0x0 DUP10 DUP7 DUP2 MLOAD DUP2 LT PUSH2 0x85A JUMPI PUSH2 0x859 PUSH2 0x134A JUMP JUMPDEST JUMPDEST PUSH1 0x20 MUL PUSH1 0x20 ADD ADD MLOAD DUP2 MSTORE PUSH1 0x20 ADD SWAP1 DUP2 MSTORE PUSH1 0x20 ADD PUSH1 0x0 KECCAK256 PUSH1 0x1 ADD PUSH1 0x0 SWAP1 SLOAD SWAP1 PUSH2 0x100 EXP SWAP1 DIV PUSH1 0xFF AND PUSH1 0x40 MLOAD PUSH2 0x890 SWAP4 SWAP3 SWAP2 SWAP1 PUSH2 0x1502 JUMP JUMPDEST PUSH1 0x40 MLOAD DUP1 SWAP2 SUB SWAP1 LOG1 DUP1 DUP1 PUSH2 0x8A3 SWAP1 PUSH2 0x13A8 JUMP JUMPDEST SWAP2 POP POP PUSH2 0x6DD JUMP JUMPDEST POP PUSH1 0x1 SLOAD DUP2 LT PUSH2 0x8BD JUMPI DUP1 PUSH1 0x1 DUP2 SWAP1 SSTORE POP JUMPDEST PUSH32 0x8080F39D268BF0B9BC04BCF29765470F11FD7422F9A1523F5286CE23FD1D6F21 PUSH1 0x40 MLOAD PUSH1 0x40 MLOAD DUP1 SWAP2 SUB SWAP1 LOG1 POP POP POP POP JUMP JUMPDEST PUSH1 0x0 DUP1 SLOAD SWAP1 POP SWAP1 JUMP JUMPDEST PUSH1 0x0 PUSH1 0x4 PUSH1 0x0 CALLER PUSH20 0xFFFFFFFFFFFFFFFFFFFFFFFFFFFFFFFFFFFFFFFF AND PUSH20 0xFFFFFFFFFFFFFFFFFFFFFFFFFFFFFFFFFFFFFFFF AND DUP2 MSTORE PUSH1 0x20 ADD SWAP1 DUP2 MSTORE PUSH1 0x20 ADD PUSH1 0x0 KECCAK256 PUSH1 0x0 SWAP1 SLOAD SWAP1 PUSH2 0x100 EXP SWAP1 DIV PUSH1 0xFF AND SWAP1 POP SWAP1 JUMP JUMPDEST PUSH1 0x0 PUSH1 0x1 SLOAD SWAP1 POP SWAP1 JUMP JUMPDEST PUSH1 0x3 PUSH1 0x0 SWAP1 SLOAD SWAP1 PUSH2 0x100 EXP SWAP1 DIV PUSH20 0xFFFFFFFFFFFFFFFFFFFFFFFFFFFFFFFFFFFFFFFF AND PUSH20 0xFFFFFFFFFFFFFFFFFFFFFFFFFFFFFFFFFFFFFFFF AND CALLER PUSH20 0xFFFFFFFFFFFFFFFFFFFFFFFFFFFFFFFFFFFFFFFF AND EQ PUSH2 0x9E6 JUMPI PUSH1 0x40 MLOAD PUSH32 0x8C379A000000000000000000000000000000000000000000000000000000000 DUP2 MSTORE PUSH1 0x4 ADD PUSH2 0x9DD SWAP1 PUSH2 0x1300 JUMP JUMPDEST PUSH1 0x40 MLOAD DUP1 SWAP2 SUB SWAP1 REVERT JUMPDEST PUSH1 0x1 PUSH1 0x4 PUSH1 0x0 DUP4 PUSH20 0xFFFFFFFFFFFFFFFFFFFFFFFFFFFFFFFFFFFFFFFF AND PUSH20 0xFFFFFFFFFFFFFFFFFFFFFFFFFFFFFFFFFFFFFFFF AND DUP2 MSTORE PUSH1 0x20 ADD SWAP1 DUP2 MSTORE PUSH1 0x20 ADD PUSH1 0x0 KECCAK256 PUSH1 0x0 PUSH2 0x100 EXP DUP2 SLOAD DUP2 PUSH1 0xFF MUL NOT AND SWAP1 DUP4 ISZERO ISZERO MUL OR SWAP1 SSTORE POP PUSH32 0x5BF5439F7F9350BD946AE989209039471CDC88D8524B96DE66B8D1F876ABD770 DUP2 PUSH1 0x40 MLOAD PUSH2 0xA6D SWAP2 SWAP1 PUSH2 0x132F JUMP JUMPDEST PUSH1 0x40 MLOAD DUP1 SWAP2 SUB SWAP1 LOG1 POP JUMP JUMPDEST PUSH1 0x3 PUSH1 0x0 SWAP1 SLOAD SWAP1 PUSH2 0x100 EXP SWAP1 DIV PUSH20 0xFFFFFFFFFFFFFFFFFFFFFFFFFFFFFFFFFFFFFFFF AND PUSH20 0xFFFFFFFFFFFFFFFFFFFFFFFFFFFFFFFFFFFFFFFF AND CALLER PUSH20 0xFFFFFFFFFFFFFFFFFFFFFFFFFFFFFFFFFFFFFFFF AND EQ PUSH2 0xB08 JUMPI PUSH1 0x40 MLOAD PUSH32 0x8C379A000000000000000000000000000000000000000000000000000000000 DUP2 MSTORE PUSH1 0x4 ADD PUSH2 0xAFF SWAP1 PUSH2 0x1300 JUMP JUMPDEST PUSH1 0x40 MLOAD DUP1 SWAP2 SUB SWAP1 REVERT JUMPDEST DUP1 PUSH1 0x3 PUSH1 0x0 PUSH2 0x100 EXP DUP2 SLOAD DUP2 PUSH20 0xFFFFFFFFFFFFFFFFFFFFFFFFFFFFFFFFFFFFFFFF MUL NOT AND SWAP1 DUP4 PUSH20 0xFFFFFFFFFFFFFFFFFFFFFFFFFFFFFFFFFFFFFFFF AND MUL OR SWAP1 SSTORE POP POP JUMP JUMPDEST PUSH1 0x0 PUSH1 0x2 SLOAD SWAP1 POP SWAP1 JUMP JUMPDEST PUSH1 0x0 PUSH1 0x40 MLOAD SWAP1 POP SWAP1 JUMP JUMPDEST PUSH1 0x0 DUP1 REVERT JUMPDEST PUSH1 0x0 DUP1 REVERT JUMPDEST PUSH1 0x0 PUSH20 0xFFFFFFFFFFFFFFFFFFFFFFFFFFFFFFFFFFFFFFFF DUP3 AND SWAP1 POP SWAP2 SWAP1 POP JUMP JUMPDEST PUSH1 0x0 PUSH2 0xB95 DUP3 PUSH2 0xB6A JUMP JUMPDEST SWAP1 POP SWAP2 SWAP1 POP JUMP JUMPDEST PUSH2 0xBA5 DUP2 PUSH2 0xB8A JUMP JUMPDEST DUP2 EQ PUSH2 0xBB0 JUMPI PUSH1 0x0 DUP1 REVERT JUMPDEST POP JUMP JUMPDEST PUSH1 0x0 DUP2 CALLDATALOAD SWAP1 POP PUSH2 0xBC2 DUP2 PUSH2 0xB9C JUMP JUMPDEST SWAP3 SWAP2 POP POP JUMP JUMPDEST PUSH1 0x0 PUSH1 0x20 DUP3 DUP5 SUB SLT ISZERO PUSH2 0xBDE JUMPI PUSH2 0xBDD PUSH2 0xB60 JUMP JUMPDEST JUMPDEST PUSH1 0x0 PUSH2 0xBEC DUP5 DUP3 DUP6 ADD PUSH2 0xBB3 JUMP JUMPDEST SWAP2 POP POP SWAP3 SWAP2 POP POP JUMP JUMPDEST PUSH1 0x0 DUP2 ISZERO ISZERO SWAP1 POP SWAP2 SWAP1 POP JUMP JUMPDEST PUSH2 0xC0A DUP2 PUSH2 0xBF5 JUMP JUMPDEST DUP3 MSTORE POP POP JUMP JUMPDEST PUSH1 0x0 PUSH1 0x20 DUP3 ADD SWAP1 POP PUSH2 0xC25 PUSH1 0x0 DUP4 ADD DUP5 PUSH2 0xC01 JUMP JUMPDEST SWAP3 SWAP2 POP POP JUMP JUMPDEST PUSH1 0x0 DUP2 MLOAD SWAP1 POP SWAP2 SWAP1 POP JUMP JUMPDEST PUSH1 0x0 DUP3 DUP3 MSTORE PUSH1 0x20 DUP3 ADD SWAP1 POP SWAP3 SWAP2 POP POP JUMP JUMPDEST PUSH1 0x0 DUP2 SWAP1 POP PUSH1 0x20 DUP3 ADD SWAP1 POP SWAP2 SWAP1 POP JUMP JUMPDEST PUSH1 0x0 DUP2 SWAP1 POP SWAP2 SWAP1 POP JUMP JUMPDEST PUSH2 0xC6A DUP2 PUSH2 0xC57 JUMP JUMPDEST DUP3 MSTORE POP POP JUMP JUMPDEST PUSH1 0x0 PUSH2 0xC7C DUP4 DUP4 PUSH2 0xC61 JUMP JUMPDEST PUSH1 0x20 DUP4 ADD SWAP1 POP SWAP3 SWAP2 POP POP JUMP JUMPDEST PUSH1 0x0 PUSH1 0x20 DUP3 ADD SWAP1 POP SWAP2 SWAP1 POP JUMP JUMPDEST PUSH1 0x0 PUSH2 0xCA0 DUP3 PUSH2 0xC2B JUMP JUMPDEST PUSH2 0xCAA DUP2 DUP6 PUSH2 0xC36 JUMP JUMPDEST SWAP4 POP PUSH2 0xCB5 DUP4 PUSH2 0xC47 JUMP JUMPDEST DUP1 PUSH1 0x0 JUMPDEST DUP4 DUP2 LT ISZERO PUSH2 0xCE6 JUMPI DUP2 MLOAD PUSH2 0xCCD DUP9 DUP3 PUSH2 0xC70 JUMP JUMPDEST SWAP8 POP PUSH2 0xCD8 DUP4 PUSH2 0xC88 JUMP JUMPDEST SWAP3 POP POP PUSH1 0x1 DUP2 ADD SWAP1 POP PUSH2 0xCB9 JUMP JUMPDEST POP DUP6 SWAP4 POP POP POP POP SWAP3 SWAP2 POP POP JUMP JUMPDEST PUSH1 0x0 DUP2 MLOAD SWAP1 POP SWAP2 SWAP1 POP JUMP JUMPDEST PUSH1 0x0 DUP3 DUP3 MSTORE PUSH1 0x20 DUP3 ADD SWAP1 POP SWAP3 SWAP2 POP POP JUMP JUMPDEST PUSH1 0x0 DUP2 SWAP1 POP PUSH1 0x20 DUP3 ADD SWAP1 POP SWAP2 SWAP1 POP JUMP JUMPDEST PUSH2 0xD28 DUP2 PUSH2 0xBF5 JUMP JUMPDEST DUP3 MSTORE POP POP JUMP JUMPDEST PUSH1 0x0 PUSH2 0xD3A DUP4 DUP4 PUSH2 0xD1F JUMP JUMPDEST PUSH1 0x20 DUP4 ADD SWAP1 POP SWAP3 SWAP2 POP POP JUMP JUMPDEST PUSH1 0x0 PUSH1 0x20 DUP3 ADD SWAP1 POP SWAP2 SWAP1 POP JUMP JUMPDEST PUSH1 0x0 PUSH2 0xD5E DUP3 PUSH2 0xCF3 JUMP JUMPDEST PUSH2 0xD68 DUP2 DUP6 PUSH2 0xCFE JUMP JUMPDEST SWAP4 POP PUSH2 0xD73 DUP4 PUSH2 0xD0F JUMP JUMPDEST DUP1 PUSH1 0x0 JUMPDEST DUP4 DUP2 LT ISZERO PUSH2 0xDA4 JUMPI DUP2 MLOAD PUSH2 0xD8B DUP9 DUP3 PUSH2 0xD2E JUMP JUMPDEST SWAP8 POP PUSH2 0xD96 DUP4 PUSH2 0xD46 JUMP JUMPDEST SWAP3 POP POP PUSH1 0x1 DUP2 ADD SWAP1 POP PUSH2 0xD77 JUMP JUMPDEST POP DUP6 SWAP4 POP POP POP POP SWAP3 SWAP2 POP POP JUMP JUMPDEST PUSH1 0x0 PUSH1 0x40 DUP3 ADD SWAP1 POP DUP2 DUP2 SUB PUSH1 0x0 DUP4 ADD MSTORE PUSH2 0xDCB DUP2 DUP6 PUSH2 0xC95 JUMP JUMPDEST SWAP1 POP DUP2 DUP2 SUB PUSH1 0x20 DUP4 ADD MSTORE PUSH2 0xDDF DUP2 DUP5 PUSH2 0xD53 JUMP JUMPDEST SWAP1 POP SWAP4 SWAP3 POP POP POP JUMP JUMPDEST PUSH1 0x0 DUP2 SWAP1 POP SWAP2 SWAP1 POP JUMP JUMPDEST PUSH2 0xDFB DUP2 PUSH2 0xDE8 JUMP JUMPDEST DUP2 EQ PUSH2 0xE06 JUMPI PUSH1 0x0 DUP1 REVERT JUMPDEST POP JUMP JUMPDEST PUSH1 0x0 DUP2 CALLDATALOAD SWAP1 POP PUSH2 0xE18 DUP2 PUSH2 0xDF2 JUMP JUMPDEST SWAP3 SWAP2 POP POP JUMP JUMPDEST PUSH1 0x0 PUSH1 0x20 DUP3 DUP5 SUB SLT ISZERO PUSH2 0xE34 JUMPI PUSH2 0xE33 PUSH2 0xB60 JUMP JUMPDEST JUMPDEST PUSH1 0x0 PUSH2 0xE42 DUP5 DUP3 DUP6 ADD PUSH2 0xE09 JUMP JUMPDEST SWAP2 POP POP SWAP3 SWAP2 POP POP JUMP JUMPDEST PUSH1 0x0 DUP1 REVERT JUMPDEST PUSH1 0x0 PUSH1 0x1F NOT PUSH1 0x1F DUP4 ADD AND SWAP1 POP SWAP2 SWAP1 POP JUMP JUMPDEST PUSH32 0x4E487B7100000000000000000000000000000000000000000000000000000000 PUSH1 0x0 MSTORE PUSH1 0x41 PUSH1 0x4 MSTORE PUSH1 0x24 PUSH1 0x0 REVERT JUMPDEST PUSH2 0xE99 DUP3 PUSH2 0xE50 JUMP JUMPDEST DUP2 ADD DUP2 DUP2 LT PUSH8 0xFFFFFFFFFFFFFFFF DUP3 GT OR ISZERO PUSH2 0xEB8 JUMPI PUSH2 0xEB7 PUSH2 0xE61 JUMP JUMPDEST JUMPDEST DUP1 PUSH1 0x40 MSTORE POP POP POP JUMP JUMPDEST PUSH1 0x0 PUSH2 0xECB PUSH2 0xB56 JUMP JUMPDEST SWAP1 POP PUSH2 0xED7 DUP3 DUP3 PUSH2 0xE90 JUMP JUMPDEST SWAP2 SWAP1 POP JUMP JUMPDEST PUSH1 0x0 PUSH8 0xFFFFFFFFFFFFFFFF DUP3 GT ISZERO PUSH2 0xEF7 JUMPI PUSH2 0xEF6 PUSH2 0xE61 JUMP JUMPDEST JUMPDEST PUSH1 0x20 DUP3 MUL SWAP1 POP PUSH1 0x20 DUP2 ADD SWAP1 POP SWAP2 SWAP1 POP JUMP JUMPDEST PUSH1 0x0 DUP1 REVERT JUMPDEST PUSH1 0x0 PUSH2 0xF20 PUSH2 0xF1B DUP5 PUSH2 0xEDC JUMP JUMPDEST PUSH2 0xEC1 JUMP JUMPDEST SWAP1 POP DUP1 DUP4 DUP3 MSTORE PUSH1 0x20 DUP3 ADD SWAP1 POP PUSH1 0x20 DUP5 MUL DUP4 ADD DUP6 DUP2 GT ISZERO PUSH2 0xF43 JUMPI PUSH2 0xF42 PUSH2 0xF08 JUMP JUMPDEST JUMPDEST DUP4 JUMPDEST DUP2 DUP2 LT ISZERO PUSH2 0xF6C JUMPI DUP1 PUSH2 0xF58 DUP9 DUP3 PUSH2 0xE09 JUMP JUMPDEST DUP5 MSTORE PUSH1 0x20 DUP5 ADD SWAP4 POP POP PUSH1 0x20 DUP2 ADD SWAP1 POP PUSH2 0xF45 JUMP JUMPDEST POP POP POP SWAP4 SWAP3 POP POP POP JUMP JUMPDEST PUSH1 0x0 DUP3 PUSH1 0x1F DUP4 ADD SLT PUSH2 0xF8B JUMPI PUSH2 0xF8A PUSH2 0xE4B JUMP JUMPDEST JUMPDEST DUP2 CALLDATALOAD PUSH2 0xF9B DUP5 DUP3 PUSH1 0x20 DUP7 ADD PUSH2 0xF0D JUMP JUMPDEST SWAP2 POP POP SWAP3 SWAP2 POP POP JUMP JUMPDEST PUSH1 0x0 PUSH8 0xFFFFFFFFFFFFFFFF DUP3 GT ISZERO PUSH2 0xFBF JUMPI PUSH2 0xFBE PUSH2 0xE61 JUMP JUMPDEST JUMPDEST PUSH1 0x20 DUP3 MUL SWAP1 POP PUSH1 0x20 DUP2 ADD SWAP1 POP SWAP2 SWAP1 POP JUMP JUMPDEST PUSH2 0xFD9 DUP2 PUSH2 0xC57 JUMP JUMPDEST DUP2 EQ PUSH2 0xFE4 JUMPI PUSH1 0x0 DUP1 REVERT JUMPDEST POP JUMP JUMPDEST PUSH1 0x0 DUP2 CALLDATALOAD SWAP1 POP PUSH2 0xFF6 DUP2 PUSH2 0xFD0 JUMP JUMPDEST SWAP3 SWAP2 POP POP JUMP JUMPDEST PUSH1 0x0 PUSH2 0x100F PUSH2 0x100A DUP5 PUSH2 0xFA4 JUMP JUMPDEST PUSH2 0xEC1 JUMP JUMPDEST SWAP1 POP DUP1 DUP4 DUP3 MSTORE PUSH1 0x20 DUP3 ADD SWAP1 POP PUSH1 0x20 DUP5 MUL DUP4 ADD DUP6 DUP2 GT ISZERO PUSH2 0x1032 JUMPI PUSH2 0x1031 PUSH2 0xF08 JUMP JUMPDEST JUMPDEST DUP4 JUMPDEST DUP2 DUP2 LT ISZERO PUSH2 0x105B JUMPI DUP1 PUSH2 0x1047 DUP9 DUP3 PUSH2 0xFE7 JUMP JUMPDEST DUP5 MSTORE PUSH1 0x20 DUP5 ADD SWAP4 POP POP PUSH1 0x20 DUP2 ADD SWAP1 POP PUSH2 0x1034 JUMP JUMPDEST POP POP POP SWAP4 SWAP3 POP POP POP JUMP JUMPDEST PUSH1 0x0 DUP3 PUSH1 0x1F DUP4 ADD SLT PUSH2 0x107A JUMPI PUSH2 0x1079 PUSH2 0xE4B JUMP JUMPDEST JUMPDEST DUP2 CALLDATALOAD PUSH2 0x108A DUP5 DUP3 PUSH1 0x20 DUP7 ADD PUSH2 0xFFC JUMP JUMPDEST SWAP2 POP POP SWAP3 SWAP2 POP POP JUMP JUMPDEST PUSH1 0x0 PUSH8 0xFFFFFFFFFFFFFFFF DUP3 GT ISZERO PUSH2 0x10AE JUMPI PUSH2 0x10AD PUSH2 0xE61 JUMP JUMPDEST JUMPDEST PUSH1 0x20 DUP3 MUL SWAP1 POP PUSH1 0x20 DUP2 ADD SWAP1 POP SWAP2 SWAP1 POP JUMP JUMPDEST PUSH2 0x10C8 DUP2 PUSH2 0xBF5 JUMP JUMPDEST DUP2 EQ PUSH2 0x10D3 JUMPI PUSH1 0x0 DUP1 REVERT JUMPDEST POP JUMP JUMPDEST PUSH1 0x0 DUP2 CALLDATALOAD SWAP1 POP PUSH2 0x10E5 DUP2 PUSH2 0x10BF JUMP JUMPDEST SWAP3 SWAP2 POP POP JUMP JUMPDEST PUSH1 0x0 PUSH2 0x10FE PUSH2 0x10F9 DUP5 PUSH2 0x1093 JUMP JUMPDEST PUSH2 0xEC1 JUMP JUMPDEST SWAP1 POP DUP1 DUP4 DUP3 MSTORE PUSH1 0x20 DUP3 ADD SWAP1 POP PUSH1 0x20 DUP5 MUL DUP4 ADD DUP6 DUP2 GT ISZERO PUSH2 0x1121 JUMPI PUSH2 0x1120 PUSH2 0xF08 JUMP JUMPDEST JUMPDEST DUP4 JUMPDEST DUP2 DUP2 LT ISZERO PUSH2 0x114A JUMPI DUP1 PUSH2 0x1136 DUP9 DUP3 PUSH2 0x10D6 JUMP JUMPDEST DUP5 MSTORE PUSH1 0x20 DUP5 ADD SWAP4 POP POP PUSH1 0x20 DUP2 ADD SWAP1 POP PUSH2 0x1123 JUMP JUMPDEST POP POP POP SWAP4 SWAP3 POP POP POP JUMP JUMPDEST PUSH1 0x0 DUP3 PUSH1 0x1F DUP4 ADD SLT PUSH2 0x1169 JUMPI PUSH2 0x1168 PUSH2 0xE4B JUMP JUMPDEST JUMPDEST DUP2 CALLDATALOAD PUSH2 0x1179 DUP5 DUP3 PUSH1 0x20 DUP7 ADD PUSH2 0x10EB JUMP JUMPDEST SWAP2 POP POP SWAP3 SWAP2 POP POP JUMP JUMPDEST PUSH1 0x0 DUP1 PUSH1 0x0 PUSH1 0x60 DUP5 DUP7 SUB SLT ISZERO PUSH2 0x119B JUMPI PUSH2 0x119A PUSH2 0xB60 JUMP JUMPDEST JUMPDEST PUSH1 0x0 DUP5 ADD CALLDATALOAD PUSH8 0xFFFFFFFFFFFFFFFF DUP2 GT ISZERO PUSH2 0x11B9 JUMPI PUSH2 0x11B8 PUSH2 0xB65 JUMP JUMPDEST JUMPDEST PUSH2 0x11C5 DUP7 DUP3 DUP8 ADD PUSH2 0xF76 JUMP JUMPDEST SWAP4 POP POP PUSH1 0x20 DUP5 ADD CALLDATALOAD PUSH8 0xFFFFFFFFFFFFFFFF DUP2 GT ISZERO PUSH2 0x11E6 JUMPI PUSH2 0x11E5 PUSH2 0xB65 JUMP JUMPDEST JUMPDEST PUSH2 0x11F2 DUP7 DUP3 DUP8 ADD PUSH2 0x1065 JUMP JUMPDEST SWAP3 POP POP PUSH1 0x40 DUP5 ADD CALLDATALOAD PUSH8 0xFFFFFFFFFFFFFFFF DUP2 GT ISZERO PUSH2 0x1213 JUMPI PUSH2 0x1212 PUSH2 0xB65 JUMP JUMPDEST JUMPDEST PUSH2 0x121F DUP7 DUP3 DUP8 ADD PUSH2 0x1154 JUMP JUMPDEST SWAP2 POP POP SWAP3 POP SWAP3 POP SWAP3 JUMP JUMPDEST PUSH2 0x1232 DUP2 PUSH2 0xDE8 JUMP JUMPDEST DUP3 MSTORE POP POP JUMP JUMPDEST PUSH1 0x0 PUSH1 0x20 DUP3 ADD SWAP1 POP PUSH2 0x124D PUSH1 0x0 DUP4 ADD DUP5 PUSH2 0x1229 JUMP JUMPDEST SWAP3 SWAP2 POP POP JUMP JUMPDEST PUSH2 0x125C DUP2 PUSH2 0xC57 JUMP JUMPDEST DUP3 MSTORE POP POP JUMP JUMPDEST PUSH1 0x0 PUSH1 0x20 DUP3 ADD SWAP1 POP PUSH2 0x1277 PUSH1 0x0 DUP4 ADD DUP5 PUSH2 0x1253 JUMP JUMPDEST SWAP3 SWAP2 POP POP JUMP JUMPDEST PUSH1 0x0 DUP3 DUP3 MSTORE PUSH1 0x20 DUP3 ADD SWAP1 POP SWAP3 SWAP2 POP POP JUMP JUMPDEST PUSH32 0x54686973206F7065726174696F6E206973207265737472696374656420746F20 PUSH1 0x0 DUP3 ADD MSTORE PUSH32 0x746865206F776E6572206F662074686520636F6E747261637400000000000000 PUSH1 0x20 DUP3 ADD MSTORE POP JUMP JUMPDEST PUSH1 0x0 PUSH2 0x12EA PUSH1 0x39 DUP4 PUSH2 0x127D JUMP JUMPDEST SWAP2 POP PUSH2 0x12F5 DUP3 PUSH2 0x128E JUMP JUMPDEST PUSH1 0x40 DUP3 ADD SWAP1 POP SWAP2 SWAP1 POP JUMP JUMPDEST PUSH1 0x0 PUSH1 0x20 DUP3 ADD SWAP1 POP DUP2 DUP2 SUB PUSH1 0x0 DUP4 ADD MSTORE PUSH2 0x1319 DUP2 PUSH2 0x12DD JUMP JUMPDEST SWAP1 POP SWAP2 SWAP1 POP JUMP JUMPDEST PUSH2 0x1329 DUP2 PUSH2 0xB8A JUMP JUMPDEST DUP3 MSTORE POP POP JUMP JUMPDEST PUSH1 0x0 PUSH1 0x20 DUP3 ADD SWAP1 POP PUSH2 0x1344 PUSH1 0x0 DUP4 ADD DUP5 PUSH2 0x1320 JUMP JUMPDEST SWAP3 SWAP2 POP POP JUMP JUMPDEST PUSH32 0x4E487B7100000000000000000000000000000000000000000000000000000000 PUSH1 0x0 MSTORE PUSH1 0x32 PUSH1 0x4 MSTORE PUSH1 0x24 PUSH1 0x0 REVERT JUMPDEST PUSH32 0x4E487B7100000000000000000000000000000000000000000000000000000000 PUSH1 0x0 MSTORE PUSH1 0x11 PUSH1 0x4 MSTORE PUSH1 0x24 PUSH1 0x0 REVERT JUMPDEST PUSH1 0x0 PUSH2 0x13B3 DUP3 PUSH2 0xDE8 JUMP JUMPDEST SWAP2 POP PUSH32 0xFFFFFFFFFFFFFFFFFFFFFFFFFFFFFFFFFFFFFFFFFFFFFFFFFFFFFFFFFFFFFFFF DUP3 EQ ISZERO PUSH2 0x13E6 JUMPI PUSH2 0x13E5 PUSH2 0x1379 JUMP JUMPDEST JUMPDEST PUSH1 0x1 DUP3 ADD SWAP1 POP SWAP2 SWAP1 POP JUMP JUMPDEST PUSH32 0x596F75206D75737420686176652077726974652061636365737320746F206368 PUSH1 0x0 DUP3 ADD MSTORE PUSH32 0x616E67652074686520636F6E7472616374207374617465000000000000000000 PUSH1 0x20 DUP3 ADD MSTORE POP JUMP JUMPDEST PUSH1 0x0 PUSH2 0x144D PUSH1 0x37 DUP4 PUSH2 0x127D JUMP JUMPDEST SWAP2 POP PUSH2 0x1458 DUP3 PUSH2 0x13F1 JUMP JUMPDEST PUSH1 0x40 DUP3 ADD SWAP1 POP SWAP2 SWAP1 POP JUMP JUMPDEST PUSH1 0x0 PUSH1 0x20 DUP3 ADD SWAP1 POP DUP2 DUP2 SUB PUSH1 0x0 DUP4 ADD MSTORE PUSH2 0x147C DUP2 PUSH2 0x1440 JUMP JUMPDEST SWAP1 POP SWAP2 SWAP1 POP JUMP JUMPDEST PUSH1 0x0 PUSH1 0x40 DUP3 ADD SWAP1 POP PUSH2 0x1498 PUSH1 0x0 DUP4 ADD DUP6 PUSH2 0x1229 JUMP JUMPDEST PUSH2 0x14A5 PUSH1 0x20 DUP4 ADD DUP5 PUSH2 0xC01 JUMP JUMPDEST SWAP4 SWAP3 POP POP POP JUMP JUMPDEST PUSH1 0x0 PUSH2 0x14B7 DUP3 PUSH2 0xDE8 JUMP JUMPDEST SWAP2 POP PUSH2 0x14C2 DUP4 PUSH2 0xDE8 JUMP JUMPDEST SWAP3 POP DUP3 PUSH32 0xFFFFFFFFFFFFFFFFFFFFFFFFFFFFFFFFFFFFFFFFFFFFFFFFFFFFFFFFFFFFFFFF SUB DUP3 GT ISZERO PUSH2 0x14F7 JUMPI PUSH2 0x14F6 PUSH2 0x1379 JUMP JUMPDEST JUMPDEST DUP3 DUP3 ADD SWAP1 POP SWAP3 SWAP2 POP POP JUMP JUMPDEST PUSH1 0x0 PUSH1 0x60 DUP3 ADD SWAP1 POP PUSH2 0x1517 PUSH1 0x0 DUP4 ADD DUP7 PUSH2 0x1229 JUMP JUMPDEST PUSH2 0x1524 PUSH1 0x20 DUP4 ADD DUP6 PUSH2 0x1253 JUMP JUMPDEST PUSH2 0x1531 PUSH1 0x40 DUP4 ADD DUP5 PUSH2 0xC01 JUMP JUMPDEST SWAP5 SWAP4 POP POP POP POP JUMP INVALID LOG2 PUSH5 0x6970667358 0x22 SLT KECCAK256 MLOAD 0xE2 0xEB 0xD7 0xB5 SWAP5 0xC8 0x4B 0xB7 0xC2 0x2E 0xC6 DUP10 PUSH19 0xD43C9CCB6AB25C16432D854D6C5216A138B864 PUSH20 0x6F6C63430008090033A26469706673582212206A CREATE 0xDF CODESIZE SWAP5 JUMPI 0x23 0xDF ORIGIN 0xB8 LOG3 0xD0 0x2D CALLDATACOPY 0xBF 0xC4 PUSH21 0xD42FB1221C55296C3E2D1504B399064736F6C6343 STOP ADDMOD MULMOD STOP CALLER "
        },
        "methodIdentifiers": {
          "addList(address)": "9db33244",
          "createList(bytes32)": "426e3daa",
          "getLists()": "cb4b0909",
          "removeList(address)": "60a20c49"
        }
      }
    }
  }
}