{
  "_format": "hh-sol-artifact-1",
  "contractName": "TodoList",
  "sourceName": "contracts/TodoList.sol",
  "abi": [
    {
      "inputs": [
        {
          "internalType": "bytes32",
          "name": "_title",
          "type": "bytes32"
        },
        {
          "internalType": "address",
          "name": "_owner",
          "type": "address"
        },
        {
          "internalType": "uint256",
          "name": "_index",
          "type": "uint256"
        },
        {
          "internalType": "bool",
          "name": "_isPrivate",
          "type": "bool"
        }
      ],
      "stateMutability": "nonpayable",
      "type": "constructor"
    },
    {
      "anonymous": false,
      "inputs": [],
      "name": "ChangesSaved",
      "type": "event"
    },
    {
      "anonymous": false,
      "inputs": [
        {
          "indexed": false,
          "internalType": "address",
          "name": "addr",
          "type": "address"
        }
      ],
      "name": "ReadAccessModified",
      "type": "event"
    },
    {
      "anonymous": false,
      "inputs": [
        {
          "indexed": false,
          "internalType": "uint256",
          "name": "id",
          "type": "uint256"
        },
        {
          "indexed": false,
          "internalType": "bytes32",
          "name": "content",
          "type": "bytes32"
        },
        {
          "indexed": false,
          "internalType": "bool",
          "name": "status",
          "type": "bool"
        }
      ],
      "name": "TaskCreated",
      "type": "event"
    },
    {
      "anonymous": false,
      "inputs": [
        {
          "indexed": false,
          "internalType": "uint256",
          "name": "id",
          "type": "uint256"
        },
        {
          "indexed": false,
          "internalType": "bool",
          "name": "completed",
          "type": "bool"
        }
      ],
      "name": "TaskToggled",
      "type": "event"
    },
    {
      "anonymous": false,
      "inputs": [
        {
          "indexed": false,
          "internalType": "address",
          "name": "addr",
          "type": "address"
        }
      ],
      "name": "WriteAccessModified",
      "type": "event"
    },
    {
      "inputs": [],
      "name": "getData",
      "outputs": [
        {
          "internalType": "bytes32[]",
          "name": "",
          "type": "bytes32[]"
        },
        {
          "internalType": "bool[]",
          "name": "",
          "type": "bool[]"
        }
      ],
      "stateMutability": "view",
      "type": "function"
    },
    {
      "inputs": [],
      "name": "getIndex",
      "outputs": [
        {
          "internalType": "uint256",
          "name": "",
          "type": "uint256"
        }
      ],
      "stateMutability": "view",
      "type": "function"
    },
    {
      "inputs": [],
      "name": "getOwnershipStatus",
      "outputs": [
        {
          "internalType": "bool",
          "name": "",
          "type": "bool"
        }
      ],
      "stateMutability": "view",
      "type": "function"
    },
    {
      "inputs": [],
      "name": "getPrivacyStatus",
      "outputs": [
        {
          "internalType": "bool",
          "name": "",
          "type": "bool"
        }
      ],
      "stateMutability": "view",
      "type": "function"
    },
    {
      "inputs": [],
      "name": "getReadStatus",
      "outputs": [
        {
          "internalType": "bool",
          "name": "",
          "type": "bool"
        }
      ],
      "stateMutability": "view",
      "type": "function"
    },
    {
      "inputs": [],
      "name": "getTaskCount",
      "outputs": [
        {
          "internalType": "uint256",
          "name": "",
          "type": "uint256"
        }
      ],
      "stateMutability": "view",
      "type": "function"
    },
    {
      "inputs": [],
      "name": "getTitle",
      "outputs": [
        {
          "internalType": "bytes32",
          "name": "",
          "type": "bytes32"
        }
      ],
      "stateMutability": "view",
      "type": "function"
    },
    {
      "inputs": [],
      "name": "getWriteStatus",
      "outputs": [
        {
          "internalType": "bool",
          "name": "",
          "type": "bool"
        }
      ],
      "stateMutability": "view",
      "type": "function"
    },
    {
      "inputs": [
        {
          "internalType": "address",
          "name": "addr",
          "type": "address"
        }
      ],
      "name": "grantReadAccess",
      "outputs": [],
      "stateMutability": "nonpayable",
      "type": "function"
    },
    {
      "inputs": [
        {
          "internalType": "address",
          "name": "addr",
          "type": "address"
        }
      ],
      "name": "grantWriteAccess",
      "outputs": [],
      "stateMutability": "nonpayable",
      "type": "function"
    },
    {
      "inputs": [
        {
          "internalType": "uint256[]",
          "name": "_ids",
          "type": "uint256[]"
        },
        {
          "internalType": "bytes32[]",
          "name": "_contents",
          "type": "bytes32[]"
        },
        {
          "internalType": "bool[]",
          "name": "_statuses",
          "type": "bool[]"
        }
      ],
      "name": "saveChanges",
      "outputs": [],
      "stateMutability": "nonpayable",
      "type": "function"
    },
    {
      "inputs": [
        {
          "internalType": "uint256",
          "name": "id",
          "type": "uint256"
        }
      ],
      "name": "toggleCompleted",
      "outputs": [],
      "stateMutability": "nonpayable",
      "type": "function"
    },
    {
      "inputs": [],
      "name": "togglePrivacy",
      "outputs": [],
      "stateMutability": "nonpayable",
      "type": "function"
    },
    {
      "inputs": [
        {
          "internalType": "address",
          "name": "addr",
          "type": "address"
        }
      ],
      "name": "toggleReadAccess",
      "outputs": [],
      "stateMutability": "nonpayable",
      "type": "function"
    },
    {
      "inputs": [
        {
          "internalType": "address",
          "name": "addr",
          "type": "address"
        }
      ],
      "name": "toggleWriteAccess",
      "outputs": [],
      "stateMutability": "nonpayable",
      "type": "function"
    },
    {
      "inputs": [
        {
          "internalType": "address",
          "name": "transferAddr",
          "type": "address"
        }
      ],
      "name": "transferOwnership",
      "outputs": [],
      "stateMutability": "nonpayable",
      "type": "function"
    }
  ],
  "bytecode": "0x60806040523480156200001157600080fd5b5060405162001d9638038062001d96833981810160405281019062000037919062000241565b8160008190555082600360006101000a81548173ffffffffffffffffffffffffffffffffffffffff021916908373ffffffffffffffffffffffffffffffffffffffff1602179055508360028190555080600360146101000a81548160ff021916908315150217905550600160046000600360009054906101000a900473ffffffffffffffffffffffffffffffffffffffff1673ffffffffffffffffffffffffffffffffffffffff1673ffffffffffffffffffffffffffffffffffffffff16815260200190815260200160002060006101000a81548160ff02191690831515021790555050505050620002b3565b600080fd5b6000819050919050565b6200013e8162000129565b81146200014a57600080fd5b50565b6000815190506200015e8162000133565b92915050565b600073ffffffffffffffffffffffffffffffffffffffff82169050919050565b6000620001918262000164565b9050919050565b620001a38162000184565b8114620001af57600080fd5b50565b600081519050620001c38162000198565b92915050565b6000819050919050565b620001de81620001c9565b8114620001ea57600080fd5b50565b600081519050620001fe81620001d3565b92915050565b60008115159050919050565b6200021b8162000204565b81146200022757600080fd5b50565b6000815190506200023b8162000210565b92915050565b600080600080608085870312156200025e576200025d62000124565b5b60006200026e878288016200014d565b94505060206200028187828801620001b2565b93505060406200029487828801620001ed565b9250506060620002a7878288016200022a565b91505092959194509250565b611ad380620002c36000396000f3fe608060405234801561001057600080fd5b50600436106101005760003560e01c80638376800e11610097578063c17a340e11610066578063c17a340e14610250578063e5a5e6fe1461026e578063f2fde38b1461028a578063ff3c1a8f146102a657610100565b80638376800e146101dc578063a30f75c9146101f8578063a68d489b14610216578063b42e17fb1461023457610100565b8063455f5024116100d3578063455f502414610168578063564047ef146101845780635ef2ea79146101a257806381045ead146101be57610100565b806306cde382146101055780631122b3a61461010f578063197a6dc01461012b5780633bc5de3014610149575b600080fd5b61010d6102c4565b005b6101296004803603810190610124919061112c565b610380565b005b6101336104ee565b6040516101409190611174565b60405180910390f35b610151610546565b60405161015f929190611315565b60405180910390f35b610182600480360381019061017d9190611382565b610693565b005b61018c6107d7565b6040516101999190611174565b60405180910390f35b6101bc60048036038101906101b791906116e6565b610851565b005b6101c6610afa565b6040516101d3919061179c565b60405180910390f35b6101f660048036038101906101f1919061112c565b610b03565b005b610200610c71565b60405161020d9190611174565b60405180910390f35b61021e610cc5565b60405161022b9190611174565b60405180910390f35b61024e6004803603810190610249919061112c565b610cdc565b005b610258610dfe565b604051610265919061179c565b60405180910390f35b6102886004803603810190610283919061112c565b610e08565b005b6102a4600480360381019061029f919061112c565b610fdc565b005b6102ae6110b0565b6040516102bb91906117c6565b60405180910390f35b600360009054906101000a900473ffffffffffffffffffffffffffffffffffffffff1673ffffffffffffffffffffffffffffffffffffffff163373ffffffffffffffffffffffffffffffffffffffff1614610354576040517f08c379a000000000000000000000000000000000000000000000000000000000815260040161034b90611864565b60405180910390fd5b600360149054906101000a900460ff1615600360146101000a81548160ff021916908315150217905550565b600360009054906101000a900473ffffffffffffffffffffffffffffffffffffffff1673ffffffffffffffffffffffffffffffffffffffff163373ffffffffffffffffffffffffffffffffffffffff1614610410576040517f08c379a000000000000000000000000000000000000000000000000000000000815260040161040790611864565b60405180910390fd5b600460008273ffffffffffffffffffffffffffffffffffffffff1673ffffffffffffffffffffffffffffffffffffffff16815260200190815260200160002060009054906101000a900460ff1615600460008373ffffffffffffffffffffffffffffffffffffffff1673ffffffffffffffffffffffffffffffffffffffff16815260200190815260200160002060006101000a81548160ff0219169083151502179055507f5bf5439f7f9350bd946ae989209039471cdc88d8524b96de66b8d1f876abd770816040516104e39190611893565b60405180910390a150565b60003373ffffffffffffffffffffffffffffffffffffffff16600360009054906101000a900473ffffffffffffffffffffffffffffffffffffffff1673ffffffffffffffffffffffffffffffffffffffff1614905090565b606080600060015467ffffffffffffffff811115610567576105666113c5565b5b6040519080825280602002602001820160405280156105955781602001602082028036833780820191505090505b509050600060015467ffffffffffffffff8111156105b6576105b56113c5565b5b6040519080825280602002602001820160405280156105e45781602001602082028036833780820191505090505b50905060005b60015481101561068657600660008281526020019081526020016000206000015483828151811061061e5761061d6118ae565b5b6020026020010181815250506006600082815260200190815260200160002060010160009054906101000a900460ff16828281518110610661576106606118ae565b5b602002602001019015159081151581525050808061067e9061190c565b9150506105ea565b5081819350935050509091565b60011515600460003373ffffffffffffffffffffffffffffffffffffffff1673ffffffffffffffffffffffffffffffffffffffff16815260200190815260200160002060009054906101000a900460ff16151514610726576040517f08c379a000000000000000000000000000000000000000000000000000000000815260040161071d906119c7565b60405180910390fd5b6006600082815260200190815260200160002060010160009054906101000a900460ff16156006600083815260200190815260200160002060010160006101000a81548160ff0219169083151502179055507fe668c7a227d9261aa1f964bf5a852ab642446a7af6c29405caf8d0e9ce2c11f0816006600084815260200190815260200160002060010160009054906101000a900460ff166040516107cc9291906119e7565b60405180910390a150565b600060011515600360149054906101000a900460ff161515141561084957600560003373ffffffffffffffffffffffffffffffffffffffff1673ffffffffffffffffffffffffffffffffffffffff16815260200190815260200160002060009054906101000a900460ff16905061084e565b600190505b90565b60011515600460003373ffffffffffffffffffffffffffffffffffffffff1673ffffffffffffffffffffffffffffffffffffffff16815260200190815260200160002060009054906101000a900460ff161515146108e4576040517f08c379a00000000000000000000000000000000000000000000000000000000081526004016108db906119c7565b60405180910390fd5b6000805b8451811015610ab65781858281518110610905576109046118ae565b5b60200260200101511061093c576001858281518110610927576109266118ae565b5b60200260200101516109399190611a10565b91505b604051806040016040528085838151811061095a576109596118ae565b5b6020026020010151815260200184838151811061097a576109796118ae565b5b602002602001015115158152506006600087848151811061099e5761099d6118ae565b5b602002602001015181526020019081526020016000206000820151816000015560208201518160010160006101000a81548160ff0219169083151502179055509050507feffc45379f030f429cb52689dc4cebc43b405dbefe7a792f36de70c24a213485858281518110610a1557610a146118ae565b5b602002602001015160066000888581518110610a3457610a336118ae565b5b602002602001015181526020019081526020016000206000015460066000898681518110610a6557610a646118ae565b5b6020026020010151815260200190815260200160002060010160009054906101000a900460ff16604051610a9b93929190611a66565b60405180910390a18080610aae9061190c565b9150506108e8565b506001548110610ac857806001819055505b7f8080f39d268bf0b9bc04bcf29765470f11fd7422f9a1523f5286ce23fd1d6f2160405160405180910390a150505050565b60008054905090565b600360009054906101000a900473ffffffffffffffffffffffffffffffffffffffff1673ffffffffffffffffffffffffffffffffffffffff163373ffffffffffffffffffffffffffffffffffffffff1614610b93576040517f08c379a0000000000000000000000000000000000000000000000000000000008152600401610b8a90611864565b60405180910390fd5b600560008273ffffffffffffffffffffffffffffffffffffffff1673ffffffffffffffffffffffffffffffffffffffff16815260200190815260200160002060009054906101000a900460ff1615600560008373ffffffffffffffffffffffffffffffffffffffff1673ffffffffffffffffffffffffffffffffffffffff16815260200190815260200160002060006101000a81548160ff0219169083151502179055507f5bf5439f7f9350bd946ae989209039471cdc88d8524b96de66b8d1f876abd77081604051610c669190611893565b60405180910390a150565b6000600460003373ffffffffffffffffffffffffffffffffffffffff1673ffffffffffffffffffffffffffffffffffffffff16815260200190815260200160002060009054906101000a900460ff16905090565b6000600360149054906101000a900460ff16905090565b600360009054906101000a900473ffffffffffffffffffffffffffffffffffffffff1673ffffffffffffffffffffffffffffffffffffffff163373ffffffffffffffffffffffffffffffffffffffff1614610d6c576040517f08c379a0000000000000000000000000000000000000000000000000000000008152600401610d6390611864565b60405180910390fd5b6001600560008373ffffffffffffffffffffffffffffffffffffffff1673ffffffffffffffffffffffffffffffffffffffff16815260200190815260200160002060006101000a81548160ff0219169083151502179055507f5bf5439f7f9350bd946ae989209039471cdc88d8524b96de66b8d1f876abd77081604051610df39190611893565b60405180910390a150565b6000600154905090565b600360009054906101000a900473ffffffffffffffffffffffffffffffffffffffff1673ffffffffffffffffffffffffffffffffffffffff163373ffffffffffffffffffffffffffffffffffffffff1614610e98576040517f08c379a0000000000000000000000000000000000000000000000000000000008152600401610e8f90611864565b60405180910390fd5b6001600460008373ffffffffffffffffffffffffffffffffffffffff1673ffffffffffffffffffffffffffffffffffffffff16815260200190815260200160002060006101000a81548160ff02191690831515021790555060001515600560008373ffffffffffffffffffffffffffffffffffffffff1673ffffffffffffffffffffffffffffffffffffffff16815260200190815260200160002060009054906101000a900460ff1615151415610fa2576001600560008373ffffffffffffffffffffffffffffffffffffffff1673ffffffffffffffffffffffffffffffffffffffff16815260200190815260200160002060006101000a81548160ff0219169083151502179055505b7f5bf5439f7f9350bd946ae989209039471cdc88d8524b96de66b8d1f876abd77081604051610fd19190611893565b60405180910390a150565b600360009054906101000a900473ffffffffffffffffffffffffffffffffffffffff1673ffffffffffffffffffffffffffffffffffffffff163373ffffffffffffffffffffffffffffffffffffffff161461106c576040517f08c379a000000000000000000000000000000000000000000000000000000000815260040161106390611864565b60405180910390fd5b80600360006101000a81548173ffffffffffffffffffffffffffffffffffffffff021916908373ffffffffffffffffffffffffffffffffffffffff16021790555050565b6000600254905090565b6000604051905090565b600080fd5b600080fd5b600073ffffffffffffffffffffffffffffffffffffffff82169050919050565b60006110f9826110ce565b9050919050565b611109816110ee565b811461111457600080fd5b50565b60008135905061112681611100565b92915050565b600060208284031215611142576111416110c4565b5b600061115084828501611117565b91505092915050565b60008115159050919050565b61116e81611159565b82525050565b60006020820190506111896000830184611165565b92915050565b600081519050919050565b600082825260208201905092915050565b6000819050602082019050919050565b6000819050919050565b6111ce816111bb565b82525050565b60006111e083836111c5565b60208301905092915050565b6000602082019050919050565b60006112048261118f565b61120e818561119a565b9350611219836111ab565b8060005b8381101561124a57815161123188826111d4565b975061123c836111ec565b92505060018101905061121d565b5085935050505092915050565b600081519050919050565b600082825260208201905092915050565b6000819050602082019050919050565b61128c81611159565b82525050565b600061129e8383611283565b60208301905092915050565b6000602082019050919050565b60006112c282611257565b6112cc8185611262565b93506112d783611273565b8060005b838110156113085781516112ef8882611292565b97506112fa836112aa565b9250506001810190506112db565b5085935050505092915050565b6000604082019050818103600083015261132f81856111f9565b9050818103602083015261134381846112b7565b90509392505050565b6000819050919050565b61135f8161134c565b811461136a57600080fd5b50565b60008135905061137c81611356565b92915050565b600060208284031215611398576113976110c4565b5b60006113a68482850161136d565b91505092915050565b600080fd5b6000601f19601f8301169050919050565b7f4e487b7100000000000000000000000000000000000000000000000000000000600052604160045260246000fd5b6113fd826113b4565b810181811067ffffffffffffffff8211171561141c5761141b6113c5565b5b80604052505050565b600061142f6110ba565b905061143b82826113f4565b919050565b600067ffffffffffffffff82111561145b5761145a6113c5565b5b602082029050602081019050919050565b600080fd5b600061148461147f84611440565b611425565b905080838252602082019050602084028301858111156114a7576114a661146c565b5b835b818110156114d057806114bc888261136d565b8452602084019350506020810190506114a9565b5050509392505050565b600082601f8301126114ef576114ee6113af565b5b81356114ff848260208601611471565b91505092915050565b600067ffffffffffffffff821115611523576115226113c5565b5b602082029050602081019050919050565b61153d816111bb565b811461154857600080fd5b50565b60008135905061155a81611534565b92915050565b600061157361156e84611508565b611425565b905080838252602082019050602084028301858111156115965761159561146c565b5b835b818110156115bf57806115ab888261154b565b845260208401935050602081019050611598565b5050509392505050565b600082601f8301126115de576115dd6113af565b5b81356115ee848260208601611560565b91505092915050565b600067ffffffffffffffff821115611612576116116113c5565b5b602082029050602081019050919050565b61162c81611159565b811461163757600080fd5b50565b60008135905061164981611623565b92915050565b600061166261165d846115f7565b611425565b905080838252602082019050602084028301858111156116855761168461146c565b5b835b818110156116ae578061169a888261163a565b845260208401935050602081019050611687565b5050509392505050565b600082601f8301126116cd576116cc6113af565b5b81356116dd84826020860161164f565b91505092915050565b6000806000606084860312156116ff576116fe6110c4565b5b600084013567ffffffffffffffff81111561171d5761171c6110c9565b5b611729868287016114da565b935050602084013567ffffffffffffffff81111561174a576117496110c9565b5b611756868287016115c9565b925050604084013567ffffffffffffffff811115611777576117766110c9565b5b611783868287016116b8565b9150509250925092565b6117968161134c565b82525050565b60006020820190506117b1600083018461178d565b92915050565b6117c0816111bb565b82525050565b60006020820190506117db60008301846117b7565b92915050565b600082825260208201905092915050565b7f54686973206f7065726174696f6e206973207265737472696374656420746f2060008201527f746865206f776e6572206f662074686520636f6e747261637400000000000000602082015250565b600061184e6039836117e1565b9150611859826117f2565b604082019050919050565b6000602082019050818103600083015261187d81611841565b9050919050565b61188d816110ee565b82525050565b60006020820190506118a86000830184611884565b92915050565b7f4e487b7100000000000000000000000000000000000000000000000000000000600052603260045260246000fd5b7f4e487b7100000000000000000000000000000000000000000000000000000000600052601160045260246000fd5b60006119178261134c565b91507fffffffffffffffffffffffffffffffffffffffffffffffffffffffffffffffff82141561194a576119496118dd565b5b600182019050919050565b7f596f75206d75737420686176652077726974652061636365737320746f20636860008201527f616e67652074686520636f6e7472616374207374617465000000000000000000602082015250565b60006119b16037836117e1565b91506119bc82611955565b604082019050919050565b600060208201905081810360008301526119e0816119a4565b9050919050565b60006040820190506119fc600083018561178d565b611a096020830184611165565b9392505050565b6000611a1b8261134c565b9150611a268361134c565b9250827fffffffffffffffffffffffffffffffffffffffffffffffffffffffffffffffff03821115611a5b57611a5a6118dd565b5b828201905092915050565b6000606082019050611a7b600083018661178d565b611a8860208301856117b7565b611a956040830184611165565b94935050505056fea264697066735822122043712980a62d2aa7e364dab821e1f2ef2d73c4e0ab87193e8048669f63b8bd1c64736f6c63430008090033",
  "linkReferences": {},
  "deployedLinkReferences": {}
}