{
  "_format": "hh-sol-artifact-1",
  "contractName": "TodoList",
  "sourceName": "contracts/TodoList.sol",
  "abi": [
    {
      "inputs": [
        {
          "internalType": "bytes32",
          "name": "_title",
          "type": "bytes32"
        },
        {
          "internalType": "address",
          "name": "_owner",
          "type": "address"
        },
        {
          "internalType": "uint256",
          "name": "_index",
          "type": "uint256"
        }
      ],
      "stateMutability": "nonpayable",
      "type": "constructor"
    },
    {
      "anonymous": false,
      "inputs": [],
      "name": "ChangesSaved",
      "type": "event"
    },
    {
      "anonymous": false,
      "inputs": [
        {
          "indexed": false,
          "internalType": "uint256",
          "name": "id",
          "type": "uint256"
        },
        {
          "indexed": false,
          "internalType": "bytes32",
          "name": "content",
          "type": "bytes32"
        },
        {
          "indexed": false,
          "internalType": "bool",
          "name": "status",
          "type": "bool"
        }
      ],
      "name": "TaskCreated",
      "type": "event"
    },
    {
      "anonymous": false,
      "inputs": [
        {
          "indexed": false,
          "internalType": "uint256",
          "name": "id",
          "type": "uint256"
        },
        {
          "indexed": false,
          "internalType": "bool",
          "name": "completed",
          "type": "bool"
        }
      ],
      "name": "TaskToggled",
      "type": "event"
    },
    {
      "anonymous": false,
      "inputs": [
        {
          "indexed": false,
          "internalType": "address",
          "name": "addr",
          "type": "address"
        }
      ],
      "name": "WriteAccessModified",
      "type": "event"
    },
    {
      "inputs": [],
      "name": "getData",
      "outputs": [
        {
          "internalType": "bytes32[]",
          "name": "",
          "type": "bytes32[]"
        },
        {
          "internalType": "bool[]",
          "name": "",
          "type": "bool[]"
        }
      ],
      "stateMutability": "view",
      "type": "function"
    },
    {
      "inputs": [],
      "name": "getIndex",
      "outputs": [
        {
          "internalType": "uint256",
          "name": "",
          "type": "uint256"
        }
      ],
      "stateMutability": "view",
      "type": "function"
    },
    {
      "inputs": [],
      "name": "getOwnershipStatus",
      "outputs": [
        {
          "internalType": "bool",
          "name": "",
          "type": "bool"
        }
      ],
      "stateMutability": "view",
      "type": "function"
    },
    {
      "inputs": [],
      "name": "getTaskCount",
      "outputs": [
        {
          "internalType": "uint256",
          "name": "",
          "type": "uint256"
        }
      ],
      "stateMutability": "view",
      "type": "function"
    },
    {
      "inputs": [],
      "name": "getTitle",
      "outputs": [
        {
          "internalType": "bytes32",
          "name": "",
          "type": "bytes32"
        }
      ],
      "stateMutability": "view",
      "type": "function"
    },
    {
      "inputs": [],
      "name": "getWriteStatus",
      "outputs": [
        {
          "internalType": "bool",
          "name": "",
          "type": "bool"
        }
      ],
      "stateMutability": "view",
      "type": "function"
    },
    {
      "inputs": [
        {
          "internalType": "address",
          "name": "addr",
          "type": "address"
        }
      ],
      "name": "grantWriteAccess",
      "outputs": [],
      "stateMutability": "nonpayable",
      "type": "function"
    },
    {
      "inputs": [
        {
          "internalType": "uint256[]",
          "name": "_ids",
          "type": "uint256[]"
        },
        {
          "internalType": "bytes32[]",
          "name": "_contents",
          "type": "bytes32[]"
        },
        {
          "internalType": "bool[]",
          "name": "_statuses",
          "type": "bool[]"
        }
      ],
      "name": "saveChanges",
      "outputs": [],
      "stateMutability": "nonpayable",
      "type": "function"
    },
    {
      "inputs": [
        {
          "internalType": "uint256",
          "name": "id",
          "type": "uint256"
        }
      ],
      "name": "toggleCompleted",
      "outputs": [],
      "stateMutability": "nonpayable",
      "type": "function"
    },
    {
      "inputs": [
        {
          "internalType": "address",
          "name": "addr",
          "type": "address"
        }
      ],
      "name": "toggleWriteAccess",
      "outputs": [],
      "stateMutability": "nonpayable",
      "type": "function"
    },
    {
      "inputs": [
        {
          "internalType": "address",
          "name": "transferAddr",
          "type": "address"
        }
      ],
      "name": "transferOwnership",
      "outputs": [],
      "stateMutability": "nonpayable",
      "type": "function"
    }
  ],
  "bytecode": "0x60806040523480156200001157600080fd5b50604051620017c4380380620017c48339818101604052810190620000379190620001e9565b8060008190555081600360006101000a81548173ffffffffffffffffffffffffffffffffffffffff021916908373ffffffffffffffffffffffffffffffffffffffff16021790555082600281905550600160046000600360009054906101000a900473ffffffffffffffffffffffffffffffffffffffff1673ffffffffffffffffffffffffffffffffffffffff1673ffffffffffffffffffffffffffffffffffffffff16815260200190815260200160002060006101000a81548160ff02191690831515021790555050505062000245565b600080fd5b6000819050919050565b62000123816200010e565b81146200012f57600080fd5b50565b600081519050620001438162000118565b92915050565b600073ffffffffffffffffffffffffffffffffffffffff82169050919050565b6000620001768262000149565b9050919050565b620001888162000169565b81146200019457600080fd5b50565b600081519050620001a8816200017d565b92915050565b6000819050919050565b620001c381620001ae565b8114620001cf57600080fd5b50565b600081519050620001e381620001b8565b92915050565b60008060006060848603121562000205576200020462000109565b5b6000620002158682870162000132565b9350506020620002288682870162000197565b92505060406200023b86828701620001d2565b9150509250925092565b61156f80620002556000396000f3fe608060405234801561001057600080fd5b50600436106100a95760003560e01c806381045ead1161007157806381045ead1461013f578063a30f75c91461015d578063c17a340e1461017b578063e5a5e6fe14610199578063f2fde38b146101b5578063ff3c1a8f146101d1576100a9565b80631122b3a6146100ae578063197a6dc0146100ca5780633bc5de30146100e8578063455f5024146101075780635ef2ea7914610123575b600080fd5b6100c860048036038101906100c39190610bc8565b6101ef565b005b6100d261035d565b6040516100df9190610c10565b60405180910390f35b6100f06103b5565b6040516100fe929190610db1565b60405180910390f35b610121600480360381019061011c9190610e1e565b610502565b005b61013d60048036038101906101389190611182565b610646565b005b6101476108ef565b6040516101549190611238565b60405180910390f35b6101656108f8565b6040516101729190610c10565b60405180910390f35b61018361094c565b6040516101909190611238565b60405180910390f35b6101b360048036038101906101ae9190610bc8565b610956565b005b6101cf60048036038101906101ca9190610bc8565b610a78565b005b6101d9610b4c565b6040516101e69190611262565b60405180910390f35b600360009054906101000a900473ffffffffffffffffffffffffffffffffffffffff1673ffffffffffffffffffffffffffffffffffffffff163373ffffffffffffffffffffffffffffffffffffffff161461027f576040517f08c379a000000000000000000000000000000000000000000000000000000000815260040161027690611300565b60405180910390fd5b600460008273ffffffffffffffffffffffffffffffffffffffff1673ffffffffffffffffffffffffffffffffffffffff16815260200190815260200160002060009054906101000a900460ff1615600460008373ffffffffffffffffffffffffffffffffffffffff1673ffffffffffffffffffffffffffffffffffffffff16815260200190815260200160002060006101000a81548160ff0219169083151502179055507f5bf5439f7f9350bd946ae989209039471cdc88d8524b96de66b8d1f876abd77081604051610352919061132f565b60405180910390a150565b60003373ffffffffffffffffffffffffffffffffffffffff16600360009054906101000a900473ffffffffffffffffffffffffffffffffffffffff1673ffffffffffffffffffffffffffffffffffffffff1614905090565b606080600060015467ffffffffffffffff8111156103d6576103d5610e61565b5b6040519080825280602002602001820160405280156104045781602001602082028036833780820191505090505b509050600060015467ffffffffffffffff81111561042557610424610e61565b5b6040519080825280602002602001820160405280156104535781602001602082028036833780820191505090505b50905060005b6001548110156104f557600560008281526020019081526020016000206000015483828151811061048d5761048c61134a565b5b6020026020010181815250506005600082815260200190815260200160002060010160009054906101000a900460ff168282815181106104d0576104cf61134a565b5b60200260200101901515908115158152505080806104ed906113a8565b915050610459565b5081819350935050509091565b60011515600460003373ffffffffffffffffffffffffffffffffffffffff1673ffffffffffffffffffffffffffffffffffffffff16815260200190815260200160002060009054906101000a900460ff16151514610595576040517f08c379a000000000000000000000000000000000000000000000000000000000815260040161058c90611463565b60405180910390fd5b6005600082815260200190815260200160002060010160009054906101000a900460ff16156005600083815260200190815260200160002060010160006101000a81548160ff0219169083151502179055507fe668c7a227d9261aa1f964bf5a852ab642446a7af6c29405caf8d0e9ce2c11f0816005600084815260200190815260200160002060010160009054906101000a900460ff1660405161063b929190611483565b60405180910390a150565b60011515600460003373ffffffffffffffffffffffffffffffffffffffff1673ffffffffffffffffffffffffffffffffffffffff16815260200190815260200160002060009054906101000a900460ff161515146106d9576040517f08c379a00000000000000000000000000000000000000000000000000000000081526004016106d090611463565b60405180910390fd5b6000805b84518110156108ab57818582815181106106fa576106f961134a565b5b60200260200101511061073157600185828151811061071c5761071b61134a565b5b602002602001015161072e91906114ac565b91505b604051806040016040528085838151811061074f5761074e61134a565b5b6020026020010151815260200184838151811061076f5761076e61134a565b5b60200260200101511515815250600560008784815181106107935761079261134a565b5b602002602001015181526020019081526020016000206000820151816000015560208201518160010160006101000a81548160ff0219169083151502179055509050507feffc45379f030f429cb52689dc4cebc43b405dbefe7a792f36de70c24a21348585828151811061080a5761080961134a565b5b6020026020010151600560008885815181106108295761082861134a565b5b60200260200101518152602001908152602001600020600001546005600089868151811061085a5761085961134a565b5b6020026020010151815260200190815260200160002060010160009054906101000a900460ff1660405161089093929190611502565b60405180910390a180806108a3906113a8565b9150506106dd565b5060015481106108bd57806001819055505b7f8080f39d268bf0b9bc04bcf29765470f11fd7422f9a1523f5286ce23fd1d6f2160405160405180910390a150505050565b60008054905090565b6000600460003373ffffffffffffffffffffffffffffffffffffffff1673ffffffffffffffffffffffffffffffffffffffff16815260200190815260200160002060009054906101000a900460ff16905090565b6000600154905090565b600360009054906101000a900473ffffffffffffffffffffffffffffffffffffffff1673ffffffffffffffffffffffffffffffffffffffff163373ffffffffffffffffffffffffffffffffffffffff16146109e6576040517f08c379a00000000000000000000000000000000000000000000000000000000081526004016109dd90611300565b60405180910390fd5b6001600460008373ffffffffffffffffffffffffffffffffffffffff1673ffffffffffffffffffffffffffffffffffffffff16815260200190815260200160002060006101000a81548160ff0219169083151502179055507f5bf5439f7f9350bd946ae989209039471cdc88d8524b96de66b8d1f876abd77081604051610a6d919061132f565b60405180910390a150565b600360009054906101000a900473ffffffffffffffffffffffffffffffffffffffff1673ffffffffffffffffffffffffffffffffffffffff163373ffffffffffffffffffffffffffffffffffffffff1614610b08576040517f08c379a0000000000000000000000000000000000000000000000000000000008152600401610aff90611300565b60405180910390fd5b80600360006101000a81548173ffffffffffffffffffffffffffffffffffffffff021916908373ffffffffffffffffffffffffffffffffffffffff16021790555050565b6000600254905090565b6000604051905090565b600080fd5b600080fd5b600073ffffffffffffffffffffffffffffffffffffffff82169050919050565b6000610b9582610b6a565b9050919050565b610ba581610b8a565b8114610bb057600080fd5b50565b600081359050610bc281610b9c565b92915050565b600060208284031215610bde57610bdd610b60565b5b6000610bec84828501610bb3565b91505092915050565b60008115159050919050565b610c0a81610bf5565b82525050565b6000602082019050610c256000830184610c01565b92915050565b600081519050919050565b600082825260208201905092915050565b6000819050602082019050919050565b6000819050919050565b610c6a81610c57565b82525050565b6000610c7c8383610c61565b60208301905092915050565b6000602082019050919050565b6000610ca082610c2b565b610caa8185610c36565b9350610cb583610c47565b8060005b83811015610ce6578151610ccd8882610c70565b9750610cd883610c88565b925050600181019050610cb9565b5085935050505092915050565b600081519050919050565b600082825260208201905092915050565b6000819050602082019050919050565b610d2881610bf5565b82525050565b6000610d3a8383610d1f565b60208301905092915050565b6000602082019050919050565b6000610d5e82610cf3565b610d688185610cfe565b9350610d7383610d0f565b8060005b83811015610da4578151610d8b8882610d2e565b9750610d9683610d46565b925050600181019050610d77565b5085935050505092915050565b60006040820190508181036000830152610dcb8185610c95565b90508181036020830152610ddf8184610d53565b90509392505050565b6000819050919050565b610dfb81610de8565b8114610e0657600080fd5b50565b600081359050610e1881610df2565b92915050565b600060208284031215610e3457610e33610b60565b5b6000610e4284828501610e09565b91505092915050565b600080fd5b6000601f19601f8301169050919050565b7f4e487b7100000000000000000000000000000000000000000000000000000000600052604160045260246000fd5b610e9982610e50565b810181811067ffffffffffffffff82111715610eb857610eb7610e61565b5b80604052505050565b6000610ecb610b56565b9050610ed78282610e90565b919050565b600067ffffffffffffffff821115610ef757610ef6610e61565b5b602082029050602081019050919050565b600080fd5b6000610f20610f1b84610edc565b610ec1565b90508083825260208201905060208402830185811115610f4357610f42610f08565b5b835b81811015610f6c5780610f588882610e09565b845260208401935050602081019050610f45565b5050509392505050565b600082601f830112610f8b57610f8a610e4b565b5b8135610f9b848260208601610f0d565b91505092915050565b600067ffffffffffffffff821115610fbf57610fbe610e61565b5b602082029050602081019050919050565b610fd981610c57565b8114610fe457600080fd5b50565b600081359050610ff681610fd0565b92915050565b600061100f61100a84610fa4565b610ec1565b9050808382526020820190506020840283018581111561103257611031610f08565b5b835b8181101561105b57806110478882610fe7565b845260208401935050602081019050611034565b5050509392505050565b600082601f83011261107a57611079610e4b565b5b813561108a848260208601610ffc565b91505092915050565b600067ffffffffffffffff8211156110ae576110ad610e61565b5b602082029050602081019050919050565b6110c881610bf5565b81146110d357600080fd5b50565b6000813590506110e5816110bf565b92915050565b60006110fe6110f984611093565b610ec1565b9050808382526020820190506020840283018581111561112157611120610f08565b5b835b8181101561114a578061113688826110d6565b845260208401935050602081019050611123565b5050509392505050565b600082601f83011261116957611168610e4b565b5b81356111798482602086016110eb565b91505092915050565b60008060006060848603121561119b5761119a610b60565b5b600084013567ffffffffffffffff8111156111b9576111b8610b65565b5b6111c586828701610f76565b935050602084013567ffffffffffffffff8111156111e6576111e5610b65565b5b6111f286828701611065565b925050604084013567ffffffffffffffff81111561121357611212610b65565b5b61121f86828701611154565b9150509250925092565b61123281610de8565b82525050565b600060208201905061124d6000830184611229565b92915050565b61125c81610c57565b82525050565b60006020820190506112776000830184611253565b92915050565b600082825260208201905092915050565b7f54686973206f7065726174696f6e206973207265737472696374656420746f2060008201527f746865206f776e6572206f662074686520636f6e747261637400000000000000602082015250565b60006112ea60398361127d565b91506112f58261128e565b604082019050919050565b60006020820190508181036000830152611319816112dd565b9050919050565b61132981610b8a565b82525050565b60006020820190506113446000830184611320565b92915050565b7f4e487b7100000000000000000000000000000000000000000000000000000000600052603260045260246000fd5b7f4e487b7100000000000000000000000000000000000000000000000000000000600052601160045260246000fd5b60006113b382610de8565b91507fffffffffffffffffffffffffffffffffffffffffffffffffffffffffffffffff8214156113e6576113e5611379565b5b600182019050919050565b7f596f75206d75737420686176652077726974652061636365737320746f20636860008201527f616e67652074686520636f6e7472616374207374617465000000000000000000602082015250565b600061144d60378361127d565b9150611458826113f1565b604082019050919050565b6000602082019050818103600083015261147c81611440565b9050919050565b60006040820190506114986000830185611229565b6114a56020830184610c01565b9392505050565b60006114b782610de8565b91506114c283610de8565b9250827fffffffffffffffffffffffffffffffffffffffffffffffffffffffffffffffff038211156114f7576114f6611379565b5b828201905092915050565b60006060820190506115176000830186611229565b6115246020830185611253565b6115316040830184610c01565b94935050505056fea264697066735822122051e2ebd7b594c84bb7c22ec68972d43c9ccb6ab25c16432d854d6c5216a138b864736f6c63430008090033",
  "linkReferences": {},
  "deployedLinkReferences": {}
}