{
  "_format": "hh-sol-artifact-1",
  "contractName": "TodoList",
  "sourceName": "contracts/TodoList.sol",
  "abi": [
    {
      "inputs": [
        {
          "internalType": "bytes32",
          "name": "_title",
          "type": "bytes32"
        },
        {
          "internalType": "address",
          "name": "_owner",
          "type": "address"
        },
        {
          "internalType": "bool",
          "name": "_isPrivate",
          "type": "bool"
        }
      ],
      "stateMutability": "nonpayable",
      "type": "constructor"
    },
    {
      "anonymous": false,
      "inputs": [],
      "name": "ChangesSaved",
      "type": "event"
    },
    {
      "anonymous": false,
      "inputs": [
        {
          "indexed": false,
          "internalType": "address",
          "name": "addr",
          "type": "address"
        }
      ],
      "name": "ReadAccessModified",
      "type": "event"
    },
    {
      "anonymous": false,
      "inputs": [
        {
          "indexed": false,
          "internalType": "uint256",
          "name": "id",
          "type": "uint256"
        },
        {
          "indexed": false,
          "internalType": "bytes32",
          "name": "content",
          "type": "bytes32"
        },
        {
          "indexed": false,
          "internalType": "bool",
          "name": "status",
          "type": "bool"
        }
      ],
      "name": "TaskCreated",
      "type": "event"
    },
    {
      "anonymous": false,
      "inputs": [
        {
          "indexed": false,
          "internalType": "uint256",
          "name": "id",
          "type": "uint256"
        },
        {
          "indexed": false,
          "internalType": "bool",
          "name": "completed",
          "type": "bool"
        }
      ],
      "name": "TaskToggled",
      "type": "event"
    },
    {
      "anonymous": false,
      "inputs": [
        {
          "indexed": false,
          "internalType": "address",
          "name": "addr",
          "type": "address"
        }
      ],
      "name": "WriteAccessModified",
      "type": "event"
    },
    {
      "inputs": [],
      "name": "getData",
      "outputs": [
        {
          "internalType": "bytes32[]",
          "name": "",
          "type": "bytes32[]"
        },
        {
          "internalType": "bool[]",
          "name": "",
          "type": "bool[]"
        }
      ],
      "stateMutability": "view",
      "type": "function"
    },
    {
      "inputs": [],
      "name": "getOwnershipStatus",
      "outputs": [
        {
          "internalType": "bool",
          "name": "",
          "type": "bool"
        }
      ],
      "stateMutability": "view",
      "type": "function"
    },
    {
      "inputs": [],
      "name": "getPrivacyStatus",
      "outputs": [
        {
          "internalType": "bool",
          "name": "",
          "type": "bool"
        }
      ],
      "stateMutability": "view",
      "type": "function"
    },
    {
      "inputs": [],
      "name": "getReadStatus",
      "outputs": [
        {
          "internalType": "bool",
          "name": "",
          "type": "bool"
        }
      ],
      "stateMutability": "view",
      "type": "function"
    },
    {
      "inputs": [],
      "name": "getTaskCount",
      "outputs": [
        {
          "internalType": "uint256",
          "name": "",
          "type": "uint256"
        }
      ],
      "stateMutability": "view",
      "type": "function"
    },
    {
      "inputs": [],
      "name": "getTitle",
      "outputs": [
        {
          "internalType": "bytes32",
          "name": "",
          "type": "bytes32"
        }
      ],
      "stateMutability": "view",
      "type": "function"
    },
    {
      "inputs": [],
      "name": "getWriteStatus",
      "outputs": [
        {
          "internalType": "bool",
          "name": "",
          "type": "bool"
        }
      ],
      "stateMutability": "view",
      "type": "function"
    },
    {
      "inputs": [
        {
          "internalType": "address",
          "name": "addr",
          "type": "address"
        }
      ],
      "name": "grantReadAccess",
      "outputs": [],
      "stateMutability": "nonpayable",
      "type": "function"
    },
    {
      "inputs": [
        {
          "internalType": "address",
          "name": "addr",
          "type": "address"
        }
      ],
      "name": "grantWriteAccess",
      "outputs": [],
      "stateMutability": "nonpayable",
      "type": "function"
    },
    {
      "inputs": [
        {
          "internalType": "uint256[]",
          "name": "_ids",
          "type": "uint256[]"
        },
        {
          "internalType": "bytes32[]",
          "name": "_contents",
          "type": "bytes32[]"
        },
        {
          "internalType": "bool[]",
          "name": "_statuses",
          "type": "bool[]"
        }
      ],
      "name": "saveChanges",
      "outputs": [],
      "stateMutability": "nonpayable",
      "type": "function"
    },
    {
      "inputs": [
        {
          "internalType": "uint256",
          "name": "id",
          "type": "uint256"
        }
      ],
      "name": "toggleCompleted",
      "outputs": [],
      "stateMutability": "nonpayable",
      "type": "function"
    },
    {
      "inputs": [],
      "name": "togglePrivacy",
      "outputs": [],
      "stateMutability": "nonpayable",
      "type": "function"
    },
    {
      "inputs": [
        {
          "internalType": "address",
          "name": "addr",
          "type": "address"
        }
      ],
      "name": "toggleReadAccess",
      "outputs": [],
      "stateMutability": "nonpayable",
      "type": "function"
    },
    {
      "inputs": [
        {
          "internalType": "address",
          "name": "addr",
          "type": "address"
        }
      ],
      "name": "toggleWriteAccess",
      "outputs": [],
      "stateMutability": "nonpayable",
      "type": "function"
    },
    {
      "inputs": [
        {
          "internalType": "address",
          "name": "transferAddr",
          "type": "address"
        }
      ],
      "name": "transferOwnership",
      "outputs": [],
      "stateMutability": "nonpayable",
      "type": "function"
    }
  ],
  "bytecode": "0x60806040523480156200001157600080fd5b5060405162001d0838038062001d088339818101604052810190620000379190620001fe565b81600260006101000a81548173ffffffffffffffffffffffffffffffffffffffff021916908373ffffffffffffffffffffffffffffffffffffffff1602179055508260018190555080600260146101000a81548160ff021916908315150217905550600160036000600260009054906101000a900473ffffffffffffffffffffffffffffffffffffffff1673ffffffffffffffffffffffffffffffffffffffff1673ffffffffffffffffffffffffffffffffffffffff16815260200190815260200160002060006101000a81548160ff0219169083151502179055505050506200025a565b600080fd5b6000819050919050565b620001368162000121565b81146200014257600080fd5b50565b60008151905062000156816200012b565b92915050565b600073ffffffffffffffffffffffffffffffffffffffff82169050919050565b600062000189826200015c565b9050919050565b6200019b816200017c565b8114620001a757600080fd5b50565b600081519050620001bb8162000190565b92915050565b60008115159050919050565b620001d881620001c1565b8114620001e457600080fd5b50565b600081519050620001f881620001cd565b92915050565b6000806000606084860312156200021a57620002196200011c565b5b60006200022a8682870162000145565b93505060206200023d86828701620001aa565b92505060406200025086828701620001e7565b9150509250925092565b611a9e806200026a6000396000f3fe608060405234801561001057600080fd5b50600436106100f55760003560e01c80638376800e11610097578063c17a340e11610066578063c17a340e14610227578063e5a5e6fe14610245578063f2fde38b14610261578063ff3c1a8f1461027d576100f5565b80638376800e146101b3578063a30f75c9146101cf578063a68d489b146101ed578063b42e17fb1461020b576100f5565b80633bc5de30116100d35780633bc5de301461013e578063455f50241461015d578063564047ef146101795780635ef2ea7914610197576100f5565b806306cde382146100fa5780631122b3a614610104578063197a6dc014610120575b600080fd5b61010261029b565b005b61011e600480360381019061011991906110f7565b610357565b005b6101286104c5565b604051610135919061113f565b60405180910390f35b61014661051d565b6040516101549291906112e0565b60405180910390f35b6101776004803603810190610172919061134d565b610668565b005b6101816107ac565b60405161018e919061113f565b60405180910390f35b6101b160048036038101906101ac91906116b1565b610826565b005b6101cd60048036038101906101c891906110f7565b610acf565b005b6101d7610c3d565b6040516101e4919061113f565b60405180910390f35b6101f5610c91565b604051610202919061113f565b60405180910390f35b610225600480360381019061022091906110f7565b610ca8565b005b61022f610dca565b60405161023c9190611767565b60405180910390f35b61025f600480360381019061025a91906110f7565b610dd3565b005b61027b600480360381019061027691906110f7565b610fa7565b005b61028561107b565b6040516102929190611791565b60405180910390f35b600260009054906101000a900473ffffffffffffffffffffffffffffffffffffffff1673ffffffffffffffffffffffffffffffffffffffff163373ffffffffffffffffffffffffffffffffffffffff161461032b576040517f08c379a00000000000000000000000000000000000000000000000000000000081526004016103229061182f565b60405180910390fd5b600260149054906101000a900460ff1615600260146101000a81548160ff021916908315150217905550565b600260009054906101000a900473ffffffffffffffffffffffffffffffffffffffff1673ffffffffffffffffffffffffffffffffffffffff163373ffffffffffffffffffffffffffffffffffffffff16146103e7576040517f08c379a00000000000000000000000000000000000000000000000000000000081526004016103de9061182f565b60405180910390fd5b600360008273ffffffffffffffffffffffffffffffffffffffff1673ffffffffffffffffffffffffffffffffffffffff16815260200190815260200160002060009054906101000a900460ff1615600360008373ffffffffffffffffffffffffffffffffffffffff1673ffffffffffffffffffffffffffffffffffffffff16815260200190815260200160002060006101000a81548160ff0219169083151502179055507f5bf5439f7f9350bd946ae989209039471cdc88d8524b96de66b8d1f876abd770816040516104ba919061185e565b60405180910390a150565b60003373ffffffffffffffffffffffffffffffffffffffff16600260009054906101000a900473ffffffffffffffffffffffffffffffffffffffff1673ffffffffffffffffffffffffffffffffffffffff1614905090565b6060806000805467ffffffffffffffff81111561053d5761053c611390565b5b60405190808252806020026020018201604052801561056b5781602001602082028036833780820191505090505b5090506000805467ffffffffffffffff81111561058b5761058a611390565b5b6040519080825280602002602001820160405280156105b95781602001602082028036833780820191505090505b50905060005b60005481101561065b5760056000828152602001908152602001600020600001548382815181106105f3576105f2611879565b5b6020026020010181815250506005600082815260200190815260200160002060010160009054906101000a900460ff1682828151811061063657610635611879565b5b6020026020010190151590811515815250508080610653906118d7565b9150506105bf565b5081819350935050509091565b60011515600360003373ffffffffffffffffffffffffffffffffffffffff1673ffffffffffffffffffffffffffffffffffffffff16815260200190815260200160002060009054906101000a900460ff161515146106fb576040517f08c379a00000000000000000000000000000000000000000000000000000000081526004016106f290611992565b60405180910390fd5b6005600082815260200190815260200160002060010160009054906101000a900460ff16156005600083815260200190815260200160002060010160006101000a81548160ff0219169083151502179055507fe668c7a227d9261aa1f964bf5a852ab642446a7af6c29405caf8d0e9ce2c11f0816005600084815260200190815260200160002060010160009054906101000a900460ff166040516107a19291906119b2565b60405180910390a150565b600060011515600260149054906101000a900460ff161515141561081e57600460003373ffffffffffffffffffffffffffffffffffffffff1673ffffffffffffffffffffffffffffffffffffffff16815260200190815260200160002060009054906101000a900460ff169050610823565b600190505b90565b60011515600360003373ffffffffffffffffffffffffffffffffffffffff1673ffffffffffffffffffffffffffffffffffffffff16815260200190815260200160002060009054906101000a900460ff161515146108b9576040517f08c379a00000000000000000000000000000000000000000000000000000000081526004016108b090611992565b60405180910390fd5b6000805b8451811015610a8b57818582815181106108da576108d9611879565b5b6020026020010151106109115760018582815181106108fc576108fb611879565b5b602002602001015161090e91906119db565b91505b604051806040016040528085838151811061092f5761092e611879565b5b6020026020010151815260200184838151811061094f5761094e611879565b5b602002602001015115158152506005600087848151811061097357610972611879565b5b602002602001015181526020019081526020016000206000820151816000015560208201518160010160006101000a81548160ff0219169083151502179055509050507feffc45379f030f429cb52689dc4cebc43b405dbefe7a792f36de70c24a2134858582815181106109ea576109e9611879565b5b602002602001015160056000888581518110610a0957610a08611879565b5b602002602001015181526020019081526020016000206000015460056000898681518110610a3a57610a39611879565b5b6020026020010151815260200190815260200160002060010160009054906101000a900460ff16604051610a7093929190611a31565b60405180910390a18080610a83906118d7565b9150506108bd565b506000548110610a9d57806000819055505b7f8080f39d268bf0b9bc04bcf29765470f11fd7422f9a1523f5286ce23fd1d6f2160405160405180910390a150505050565b600260009054906101000a900473ffffffffffffffffffffffffffffffffffffffff1673ffffffffffffffffffffffffffffffffffffffff163373ffffffffffffffffffffffffffffffffffffffff1614610b5f576040517f08c379a0000000000000000000000000000000000000000000000000000000008152600401610b569061182f565b60405180910390fd5b600460008273ffffffffffffffffffffffffffffffffffffffff1673ffffffffffffffffffffffffffffffffffffffff16815260200190815260200160002060009054906101000a900460ff1615600460008373ffffffffffffffffffffffffffffffffffffffff1673ffffffffffffffffffffffffffffffffffffffff16815260200190815260200160002060006101000a81548160ff0219169083151502179055507f5bf5439f7f9350bd946ae989209039471cdc88d8524b96de66b8d1f876abd77081604051610c32919061185e565b60405180910390a150565b6000600360003373ffffffffffffffffffffffffffffffffffffffff1673ffffffffffffffffffffffffffffffffffffffff16815260200190815260200160002060009054906101000a900460ff16905090565b6000600260149054906101000a900460ff16905090565b600260009054906101000a900473ffffffffffffffffffffffffffffffffffffffff1673ffffffffffffffffffffffffffffffffffffffff163373ffffffffffffffffffffffffffffffffffffffff1614610d38576040517f08c379a0000000000000000000000000000000000000000000000000000000008152600401610d2f9061182f565b60405180910390fd5b6001600460008373ffffffffffffffffffffffffffffffffffffffff1673ffffffffffffffffffffffffffffffffffffffff16815260200190815260200160002060006101000a81548160ff0219169083151502179055507f5bf5439f7f9350bd946ae989209039471cdc88d8524b96de66b8d1f876abd77081604051610dbf919061185e565b60405180910390a150565b60008054905090565b600260009054906101000a900473ffffffffffffffffffffffffffffffffffffffff1673ffffffffffffffffffffffffffffffffffffffff163373ffffffffffffffffffffffffffffffffffffffff1614610e63576040517f08c379a0000000000000000000000000000000000000000000000000000000008152600401610e5a9061182f565b60405180910390fd5b6001600360008373ffffffffffffffffffffffffffffffffffffffff1673ffffffffffffffffffffffffffffffffffffffff16815260200190815260200160002060006101000a81548160ff02191690831515021790555060001515600460008373ffffffffffffffffffffffffffffffffffffffff1673ffffffffffffffffffffffffffffffffffffffff16815260200190815260200160002060009054906101000a900460ff1615151415610f6d576001600460008373ffffffffffffffffffffffffffffffffffffffff1673ffffffffffffffffffffffffffffffffffffffff16815260200190815260200160002060006101000a81548160ff0219169083151502179055505b7f5bf5439f7f9350bd946ae989209039471cdc88d8524b96de66b8d1f876abd77081604051610f9c919061185e565b60405180910390a150565b600260009054906101000a900473ffffffffffffffffffffffffffffffffffffffff1673ffffffffffffffffffffffffffffffffffffffff163373ffffffffffffffffffffffffffffffffffffffff1614611037576040517f08c379a000000000000000000000000000000000000000000000000000000000815260040161102e9061182f565b60405180910390fd5b80600260006101000a81548173ffffffffffffffffffffffffffffffffffffffff021916908373ffffffffffffffffffffffffffffffffffffffff16021790555050565b6000600154905090565b6000604051905090565b600080fd5b600080fd5b600073ffffffffffffffffffffffffffffffffffffffff82169050919050565b60006110c482611099565b9050919050565b6110d4816110b9565b81146110df57600080fd5b50565b6000813590506110f1816110cb565b92915050565b60006020828403121561110d5761110c61108f565b5b600061111b848285016110e2565b91505092915050565b60008115159050919050565b61113981611124565b82525050565b60006020820190506111546000830184611130565b92915050565b600081519050919050565b600082825260208201905092915050565b6000819050602082019050919050565b6000819050919050565b61119981611186565b82525050565b60006111ab8383611190565b60208301905092915050565b6000602082019050919050565b60006111cf8261115a565b6111d98185611165565b93506111e483611176565b8060005b838110156112155781516111fc888261119f565b9750611207836111b7565b9250506001810190506111e8565b5085935050505092915050565b600081519050919050565b600082825260208201905092915050565b6000819050602082019050919050565b61125781611124565b82525050565b6000611269838361124e565b60208301905092915050565b6000602082019050919050565b600061128d82611222565b611297818561122d565b93506112a28361123e565b8060005b838110156112d35781516112ba888261125d565b97506112c583611275565b9250506001810190506112a6565b5085935050505092915050565b600060408201905081810360008301526112fa81856111c4565b9050818103602083015261130e8184611282565b90509392505050565b6000819050919050565b61132a81611317565b811461133557600080fd5b50565b60008135905061134781611321565b92915050565b6000602082840312156113635761136261108f565b5b600061137184828501611338565b91505092915050565b600080fd5b6000601f19601f8301169050919050565b7f4e487b7100000000000000000000000000000000000000000000000000000000600052604160045260246000fd5b6113c88261137f565b810181811067ffffffffffffffff821117156113e7576113e6611390565b5b80604052505050565b60006113fa611085565b905061140682826113bf565b919050565b600067ffffffffffffffff82111561142657611425611390565b5b602082029050602081019050919050565b600080fd5b600061144f61144a8461140b565b6113f0565b9050808382526020820190506020840283018581111561147257611471611437565b5b835b8181101561149b57806114878882611338565b845260208401935050602081019050611474565b5050509392505050565b600082601f8301126114ba576114b961137a565b5b81356114ca84826020860161143c565b91505092915050565b600067ffffffffffffffff8211156114ee576114ed611390565b5b602082029050602081019050919050565b61150881611186565b811461151357600080fd5b50565b600081359050611525816114ff565b92915050565b600061153e611539846114d3565b6113f0565b9050808382526020820190506020840283018581111561156157611560611437565b5b835b8181101561158a57806115768882611516565b845260208401935050602081019050611563565b5050509392505050565b600082601f8301126115a9576115a861137a565b5b81356115b984826020860161152b565b91505092915050565b600067ffffffffffffffff8211156115dd576115dc611390565b5b602082029050602081019050919050565b6115f781611124565b811461160257600080fd5b50565b600081359050611614816115ee565b92915050565b600061162d611628846115c2565b6113f0565b905080838252602082019050602084028301858111156116505761164f611437565b5b835b8181101561167957806116658882611605565b845260208401935050602081019050611652565b5050509392505050565b600082601f8301126116985761169761137a565b5b81356116a884826020860161161a565b91505092915050565b6000806000606084860312156116ca576116c961108f565b5b600084013567ffffffffffffffff8111156116e8576116e7611094565b5b6116f4868287016114a5565b935050602084013567ffffffffffffffff81111561171557611714611094565b5b61172186828701611594565b925050604084013567ffffffffffffffff81111561174257611741611094565b5b61174e86828701611683565b9150509250925092565b61176181611317565b82525050565b600060208201905061177c6000830184611758565b92915050565b61178b81611186565b82525050565b60006020820190506117a66000830184611782565b92915050565b600082825260208201905092915050565b7f54686973206f7065726174696f6e206973207265737472696374656420746f2060008201527f746865206f776e6572206f662074686520636f6e747261637400000000000000602082015250565b60006118196039836117ac565b9150611824826117bd565b604082019050919050565b600060208201905081810360008301526118488161180c565b9050919050565b611858816110b9565b82525050565b6000602082019050611873600083018461184f565b92915050565b7f4e487b7100000000000000000000000000000000000000000000000000000000600052603260045260246000fd5b7f4e487b7100000000000000000000000000000000000000000000000000000000600052601160045260246000fd5b60006118e282611317565b91507fffffffffffffffffffffffffffffffffffffffffffffffffffffffffffffffff821415611915576119146118a8565b5b600182019050919050565b7f596f75206d75737420686176652077726974652061636365737320746f20636860008201527f616e67652074686520636f6e7472616374207374617465000000000000000000602082015250565b600061197c6037836117ac565b915061198782611920565b604082019050919050565b600060208201905081810360008301526119ab8161196f565b9050919050565b60006040820190506119c76000830185611758565b6119d46020830184611130565b9392505050565b60006119e682611317565b91506119f183611317565b9250827fffffffffffffffffffffffffffffffffffffffffffffffffffffffffffffffff03821115611a2657611a256118a8565b5b828201905092915050565b6000606082019050611a466000830186611758565b611a536020830185611782565b611a606040830184611130565b94935050505056fea26469706673582212205a1ba5b2fa1cc7da4f9b1afd22d3ae2fd420b2a54ebb47d82b4dd8e2f7956a5564736f6c63430008090033",
  "linkReferences": {},
  "deployedLinkReferences": {}
}