{
  "_format": "hh-sol-artifact-1",
  "contractName": "TodoList",
  "sourceName": "contracts/TodoList.sol",
  "abi": [
    {
      "inputs": [
        {
          "internalType": "string",
          "name": "_title",
          "type": "string"
        },
        {
          "internalType": "address",
          "name": "_owner",
          "type": "address"
        },
        {
          "internalType": "uint256",
          "name": "_index",
          "type": "uint256"
        }
      ],
      "stateMutability": "nonpayable",
      "type": "constructor"
    },
    {
      "anonymous": false,
      "inputs": [],
      "name": "ChangesSaved",
      "type": "event"
    },
    {
      "anonymous": false,
      "inputs": [
        {
          "indexed": false,
          "internalType": "uint256",
          "name": "id",
          "type": "uint256"
        },
        {
          "indexed": false,
          "internalType": "string",
          "name": "content",
          "type": "string"
        },
        {
          "indexed": false,
          "internalType": "bool",
          "name": "status",
          "type": "bool"
        }
      ],
      "name": "TaskCreated",
      "type": "event"
    },
    {
      "anonymous": false,
      "inputs": [
        {
          "indexed": false,
          "internalType": "uint256",
          "name": "id",
          "type": "uint256"
        },
        {
          "indexed": false,
          "internalType": "bool",
          "name": "completed",
          "type": "bool"
        }
      ],
      "name": "TaskToggled",
      "type": "event"
    },
    {
      "inputs": [],
      "name": "getData",
      "outputs": [
        {
          "internalType": "string[]",
          "name": "",
          "type": "string[]"
        },
        {
          "internalType": "bool[]",
          "name": "",
          "type": "bool[]"
        }
      ],
      "stateMutability": "view",
      "type": "function"
    },
    {
      "inputs": [],
      "name": "getIndex",
      "outputs": [
        {
          "internalType": "uint256",
          "name": "",
          "type": "uint256"
        }
      ],
      "stateMutability": "view",
      "type": "function"
    },
    {
      "inputs": [],
      "name": "getOwnershipStatus",
      "outputs": [
        {
          "internalType": "bool",
          "name": "",
          "type": "bool"
        }
      ],
      "stateMutability": "view",
      "type": "function"
    },
    {
      "inputs": [],
      "name": "getTaskCount",
      "outputs": [
        {
          "internalType": "uint256",
          "name": "",
          "type": "uint256"
        }
      ],
      "stateMutability": "view",
      "type": "function"
    },
    {
      "inputs": [],
      "name": "getTitle",
      "outputs": [
        {
          "internalType": "string",
          "name": "",
          "type": "string"
        }
      ],
      "stateMutability": "view",
      "type": "function"
    },
    {
      "inputs": [],
      "name": "getWriteStatus",
      "outputs": [
        {
          "internalType": "bool",
          "name": "",
          "type": "bool"
        }
      ],
      "stateMutability": "view",
      "type": "function"
    },
    {
      "inputs": [
        {
          "internalType": "address",
          "name": "addr",
          "type": "address"
        }
      ],
      "name": "grantWriteAccess",
      "outputs": [],
      "stateMutability": "nonpayable",
      "type": "function"
    },
    {
      "inputs": [
        {
          "internalType": "uint256[]",
          "name": "_ids",
          "type": "uint256[]"
        },
        {
          "internalType": "string[]",
          "name": "_contents",
          "type": "string[]"
        },
        {
          "internalType": "bool[]",
          "name": "_statuses",
          "type": "bool[]"
        }
      ],
      "name": "saveChanges",
      "outputs": [],
      "stateMutability": "nonpayable",
      "type": "function"
    },
    {
      "inputs": [
        {
          "internalType": "uint256",
          "name": "id",
          "type": "uint256"
        }
      ],
      "name": "toggleCompleted",
      "outputs": [],
      "stateMutability": "nonpayable",
      "type": "function"
    },
    {
      "inputs": [
        {
          "internalType": "address",
          "name": "addr",
          "type": "address"
        }
      ],
      "name": "toggleWriteAccess",
      "outputs": [],
      "stateMutability": "nonpayable",
      "type": "function"
    },
    {
      "inputs": [
        {
          "internalType": "address",
          "name": "transferAddr",
          "type": "address"
        }
      ],
      "name": "transferOwnership",
      "outputs": [],
      "stateMutability": "nonpayable",
      "type": "function"
    }
  ],
  "bytecode": "0x608060405260006001553480156200001657600080fd5b5060405162001de738038062001de783398181016040528101906200003c91906200040d565b8060008190555081600360006101000a81548173ffffffffffffffffffffffffffffffffffffffff021916908373ffffffffffffffffffffffffffffffffffffffff16021790555082600290805190602001906200009c92919062000120565b50600160046000600360009054906101000a900473ffffffffffffffffffffffffffffffffffffffff1673ffffffffffffffffffffffffffffffffffffffff1673ffffffffffffffffffffffffffffffffffffffff16815260200190815260200160002060006101000a81548160ff021916908315150217905550505050620004ed565b8280546200012e90620004b7565b90600052602060002090601f0160209004810192826200015257600085556200019e565b82601f106200016d57805160ff19168380011785556200019e565b828001600101855582156200019e579182015b828111156200019d57825182559160200191906001019062000180565b5b509050620001ad9190620001b1565b5090565b5b80821115620001cc576000816000905550600101620001b2565b5090565b6000604051905090565b600080fd5b600080fd5b600080fd5b600080fd5b6000601f19601f8301169050919050565b7f4e487b7100000000000000000000000000000000000000000000000000000000600052604160045260246000fd5b6200023982620001ee565b810181811067ffffffffffffffff821117156200025b576200025a620001ff565b5b80604052505050565b600062000270620001d0565b90506200027e82826200022e565b919050565b600067ffffffffffffffff821115620002a157620002a0620001ff565b5b620002ac82620001ee565b9050602081019050919050565b60005b83811015620002d9578082015181840152602081019050620002bc565b83811115620002e9576000848401525b50505050565b600062000306620003008462000283565b62000264565b905082815260208101848484011115620003255762000324620001e9565b5b62000332848285620002b9565b509392505050565b600082601f830112620003525762000351620001e4565b5b815162000364848260208601620002ef565b91505092915050565b600073ffffffffffffffffffffffffffffffffffffffff82169050919050565b60006200039a826200036d565b9050919050565b620003ac816200038d565b8114620003b857600080fd5b50565b600081519050620003cc81620003a1565b92915050565b6000819050919050565b620003e781620003d2565b8114620003f357600080fd5b50565b6000815190506200040781620003dc565b92915050565b600080600060608486031215620004295762000428620001da565b5b600084015167ffffffffffffffff8111156200044a5762000449620001df565b5b62000458868287016200033a565b93505060206200046b86828701620003bb565b92505060406200047e86828701620003f6565b9150509250925092565b7f4e487b7100000000000000000000000000000000000000000000000000000000600052602260045260246000fd5b60006002820490506001821680620004d057607f821691505b60208210811415620004e757620004e662000488565b5b50919050565b6118ea80620004fd6000396000f3fe608060405234801561001057600080fd5b50600436106100a95760003560e01c806397a1689c1161007157806397a1689c14610141578063a30f75c91461015d578063c17a340e1461017b578063e5a5e6fe14610199578063f2fde38b146101b5578063ff3c1a8f146101d1576100a9565b80631122b3a6146100ae578063197a6dc0146100ca5780633bc5de30146100e8578063455f50241461010757806381045ead14610123575b600080fd5b6100c860048036038101906100c39190610d16565b6101ef565b005b6100d2610326565b6040516100df9190610d5e565b60405180910390f35b6100f061037e565b6040516100fe929190610f92565b60405180910390f35b610121600480360381019061011c9190610fff565b610557565b005b61012b61069b565b604051610138919061103b565b60405180910390f35b61015b60048036038101906101569190611423565b6106a4565b005b610165610952565b6040516101729190610d5e565b60405180910390f35b6101836109a6565b604051610190919061103b565b60405180910390f35b6101b360048036038101906101ae9190610d16565b6109b0565b005b6101cf60048036038101906101ca9190610d16565b610a9b565b005b6101d9610b6f565b6040516101e69190611514565b60405180910390f35b600360009054906101000a900473ffffffffffffffffffffffffffffffffffffffff1673ffffffffffffffffffffffffffffffffffffffff163373ffffffffffffffffffffffffffffffffffffffff161461027f576040517f08c379a0000000000000000000000000000000000000000000000000000000008152600401610276906115a8565b60405180910390fd5b600460008273ffffffffffffffffffffffffffffffffffffffff1673ffffffffffffffffffffffffffffffffffffffff16815260200190815260200160002060009054906101000a900460ff1615600460008373ffffffffffffffffffffffffffffffffffffffff1673ffffffffffffffffffffffffffffffffffffffff16815260200190815260200160002060006101000a81548160ff02191690831515021790555050565b60003373ffffffffffffffffffffffffffffffffffffffff16600360009054906101000a900473ffffffffffffffffffffffffffffffffffffffff1673ffffffffffffffffffffffffffffffffffffffff1614905090565b606080600060015467ffffffffffffffff81111561039f5761039e61105b565b5b6040519080825280602002602001820160405280156103d257816020015b60608152602001906001900390816103bd5790505b509050600060015467ffffffffffffffff8111156103f3576103f261105b565b5b6040519080825280602002602001820160405280156104215781602001602082028036833780820191505090505b50905060005b60015481101561054a57600560008281526020019081526020016000206000018054610452906115f7565b80601f016020809104026020016040519081016040528092919081815260200182805461047e906115f7565b80156104cb5780601f106104a0576101008083540402835291602001916104cb565b820191906000526020600020905b8154815290600101906020018083116104ae57829003601f168201915b50505050508382815181106104e3576104e2611629565b5b60200260200101819052506005600082815260200190815260200160002060010160009054906101000a900460ff1682828151811061052557610524611629565b5b602002602001019015159081151581525050808061054290611687565b915050610427565b5081819350935050509091565b60011515600460003373ffffffffffffffffffffffffffffffffffffffff1673ffffffffffffffffffffffffffffffffffffffff16815260200190815260200160002060009054906101000a900460ff161515146105ea576040517f08c379a00000000000000000000000000000000000000000000000000000000081526004016105e190611742565b60405180910390fd5b6005600082815260200190815260200160002060010160009054906101000a900460ff16156005600083815260200190815260200160002060010160006101000a81548160ff0219169083151502179055507fe668c7a227d9261aa1f964bf5a852ab642446a7af6c29405caf8d0e9ce2c11f0816005600084815260200190815260200160002060010160009054906101000a900460ff16604051610690929190611762565b60405180910390a150565b60008054905090565b60011515600460003373ffffffffffffffffffffffffffffffffffffffff1673ffffffffffffffffffffffffffffffffffffffff16815260200190815260200160002060009054906101000a900460ff16151514610737576040517f08c379a000000000000000000000000000000000000000000000000000000000815260040161072e90611742565b60405180910390fd5b60005b83518110156109205760015484828151811061075957610758611629565b5b60200260200101511061079457600184828151811061077b5761077a611629565b5b602002602001015161078d919061178b565b6001819055505b60405180604001604052808483815181106107b2576107b1611629565b5b602002602001015181526020018383815181106107d2576107d1611629565b5b60200260200101511515815250600560008684815181106107f6576107f5611629565b5b602002602001015181526020019081526020016000206000820151816000019080519060200190610828929190610c01565b5060208201518160010160006101000a81548160ff0219169083151502179055509050507f05d0fb833127fc08168556d0e7ca9554fc3f6bc843b3b7d2bf1c35aea6bab6608482815181106108805761087f611629565b5b60200260200101516005600087858151811061089f5761089e611629565b5b60200260200101518152602001908152602001600020600001600560008886815181106108cf576108ce611629565b5b6020026020010151815260200190815260200160002060010160009054906101000a900460ff1660405161090593929190611876565b60405180910390a1808061091890611687565b91505061073a565b507f8080f39d268bf0b9bc04bcf29765470f11fd7422f9a1523f5286ce23fd1d6f2160405160405180910390a1505050565b6000600460003373ffffffffffffffffffffffffffffffffffffffff1673ffffffffffffffffffffffffffffffffffffffff16815260200190815260200160002060009054906101000a900460ff16905090565b6000600154905090565b600360009054906101000a900473ffffffffffffffffffffffffffffffffffffffff1673ffffffffffffffffffffffffffffffffffffffff163373ffffffffffffffffffffffffffffffffffffffff1614610a40576040517f08c379a0000000000000000000000000000000000000000000000000000000008152600401610a37906115a8565b60405180910390fd5b6001600460008373ffffffffffffffffffffffffffffffffffffffff1673ffffffffffffffffffffffffffffffffffffffff16815260200190815260200160002060006101000a81548160ff02191690831515021790555050565b600360009054906101000a900473ffffffffffffffffffffffffffffffffffffffff1673ffffffffffffffffffffffffffffffffffffffff163373ffffffffffffffffffffffffffffffffffffffff1614610b2b576040517f08c379a0000000000000000000000000000000000000000000000000000000008152600401610b22906115a8565b60405180910390fd5b80600360006101000a81548173ffffffffffffffffffffffffffffffffffffffff021916908373ffffffffffffffffffffffffffffffffffffffff16021790555050565b606060028054610b7e906115f7565b80601f0160208091040260200160405190810160405280929190818152602001828054610baa906115f7565b8015610bf75780601f10610bcc57610100808354040283529160200191610bf7565b820191906000526020600020905b815481529060010190602001808311610bda57829003601f168201915b5050505050905090565b828054610c0d906115f7565b90600052602060002090601f016020900481019282610c2f5760008555610c76565b82601f10610c4857805160ff1916838001178555610c76565b82800160010185558215610c76579182015b82811115610c75578251825591602001919060010190610c5a565b5b509050610c839190610c87565b5090565b5b80821115610ca0576000816000905550600101610c88565b5090565b6000604051905090565b600080fd5b600080fd5b600073ffffffffffffffffffffffffffffffffffffffff82169050919050565b6000610ce382610cb8565b9050919050565b610cf381610cd8565b8114610cfe57600080fd5b50565b600081359050610d1081610cea565b92915050565b600060208284031215610d2c57610d2b610cae565b5b6000610d3a84828501610d01565b91505092915050565b60008115159050919050565b610d5881610d43565b82525050565b6000602082019050610d736000830184610d4f565b92915050565b600081519050919050565b600082825260208201905092915050565b6000819050602082019050919050565b600081519050919050565b600082825260208201905092915050565b60005b83811015610ddf578082015181840152602081019050610dc4565b83811115610dee576000848401525b50505050565b6000601f19601f8301169050919050565b6000610e1082610da5565b610e1a8185610db0565b9350610e2a818560208601610dc1565b610e3381610df4565b840191505092915050565b6000610e4a8383610e05565b905092915050565b6000602082019050919050565b6000610e6a82610d79565b610e748185610d84565b935083602082028501610e8685610d95565b8060005b85811015610ec25784840389528151610ea38582610e3e565b9450610eae83610e52565b925060208a01995050600181019050610e8a565b50829750879550505050505092915050565b600081519050919050565b600082825260208201905092915050565b6000819050602082019050919050565b610f0981610d43565b82525050565b6000610f1b8383610f00565b60208301905092915050565b6000602082019050919050565b6000610f3f82610ed4565b610f498185610edf565b9350610f5483610ef0565b8060005b83811015610f85578151610f6c8882610f0f565b9750610f7783610f27565b925050600181019050610f58565b5085935050505092915050565b60006040820190508181036000830152610fac8185610e5f565b90508181036020830152610fc08184610f34565b90509392505050565b6000819050919050565b610fdc81610fc9565b8114610fe757600080fd5b50565b600081359050610ff981610fd3565b92915050565b60006020828403121561101557611014610cae565b5b600061102384828501610fea565b91505092915050565b61103581610fc9565b82525050565b6000602082019050611050600083018461102c565b92915050565b600080fd5b7f4e487b7100000000000000000000000000000000000000000000000000000000600052604160045260246000fd5b61109382610df4565b810181811067ffffffffffffffff821117156110b2576110b161105b565b5b80604052505050565b60006110c5610ca4565b90506110d1828261108a565b919050565b600067ffffffffffffffff8211156110f1576110f061105b565b5b602082029050602081019050919050565b600080fd5b600061111a611115846110d6565b6110bb565b9050808382526020820190506020840283018581111561113d5761113c611102565b5b835b8181101561116657806111528882610fea565b84526020840193505060208101905061113f565b5050509392505050565b600082601f83011261118557611184611056565b5b8135611195848260208601611107565b91505092915050565b600067ffffffffffffffff8211156111b9576111b861105b565b5b602082029050602081019050919050565b600080fd5b600067ffffffffffffffff8211156111ea576111e961105b565b5b6111f382610df4565b9050602081019050919050565b82818337600083830152505050565b600061122261121d846111cf565b6110bb565b90508281526020810184848401111561123e5761123d6111ca565b5b611249848285611200565b509392505050565b600082601f83011261126657611265611056565b5b813561127684826020860161120f565b91505092915050565b600061129261128d8461119e565b6110bb565b905080838252602082019050602084028301858111156112b5576112b4611102565b5b835b818110156112fc57803567ffffffffffffffff8111156112da576112d9611056565b5b8086016112e78982611251565b855260208501945050506020810190506112b7565b5050509392505050565b600082601f83011261131b5761131a611056565b5b813561132b84826020860161127f565b91505092915050565b600067ffffffffffffffff82111561134f5761134e61105b565b5b602082029050602081019050919050565b61136981610d43565b811461137457600080fd5b50565b60008135905061138681611360565b92915050565b600061139f61139a84611334565b6110bb565b905080838252602082019050602084028301858111156113c2576113c1611102565b5b835b818110156113eb57806113d78882611377565b8452602084019350506020810190506113c4565b5050509392505050565b600082601f83011261140a57611409611056565b5b813561141a84826020860161138c565b91505092915050565b60008060006060848603121561143c5761143b610cae565b5b600084013567ffffffffffffffff81111561145a57611459610cb3565b5b61146686828701611170565b935050602084013567ffffffffffffffff81111561148757611486610cb3565b5b61149386828701611306565b925050604084013567ffffffffffffffff8111156114b4576114b3610cb3565b5b6114c0868287016113f5565b9150509250925092565b600082825260208201905092915050565b60006114e682610da5565b6114f081856114ca565b9350611500818560208601610dc1565b61150981610df4565b840191505092915050565b6000602082019050818103600083015261152e81846114db565b905092915050565b7f54686973206f7065726174696f6e206973207265737472696374656420746f2060008201527f746865206f776e6572206f662074686520636f6e747261637400000000000000602082015250565b60006115926039836114ca565b915061159d82611536565b604082019050919050565b600060208201905081810360008301526115c181611585565b9050919050565b7f4e487b7100000000000000000000000000000000000000000000000000000000600052602260045260246000fd5b6000600282049050600182168061160f57607f821691505b60208210811415611623576116226115c8565b5b50919050565b7f4e487b7100000000000000000000000000000000000000000000000000000000600052603260045260246000fd5b7f4e487b7100000000000000000000000000000000000000000000000000000000600052601160045260246000fd5b600061169282610fc9565b91507fffffffffffffffffffffffffffffffffffffffffffffffffffffffffffffffff8214156116c5576116c4611658565b5b600182019050919050565b7f596f75206d75737420686176652077726974652061636365737320746f20636860008201527f616e67652074686520636f6e7472616374207374617465000000000000000000602082015250565b600061172c6037836114ca565b9150611737826116d0565b604082019050919050565b6000602082019050818103600083015261175b8161171f565b9050919050565b6000604082019050611777600083018561102c565b6117846020830184610d4f565b9392505050565b600061179682610fc9565b91506117a183610fc9565b9250827fffffffffffffffffffffffffffffffffffffffffffffffffffffffffffffffff038211156117d6576117d5611658565b5b828201905092915050565b60008190508160005260206000209050919050565b60008154611803816115f7565b61180d81866114ca565b94506001821660008114611828576001811461183a5761186d565b60ff198316865260208601935061186d565b611843856117e1565b60005b8381101561186557815481890152600182019150602081019050611846565b808801955050505b50505092915050565b600060608201905061188b600083018661102c565b818103602083015261189d81856117f6565b90506118ac6040830184610d4f565b94935050505056fea264697066735822122042781b78179be3fbaa2c98a8a04de67d3ffd5f06568e2a34323c7e73a5c430ca64736f6c63430008090033",
  "linkReferences": {},
  "deployedLinkReferences": {}
}