{
  "_format": "hh-sol-artifact-1",
  "contractName": "Main",
  "sourceName": "contracts/Main.sol",
  "abi": [
    {
      "anonymous": false,
      "inputs": [
        {
          "indexed": false,
          "internalType": "address",
          "name": "contractAddr",
          "type": "address"
        }
      ],
      "name": "Add",
      "type": "event"
    },
    {
      "anonymous": false,
      "inputs": [
        {
          "indexed": false,
          "internalType": "address",
          "name": "contractAddr",
          "type": "address"
        }
      ],
      "name": "Create",
      "type": "event"
    },
    {
      "anonymous": false,
      "inputs": [],
      "name": "Remove",
      "type": "event"
    },
    {
      "inputs": [
        {
          "internalType": "address",
          "name": "listAddr",
          "type": "address"
        }
      ],
      "name": "addList",
      "outputs": [],
      "stateMutability": "nonpayable",
      "type": "function"
    },
    {
      "inputs": [
        {
          "internalType": "string",
          "name": "title",
          "type": "string"
        }
      ],
      "name": "createList",
      "outputs": [],
      "stateMutability": "nonpayable",
      "type": "function"
    },
    {
      "inputs": [],
      "name": "getLists",
      "outputs": [
        {
          "internalType": "contract TodoList[]",
          "name": "",
          "type": "address[]"
        }
      ],
      "stateMutability": "view",
      "type": "function"
    },
    {
      "inputs": [
        {
          "internalType": "address",
          "name": "listAddr",
          "type": "address"
        }
      ],
      "name": "removeList",
      "outputs": [],
      "stateMutability": "nonpayable",
      "type": "function"
    }
  ],
  "bytecode": "0x608060405234801561001057600080fd5b50612b4c806100206000396000f3fe60806040523480156200001157600080fd5b5060043610620000525760003560e01c806360a20c4914620000575780639db332441462000077578063b8dcc68f1462000097578063cb4b090914620000b7575b600080fd5b6200007560048036038101906200006f91906200071b565b620000d9565b005b6200009560048036038101906200008f91906200071b565b62000389565b005b620000b56004803603810190620000af9190620008af565b6200046a565b005b620000c1620005c8565b604051620000d0919062000a28565b60405180910390f35b600081905060008173ffffffffffffffffffffffffffffffffffffffff166381045ead6040518163ffffffff1660e01b815260040160206040518083038186803b1580156200012757600080fd5b505afa1580156200013c573d6000803e3d6000fd5b505050506040513d601f19601f8201168201806040525081019062000162919062000a87565b905060008060003373ffffffffffffffffffffffffffffffffffffffff1673ffffffffffffffffffffffffffffffffffffffff16815260200190815260200160002060016000803373ffffffffffffffffffffffffffffffffffffffff1673ffffffffffffffffffffffffffffffffffffffff16815260200190815260200160002080549050620001f4919062000ae8565b8154811062000208576200020762000b23565b5b9060005260206000200160009054906101000a900473ffffffffffffffffffffffffffffffffffffffff169050806000803373ffffffffffffffffffffffffffffffffffffffff1673ffffffffffffffffffffffffffffffffffffffff168152602001908152602001600020838154811062000289576200028862000b23565b5b9060005260206000200160006101000a81548173ffffffffffffffffffffffffffffffffffffffff021916908373ffffffffffffffffffffffffffffffffffffffff1602179055506000803373ffffffffffffffffffffffffffffffffffffffff1673ffffffffffffffffffffffffffffffffffffffff16815260200190815260200160002080548062000322576200032162000b52565b5b6001900381819060005260206000200160006101000a81549073ffffffffffffffffffffffffffffffffffffffff021916905590557f6424bd8c78c3d8e79e0d2138594559394eeeb0000dea53d09622b86fd60b4e4d60405160405180910390a150505050565b60008190506000803373ffffffffffffffffffffffffffffffffffffffff1673ffffffffffffffffffffffffffffffffffffffff168152602001908152602001600020819080600181540180825580915050600190039060005260206000200160009091909190916101000a81548173ffffffffffffffffffffffffffffffffffffffff021916908373ffffffffffffffffffffffffffffffffffffffff1602179055507f87dc5eecd6d6bdeae407c426da6bfba5b7190befc554ed5d4d62dd5cf939fbae816040516200045e919062000b92565b60405180910390a15050565b600081336000803373ffffffffffffffffffffffffffffffffffffffff1673ffffffffffffffffffffffffffffffffffffffff16815260200190815260200160002080549050604051620004be9062000694565b620004cc9392919062000c53565b604051809103906000f080158015620004e9573d6000803e3d6000fd5b5090506000803373ffffffffffffffffffffffffffffffffffffffff1673ffffffffffffffffffffffffffffffffffffffff168152602001908152602001600020819080600181540180825580915050600190039060005260206000200160009091909190916101000a81548173ffffffffffffffffffffffffffffffffffffffff021916908373ffffffffffffffffffffffffffffffffffffffff1602179055507fe3758539c1bd6726422843471b2886c2d2cefd3b4aead6778386283e20a32a8081604051620005bc919062000b92565b60405180910390a15050565b60606000803373ffffffffffffffffffffffffffffffffffffffff1673ffffffffffffffffffffffffffffffffffffffff1681526020019081526020016000208054806020026020016040519081016040528092919081815260200182805480156200068a57602002820191906000526020600020905b8160009054906101000a900473ffffffffffffffffffffffffffffffffffffffff1673ffffffffffffffffffffffffffffffffffffffff16815260200190600101908083116200063f575b5050505050905090565b611e7f8062000c9883390190565b6000604051905090565b600080fd5b600080fd5b600073ffffffffffffffffffffffffffffffffffffffff82169050919050565b6000620006e382620006b6565b9050919050565b620006f581620006d6565b81146200070157600080fd5b50565b6000813590506200071581620006ea565b92915050565b600060208284031215620007345762000733620006ac565b5b6000620007448482850162000704565b91505092915050565b600080fd5b600080fd5b6000601f19601f8301169050919050565b7f4e487b7100000000000000000000000000000000000000000000000000000000600052604160045260246000fd5b620007a28262000757565b810181811067ffffffffffffffff82111715620007c457620007c362000768565b5b80604052505050565b6000620007d9620006a2565b9050620007e7828262000797565b919050565b600067ffffffffffffffff8211156200080a576200080962000768565b5b620008158262000757565b9050602081019050919050565b82818337600083830152505050565b6000620008486200084284620007ec565b620007cd565b90508281526020810184848401111562000867576200086662000752565b5b6200087484828562000822565b509392505050565b600082601f8301126200089457620008936200074d565b5b8135620008a684826020860162000831565b91505092915050565b600060208284031215620008c857620008c7620006ac565b5b600082013567ffffffffffffffff811115620008e957620008e8620006b1565b5b620008f7848285016200087c565b91505092915050565b600081519050919050565b600082825260208201905092915050565b6000819050602082019050919050565b6000819050919050565b600062000957620009516200094b84620006b6565b6200092c565b620006b6565b9050919050565b60006200096b8262000936565b9050919050565b60006200097f826200095e565b9050919050565b620009918162000972565b82525050565b6000620009a5838362000986565b60208301905092915050565b6000602082019050919050565b6000620009cb8262000900565b620009d781856200090b565b9350620009e4836200091c565b8060005b8381101562000a1b578151620009ff888262000997565b975062000a0c83620009b1565b925050600181019050620009e8565b5085935050505092915050565b6000602082019050818103600083015262000a448184620009be565b905092915050565b6000819050919050565b62000a618162000a4c565b811462000a6d57600080fd5b50565b60008151905062000a818162000a56565b92915050565b60006020828403121562000aa05762000a9f620006ac565b5b600062000ab08482850162000a70565b91505092915050565b7f4e487b7100000000000000000000000000000000000000000000000000000000600052601160045260246000fd5b600062000af58262000a4c565b915062000b028362000a4c565b92508282101562000b185762000b1762000ab9565b5b828203905092915050565b7f4e487b7100000000000000000000000000000000000000000000000000000000600052603260045260246000fd5b7f4e487b7100000000000000000000000000000000000000000000000000000000600052603160045260246000fd5b62000b8c81620006d6565b82525050565b600060208201905062000ba9600083018462000b81565b92915050565b600081519050919050565b600082825260208201905092915050565b60005b8381101562000beb57808201518184015260208101905062000bce565b8381111562000bfb576000848401525b50505050565b600062000c0e8262000baf565b62000c1a818562000bba565b935062000c2c81856020860162000bcb565b62000c378162000757565b840191505092915050565b62000c4d8162000a4c565b82525050565b6000606082019050818103600083015262000c6f818662000c01565b905062000c80602083018562000b81565b62000c8f604083018462000c42565b94935050505056fe608060405260006001553480156200001657600080fd5b5060405162001e7f38038062001e7f83398181016040528101906200003c91906200040d565b8060008190555081600360006101000a81548173ffffffffffffffffffffffffffffffffffffffff021916908373ffffffffffffffffffffffffffffffffffffffff16021790555082600290805190602001906200009c92919062000120565b50600160046000600360009054906101000a900473ffffffffffffffffffffffffffffffffffffffff1673ffffffffffffffffffffffffffffffffffffffff1673ffffffffffffffffffffffffffffffffffffffff16815260200190815260200160002060006101000a81548160ff021916908315150217905550505050620004ed565b8280546200012e90620004b7565b90600052602060002090601f0160209004810192826200015257600085556200019e565b82601f106200016d57805160ff19168380011785556200019e565b828001600101855582156200019e579182015b828111156200019d57825182559160200191906001019062000180565b5b509050620001ad9190620001b1565b5090565b5b80821115620001cc576000816000905550600101620001b2565b5090565b6000604051905090565b600080fd5b600080fd5b600080fd5b600080fd5b6000601f19601f8301169050919050565b7f4e487b7100000000000000000000000000000000000000000000000000000000600052604160045260246000fd5b6200023982620001ee565b810181811067ffffffffffffffff821117156200025b576200025a620001ff565b5b80604052505050565b600062000270620001d0565b90506200027e82826200022e565b919050565b600067ffffffffffffffff821115620002a157620002a0620001ff565b5b620002ac82620001ee565b9050602081019050919050565b60005b83811015620002d9578082015181840152602081019050620002bc565b83811115620002e9576000848401525b50505050565b600062000306620003008462000283565b62000264565b905082815260208101848484011115620003255762000324620001e9565b5b62000332848285620002b9565b509392505050565b600082601f830112620003525762000351620001e4565b5b815162000364848260208601620002ef565b91505092915050565b600073ffffffffffffffffffffffffffffffffffffffff82169050919050565b60006200039a826200036d565b9050919050565b620003ac816200038d565b8114620003b857600080fd5b50565b600081519050620003cc81620003a1565b92915050565b6000819050919050565b620003e781620003d2565b8114620003f357600080fd5b50565b6000815190506200040781620003dc565b92915050565b600080600060608486031215620004295762000428620001da565b5b600084015167ffffffffffffffff8111156200044a5762000449620001df565b5b62000458868287016200033a565b93505060206200046b86828701620003bb565b92505060406200047e86828701620003f6565b9150509250925092565b7f4e487b7100000000000000000000000000000000000000000000000000000000600052602260045260246000fd5b60006002820490506001821680620004d057607f821691505b60208210811415620004e757620004e662000488565b5b50919050565b61198280620004fd6000396000f3fe608060405234801561001057600080fd5b50600436106100a95760003560e01c806397a1689c1161007157806397a1689c14610141578063a30f75c91461015d578063c17a340e1461017b578063e5a5e6fe14610199578063f2fde38b146101b5578063ff3c1a8f146101d1576100a9565b80631122b3a6146100ae578063197a6dc0146100ca5780633bc5de30146100e8578063455f50241461010757806381045ead14610123575b600080fd5b6100c860048036038101906100c39190610d84565b6101ef565b005b6100d261035d565b6040516100df9190610dcc565b60405180910390f35b6100f06103b5565b6040516100fe929190611000565b60405180910390f35b610121600480360381019061011c919061106d565b61058e565b005b61012b6106d2565b60405161013891906110a9565b60405180910390f35b61015b60048036038101906101569190611491565b6106db565b005b610165610989565b6040516101729190610dcc565b60405180910390f35b6101836109dd565b60405161019091906110a9565b60405180910390f35b6101b360048036038101906101ae9190610d84565b6109e7565b005b6101cf60048036038101906101ca9190610d84565b610b09565b005b6101d9610bdd565b6040516101e69190611582565b60405180910390f35b600360009054906101000a900473ffffffffffffffffffffffffffffffffffffffff1673ffffffffffffffffffffffffffffffffffffffff163373ffffffffffffffffffffffffffffffffffffffff161461027f576040517f08c379a000000000000000000000000000000000000000000000000000000000815260040161027690611616565b60405180910390fd5b600460008273ffffffffffffffffffffffffffffffffffffffff1673ffffffffffffffffffffffffffffffffffffffff16815260200190815260200160002060009054906101000a900460ff1615600460008373ffffffffffffffffffffffffffffffffffffffff1673ffffffffffffffffffffffffffffffffffffffff16815260200190815260200160002060006101000a81548160ff0219169083151502179055507f5bf5439f7f9350bd946ae989209039471cdc88d8524b96de66b8d1f876abd770816040516103529190611645565b60405180910390a150565b60003373ffffffffffffffffffffffffffffffffffffffff16600360009054906101000a900473ffffffffffffffffffffffffffffffffffffffff1673ffffffffffffffffffffffffffffffffffffffff1614905090565b606080600060015467ffffffffffffffff8111156103d6576103d56110c9565b5b60405190808252806020026020018201604052801561040957816020015b60608152602001906001900390816103f45790505b509050600060015467ffffffffffffffff81111561042a576104296110c9565b5b6040519080825280602002602001820160405280156104585781602001602082028036833780820191505090505b50905060005b600154811015610581576005600082815260200190815260200160002060000180546104899061168f565b80601f01602080910402602001604051908101604052809291908181526020018280546104b59061168f565b80156105025780601f106104d757610100808354040283529160200191610502565b820191906000526020600020905b8154815290600101906020018083116104e557829003601f168201915b505050505083828151811061051a576105196116c1565b5b60200260200101819052506005600082815260200190815260200160002060010160009054906101000a900460ff1682828151811061055c5761055b6116c1565b5b60200260200101901515908115158152505080806105799061171f565b91505061045e565b5081819350935050509091565b60011515600460003373ffffffffffffffffffffffffffffffffffffffff1673ffffffffffffffffffffffffffffffffffffffff16815260200190815260200160002060009054906101000a900460ff16151514610621576040517f08c379a0000000000000000000000000000000000000000000000000000000008152600401610618906117da565b60405180910390fd5b6005600082815260200190815260200160002060010160009054906101000a900460ff16156005600083815260200190815260200160002060010160006101000a81548160ff0219169083151502179055507fe668c7a227d9261aa1f964bf5a852ab642446a7af6c29405caf8d0e9ce2c11f0816005600084815260200190815260200160002060010160009054906101000a900460ff166040516106c79291906117fa565b60405180910390a150565b60008054905090565b60011515600460003373ffffffffffffffffffffffffffffffffffffffff1673ffffffffffffffffffffffffffffffffffffffff16815260200190815260200160002060009054906101000a900460ff1615151461076e576040517f08c379a0000000000000000000000000000000000000000000000000000000008152600401610765906117da565b60405180910390fd5b60005b8351811015610957576001548482815181106107905761078f6116c1565b5b6020026020010151106107cb5760018482815181106107b2576107b16116c1565b5b60200260200101516107c49190611823565b6001819055505b60405180604001604052808483815181106107e9576107e86116c1565b5b60200260200101518152602001838381518110610809576108086116c1565b5b602002602001015115158152506005600086848151811061082d5761082c6116c1565b5b60200260200101518152602001908152602001600020600082015181600001908051906020019061085f929190610c6f565b5060208201518160010160006101000a81548160ff0219169083151502179055509050507f05d0fb833127fc08168556d0e7ca9554fc3f6bc843b3b7d2bf1c35aea6bab6608482815181106108b7576108b66116c1565b5b6020026020010151600560008785815181106108d6576108d56116c1565b5b6020026020010151815260200190815260200160002060000160056000888681518110610906576109056116c1565b5b6020026020010151815260200190815260200160002060010160009054906101000a900460ff1660405161093c9392919061190e565b60405180910390a1808061094f9061171f565b915050610771565b507f8080f39d268bf0b9bc04bcf29765470f11fd7422f9a1523f5286ce23fd1d6f2160405160405180910390a1505050565b6000600460003373ffffffffffffffffffffffffffffffffffffffff1673ffffffffffffffffffffffffffffffffffffffff16815260200190815260200160002060009054906101000a900460ff16905090565b6000600154905090565b600360009054906101000a900473ffffffffffffffffffffffffffffffffffffffff1673ffffffffffffffffffffffffffffffffffffffff163373ffffffffffffffffffffffffffffffffffffffff1614610a77576040517f08c379a0000000000000000000000000000000000000000000000000000000008152600401610a6e90611616565b60405180910390fd5b6001600460008373ffffffffffffffffffffffffffffffffffffffff1673ffffffffffffffffffffffffffffffffffffffff16815260200190815260200160002060006101000a81548160ff0219169083151502179055507f5bf5439f7f9350bd946ae989209039471cdc88d8524b96de66b8d1f876abd77081604051610afe9190611645565b60405180910390a150565b600360009054906101000a900473ffffffffffffffffffffffffffffffffffffffff1673ffffffffffffffffffffffffffffffffffffffff163373ffffffffffffffffffffffffffffffffffffffff1614610b99576040517f08c379a0000000000000000000000000000000000000000000000000000000008152600401610b9090611616565b60405180910390fd5b80600360006101000a81548173ffffffffffffffffffffffffffffffffffffffff021916908373ffffffffffffffffffffffffffffffffffffffff16021790555050565b606060028054610bec9061168f565b80601f0160208091040260200160405190810160405280929190818152602001828054610c189061168f565b8015610c655780601f10610c3a57610100808354040283529160200191610c65565b820191906000526020600020905b815481529060010190602001808311610c4857829003601f168201915b5050505050905090565b828054610c7b9061168f565b90600052602060002090601f016020900481019282610c9d5760008555610ce4565b82601f10610cb657805160ff1916838001178555610ce4565b82800160010185558215610ce4579182015b82811115610ce3578251825591602001919060010190610cc8565b5b509050610cf19190610cf5565b5090565b5b80821115610d0e576000816000905550600101610cf6565b5090565b6000604051905090565b600080fd5b600080fd5b600073ffffffffffffffffffffffffffffffffffffffff82169050919050565b6000610d5182610d26565b9050919050565b610d6181610d46565b8114610d6c57600080fd5b50565b600081359050610d7e81610d58565b92915050565b600060208284031215610d9a57610d99610d1c565b5b6000610da884828501610d6f565b91505092915050565b60008115159050919050565b610dc681610db1565b82525050565b6000602082019050610de16000830184610dbd565b92915050565b600081519050919050565b600082825260208201905092915050565b6000819050602082019050919050565b600081519050919050565b600082825260208201905092915050565b60005b83811015610e4d578082015181840152602081019050610e32565b83811115610e5c576000848401525b50505050565b6000601f19601f8301169050919050565b6000610e7e82610e13565b610e888185610e1e565b9350610e98818560208601610e2f565b610ea181610e62565b840191505092915050565b6000610eb88383610e73565b905092915050565b6000602082019050919050565b6000610ed882610de7565b610ee28185610df2565b935083602082028501610ef485610e03565b8060005b85811015610f305784840389528151610f118582610eac565b9450610f1c83610ec0565b925060208a01995050600181019050610ef8565b50829750879550505050505092915050565b600081519050919050565b600082825260208201905092915050565b6000819050602082019050919050565b610f7781610db1565b82525050565b6000610f898383610f6e565b60208301905092915050565b6000602082019050919050565b6000610fad82610f42565b610fb78185610f4d565b9350610fc283610f5e565b8060005b83811015610ff3578151610fda8882610f7d565b9750610fe583610f95565b925050600181019050610fc6565b5085935050505092915050565b6000604082019050818103600083015261101a8185610ecd565b9050818103602083015261102e8184610fa2565b90509392505050565b6000819050919050565b61104a81611037565b811461105557600080fd5b50565b60008135905061106781611041565b92915050565b60006020828403121561108357611082610d1c565b5b600061109184828501611058565b91505092915050565b6110a381611037565b82525050565b60006020820190506110be600083018461109a565b92915050565b600080fd5b7f4e487b7100000000000000000000000000000000000000000000000000000000600052604160045260246000fd5b61110182610e62565b810181811067ffffffffffffffff821117156111205761111f6110c9565b5b80604052505050565b6000611133610d12565b905061113f82826110f8565b919050565b600067ffffffffffffffff82111561115f5761115e6110c9565b5b602082029050602081019050919050565b600080fd5b600061118861118384611144565b611129565b905080838252602082019050602084028301858111156111ab576111aa611170565b5b835b818110156111d457806111c08882611058565b8452602084019350506020810190506111ad565b5050509392505050565b600082601f8301126111f3576111f26110c4565b5b8135611203848260208601611175565b91505092915050565b600067ffffffffffffffff821115611227576112266110c9565b5b602082029050602081019050919050565b600080fd5b600067ffffffffffffffff821115611258576112576110c9565b5b61126182610e62565b9050602081019050919050565b82818337600083830152505050565b600061129061128b8461123d565b611129565b9050828152602081018484840111156112ac576112ab611238565b5b6112b784828561126e565b509392505050565b600082601f8301126112d4576112d36110c4565b5b81356112e484826020860161127d565b91505092915050565b60006113006112fb8461120c565b611129565b9050808382526020820190506020840283018581111561132357611322611170565b5b835b8181101561136a57803567ffffffffffffffff811115611348576113476110c4565b5b80860161135589826112bf565b85526020850194505050602081019050611325565b5050509392505050565b600082601f830112611389576113886110c4565b5b81356113998482602086016112ed565b91505092915050565b600067ffffffffffffffff8211156113bd576113bc6110c9565b5b602082029050602081019050919050565b6113d781610db1565b81146113e257600080fd5b50565b6000813590506113f4816113ce565b92915050565b600061140d611408846113a2565b611129565b905080838252602082019050602084028301858111156114305761142f611170565b5b835b81811015611459578061144588826113e5565b845260208401935050602081019050611432565b5050509392505050565b600082601f830112611478576114776110c4565b5b81356114888482602086016113fa565b91505092915050565b6000806000606084860312156114aa576114a9610d1c565b5b600084013567ffffffffffffffff8111156114c8576114c7610d21565b5b6114d4868287016111de565b935050602084013567ffffffffffffffff8111156114f5576114f4610d21565b5b61150186828701611374565b925050604084013567ffffffffffffffff81111561152257611521610d21565b5b61152e86828701611463565b9150509250925092565b600082825260208201905092915050565b600061155482610e13565b61155e8185611538565b935061156e818560208601610e2f565b61157781610e62565b840191505092915050565b6000602082019050818103600083015261159c8184611549565b905092915050565b7f54686973206f7065726174696f6e206973207265737472696374656420746f2060008201527f746865206f776e6572206f662074686520636f6e747261637400000000000000602082015250565b6000611600603983611538565b915061160b826115a4565b604082019050919050565b6000602082019050818103600083015261162f816115f3565b9050919050565b61163f81610d46565b82525050565b600060208201905061165a6000830184611636565b92915050565b7f4e487b7100000000000000000000000000000000000000000000000000000000600052602260045260246000fd5b600060028204905060018216806116a757607f821691505b602082108114156116bb576116ba611660565b5b50919050565b7f4e487b7100000000000000000000000000000000000000000000000000000000600052603260045260246000fd5b7f4e487b7100000000000000000000000000000000000000000000000000000000600052601160045260246000fd5b600061172a82611037565b91507fffffffffffffffffffffffffffffffffffffffffffffffffffffffffffffffff82141561175d5761175c6116f0565b5b600182019050919050565b7f596f75206d75737420686176652077726974652061636365737320746f20636860008201527f616e67652074686520636f6e7472616374207374617465000000000000000000602082015250565b60006117c4603783611538565b91506117cf82611768565b604082019050919050565b600060208201905081810360008301526117f3816117b7565b9050919050565b600060408201905061180f600083018561109a565b61181c6020830184610dbd565b9392505050565b600061182e82611037565b915061183983611037565b9250827fffffffffffffffffffffffffffffffffffffffffffffffffffffffffffffffff0382111561186e5761186d6116f0565b5b828201905092915050565b60008190508160005260206000209050919050565b6000815461189b8161168f565b6118a58186611538565b945060018216600081146118c057600181146118d257611905565b60ff1983168652602086019350611905565b6118db85611879565b60005b838110156118fd578154818901526001820191506020810190506118de565b808801955050505b50505092915050565b6000606082019050611923600083018661109a565b8181036020830152611935818561188e565b90506119446040830184610dbd565b94935050505056fea2646970667358221220005f2168e43844a5ef95ecd7044e84e8b50d9b60f43231ad20574d9cbfd75f2f64736f6c63430008090033a26469706673582212202539bacdd5e3d37ddad0d2b1ab3e926afe6fa1eec00efd64e1882a17ae49368a64736f6c63430008090033",
  "linkReferences": {},
  "deployedLinkReferences": {}
}